:020000040800F2
:1000000098E6002031030008D5A8000839830008CD
:10001000D1A800085D190008A11A0108000000001D
:100020000000000000000000000000007102000855
:100030000933000800000000CD020008DDE90008D7
:100040004B0300084B0300084B0300084B03000858
:100050004B0300084B0300080B3300084B03000858
:100060004B030008153300081F3300084B0300083A
:10007000452300084B0300084B0300084B0300080E
:100080004B0300084B0300084B0300084B03000818
:10009000E11B00084B0300084B030008293300084C
:1000A0004B0300084B0300084B0300084B030008F8
:1000B0004B03000829EB00084B0300084B03000822
:1000C0004B0300084B0300084B0300084B030008D8
:1000D0004B03000865F400084B03000875F40008A2
:1000E0004B0300084B0300084B0300084B030008B8
:1000F0004B0300084B0300084B0300084B030008A8
:100100004B0300084B0300084B0300084B03000897
:100110004B0300084B03000839EB00084B030008B1
:100120005523000865230008752300084B030008C9
:100130004B0300084B0300084B0300084B03000867
:10014000591C00084B0300084B0300089DAB000836
:100150000D2C00081D2C00082D2C000899F4000817
:100160004B0300084B0300084B0300084B03000837
:100170004B0300084B0300084B030008000000007D
:100180004B0300084B03000800F002F800F060F891
:100190000AA090E8000C82448344AAF10107DA45E2
:1001A00001D100F055F8AFF2090EBAE80F0013F0D4
:1001B000010F18BFFB1A43F00103184740B60100B6
:1001C00060B601000A444FF0000C10F8013B13F038
:1001D000070408BF10F8014B1D1108BF10F8015BA0
:1001E000641E05D010F8016B641E01F8016BF9D193
:1001F00013F0080F1EBF10F8014BAD1C0C1B09D1EA
:100200006D1E58BF01F801CBFAD505E014F8016B5B
:1002100001F8016B6D1EF9D59142D6D370470000ED
:100220000023002400250026103A28BF78C1FBD8FF
:10023000520728BF30C148BF0B6070471FB51AF086
:1002400087F99DE8030000F011FF1FBD10B510BD38
:1002500000F0B2FF1146FFF7F1FF15F0DDFA00F0F4
:10026000D0FF03B4FFF7F2FF03BC01F007F8000072
:100270002C4B19680868B0E8F04F80F30988BFF389
:100280006F8F4FF0000080F311887047000000006E
:1002900008480068006880F308884FF0000080F389
:1002A000148862B661B6BFF34F8FBFF36F8F00DF64
:1002B00000BF00BF08ED00E0DFF80C00016841F46A
:1002C00070010160704700BF88ED00E0EFF3098026
:1002D000BFF36F8F134B1A681EF0100F08BF20ED8D
:1002E000108A20E9F04F106009B44FF0500080F3FD
:1002F0001188BFF34F8FBFF36F8F17F033FD4FF0AF
:10030000000080F3118809BC19680868B0E8F04F54
:100310001EF0100F08BFB0EC108A80F30988BFF3FD
:100320006F8F7047E4070020EFF3058070470000EF
:100330000948804709480047FEE7FEE7FEE7FEE779
:10034000FEE7FEE7FEE7FEE7FEE7FEE704480549B5
:10035000054A064B70470000C5EA000889010008FD
:1003600098A6002098E6002098C6002098C6002095
:1003700070B405880E884468D1F804C05368B5424B
:1003800008D140884988884201BF11888D42518830
:10039000884203D070BC6FF00200704705FB00F18B
:1003A000880827D094ED001ADCED000A94ED010ACC
:1003B000DCED011A31EE201AD4ED020A70EE211A9A
:1003C0009CED020A83ED001AC3ED011A94ED031AA5
:1003D000DCED031A30EE800A401E71EE210A83ED37
:1003E000020A04F11004C3ED030A03F110030CF137
:1003F000100CD7D111F0030030D0B0F1004F30D243
:1004000000282BDD211F1B1FACF1040210F0010F8F
:100410000AD091ED010AD2ED010A091D121D30EE3C
:10042000200A83ED010A1B1D400817D091ED010A37
:10043000D2ED010A401E30EE200A83ED010A91ED53
:10044000020AD2ED020A01F1080102F1080230EEBF
:10045000200A83ED020A03F10803E7D170BC0020F3
:100460007047B4EC010A401EFCEC010A30EE200A91
:10047000A3EC010AF5D1F1E70180428043607047A7
:100480002DE9F34F84B004984068009048680190CB
:100490000498B0F800E04588DFEDFE0A00200290E5
:1004A000B0EE600AAE4506D108884988884204BF8C
:1004B0007146864504D06FF0020006B0BDE8F08FAB
:1004C00001985FEA010C18BFB7EE001A3DD000BFDB
:1004D000BEEB0C0117D0B1F1004F80F01F82002954
:1004E00011DD021F11F0010F1CBFC2ED010A121D28
:1004F0004B1006D0C2ED010AC2ED020A08325B1EA3
:10050000F8D100EB8100BCF10102A0EC011A19D076
:10051000B2F1004F80F00882002A13DD031F12F0B1
:10052000010F1CBFC3ED010A1B1D511008D000BFF5
:10053000C3ED010AC3ED020A491E03F10803F7D116
:1005400000EB8200BCF1010CC2D14FF00008039512
:10055000002D14BFB0EE602A002000F0BF8100BF64
:10056000009908FB05F001EB800B0199DBED002AF7
:1005700001EB80000346F0EE421AC64552D9AEEBBD
:100580000802ABEB850112F0010F17D001EB8501DA
:1005900091ED000AB5EEC00AF1EE10FA07DDB4EEF7
:1005A000E10AF1EE10FA09DDF0EE401A06E0B1EED4
:1005B000400AF4EEC01AF1EE10FAF5D3521031D021
:1005C00001EB850C9CED000AB5EEC00AF1EE10FAC5
:1005D00005DDB4EEE10AF1EE10FA09DD06E0B1EE58
:1005E000400AF4EEC01AF1EE10FA01D2F0EE401A11
:1005F00001EBC50191ED000AB5EEC00AF1EE10FA6B
:1006000005DDB4EEE10AF1EE10FA09DD06E0B1EE27
:10061000400AF4EEC01AF1EE10FA01D2F0EE401AE0
:10062000521ECDD1F5EEC01AF1EE10FA00F0738132
:10063000F5EEC02A0126F1EE10FA0099D4BFB1EE12
:10064000620AB0EE620AB4EE610AF1EE10FA1CBF63
:10065000AEEB0802B2F1010C47D005FB08F201EB4A
:10066000820292ED001A00BFB0EE410A05FB06F4CB
:10067000B5EEC00A00EB8404F1EE10FACCBFF0EE48
:10068000400AF1EE400AF4EE610AF1EE10FA28D1C8
:10069000B5EB080C11D0BCF1004F7DD2BCF1000FBE
:1006A0000BDD00BF92ED000AD1ED000ABCF1010C98
:1006B000E2EC010AA1EC010AF4D129000ED0B1F15B
:1006C000004F6AD2002909DD94ED000AD0ED000A3E
:1006D000491EE4EC010AA0EC010AF5D101200290C8
:1006E0000BE0761CBCF1010CBED10298012804D0AD
:1006F000F5EEC02AF1EE10FA7ED09BED000AB5EBC4
:1007000008009A465946064622D0B0F1004F74D2EE
:1007100000281DDD091F10F0010F06D0F0EE400A81
:1007200080EEA01A81ED011A091D401010D000BF03
:10073000D1ED010A401E80EE801A81ED011A91ED83
:10074000021AC1EE000AC1ED020A01F10801EFD15F
:10075000280026D0B0F1004F7ED2002821DDAAF17A
:10076000040110F0010F06D0D1ED010A80EE801ACD
:1007700081ED011A091D401013D000BFD1ED010A0F
:10078000401E80EE801A81ED011AD1ED020A80EE42
:10079000801A81ED021A01E0CBE0D6E001F10801F8
:1007A000ECD1DDE900124FF000095FEA0E0773D0CB
:1007B000C14504BF01EB860102EB850274D091EDC7
:1007C000000ADC465046331E35D01C46B6F1004FB9
:1007D0007ED2002C2FDD0B1FABF1040C16F0010FA5
:1007E0000FD0F0EE400ADCED011AB0EE601A00EE18
:1007F000E11A83ED011A01E08DE0B1E01B1D0CF15F
:10080000040C741015D000BFD3ED010A9CED011A41
:1008100040EE410AC3ED010AD3ED020A9CED021A33
:100820000CF1080C40EE410AC3ED020A0833641EC5
:10083000EAD101EB86012B0036D0B3F1004F72D222
:10084000002B31DDA2F1040CAAF1040013F0010F1A
:100850000CD0DCED010A00E08BE090ED011A001DE8
:1008600040EE410ACCED010A0CF1040C5C1019D0E9
:10087000DCED010A90ED011A40EE410ACCED010ACF
:10088000DCED020A90ED021A083040EE410ACCED90
:10089000020A03E0000000000DE005E0641E0CF118
:1008A000080CE5D102EB830201EB88017F1E09F100
:1008B00001097FF47DAF009808F10108001D009048
:1008C0000398401E03907FF44BAE0299012900E08B
:1008D00058E004BF06B0BDE8F08F00BFB5EEC00A17
:1008E000F1EE10FA7FF4E9AD04990EFB05F3002B4D
:1008F0004A684FF000010BD902EB810C9CED000A15
:10090000B5EEC00AF1EE10FA02D1491C8B42F3D8C1
:100910008B427FF4D2AD6FF00400CEE5E0EC010A2B
:10092000491EFBD1EFE538E0E0EC010A521EFBD195
:1009300008E692ED000AD1ED000ABCF1010CE2ECF0
:10094000010AA1EC010AF4D1B7E694ED000AD0ED5A
:10095000000A491EE4EC010AA0EC010AF5D1BDE64B
:10096000D1ED000A401E80EE801AA1EC011AF7D1E9
:10097000EEE6D3ED000A401E80EE801AA3EC011AC9
:10098000F7D10EE7BCEC011AD1ED000A5B1E40EE78
:10099000410AE1EC010AF5D14DE7B0EC011AD2EDC4
:1009A000000A5B1E40EE410AE2EC010AF5D17BE74A
:1009B0002DE9F04F82B04668536801930588478857
:1009C0004B88002000900888874201BFB2F800C021
:1009D0006545528893421EBF6FF0020002B0BDE829
:1009E000F08F9FED412A4FEA970EC7F3400B00BFEF
:1009F000DDE9000202EB800A4A6898464FF00009E0
:100A0000B0EE420AB4465FEA0E0025D092ED001A1D
:100A1000DCED001A02EB8302DCED010A01EE810A33
:100A200092ED001A02EB8302401ED2ED001A02EB97
:100A3000830200EE810A9CED021ADCED030A000439
:100A40000CF1100C000C01EE210A92ED001A02EBE1
:100A5000830200EE810AD9D117F0030026D0ACF151
:100A60000404A2EB830210F0010F08D002EB830212
:100A7000D4ED010A92ED001A241D00EE810A5FEA0E
:100A80000B0013D002EB830CD4ED010A9CED001A8D
:100A900002EBC302401E00EE810AD4ED020A92ED81
:100AA000001A04F1080400EE810AEBD109F10100FB
:100AB000AAEC010A1FFA80F9486800EB8902A8F144
:100AC00001001FFA80F8B8F1000F99D1009806EBE9
:100AD0008706184480B20090681E05042D0C87D14B
:100AE00002B00020BDE8F08F0000000070B405885F
:100AF0000E884468D1F804C05368B54208D14088D4
:100B00004988884201BF11888D425188884203D0AC
:100B100070BC6FF00200704705FB00F1880827D019
:100B200094ED001ADCED000A94ED010ADCED011AE7
:100B300031EE601AD4ED020A70EE611A9CED020AE1
:100B400083ED001AC3ED011A94ED031ADCED031ACC
:100B500030EEC00A401E71EE610A83ED020A04F114
:100B60001004C3ED030A03F110030CF1100CD7D1EC
:100B700011F0030030D0B0F1004F30D200282BDD4F
:100B8000211F1B1FACF1040210F0010F0AD091EDE0
:100B9000010AD2ED010A091D121D30EE600A83ED33
:100BA000010A1B1D400817D091ED010AD2ED010A80
:100BB000401E30EE600A83ED010A91ED020AD2ED8B
:100BC000020A01F1080102F1080230EE600A83ED29
:100BD000020A03F10803E7D170BC00207047B4ECAF
:100BE000010A401EFCEC010A30EE600AA3EC010A87
:100BF000F5D1F1E72DE9F04F02884768B0F802809F
:100C00004888D1F8049082B04FF0000A164682421C
:100C100007BF098888456FF0020002B018BFBDE821
:100C2000F08F4FEA980B02EB42000190C8F34000AE
:100C3000CDF8000009EB8A01BBF1000F33D0019819
:100C400001EB820C01EB80043B46E64601EBC2055A
:100C50004FEA0B0093ED000A401E81ED000A93ED70
:100C6000010A01EB02118CED000A93ED020A0CEB74
:100C7000021C85ED000A93ED030A05EB021584EDD5
:100C8000000A04EB021403F11003E3D10EEB82001F
:100C900000EB820000EB8201ABF10100504307EB57
:100CA0000B1701EB001118F0030C21D03B1FA1EB37
:100CB00082011CF0010F06D093ED010A01EB8201C5
:100CC0001B1D81ED000A009880B100BF93ED010A61
:100CD00001EB820401EBC20184ED000A93ED020AEC
:100CE000401E81ED000A03F10803EFD107EB8C07EA
:100CF0000AF101001FFA80FA701E0604360C99D121
:100D000002B00020BDE8F08F70B5064600F092F901
:100D1000056806F10B0020F00704B4429CBF0020D8
:100D200070BD2B466A68BAB11068A04210D304F1B6
:100D3000080188423CBF5068586007D351681019B9
:100D400041601168091B016058601460101D70BD7E
:100D500013465268002AE7D12146284600F072F96E
:100D60000028DED170BD70B50446051F00F062F9A1
:100D70000068002C14BF446870BD002C18BFAC4242
:100D80003CBF20466468F8D301680A18AA4218BF1D
:100D9000456003D12A68054611440160286841195D
:100DA000A1421CBF6C6070BD616869602168084425
:100DB000286070BD53EA020C00F069802DE9F04B09
:100DC0004FF00006002B1FBFB3FA83F503FA05F4BA
:100DD00024FA05F65E4012BF1643B2FA82F502FA13
:100DE00005F4C5F120051EBF22FA05FC44EA0C04F7
:100DF000203556EA044C4FEA144418BF641C4FF0E7
:100E000000084FF00009904271EB030C39D3002920
:100E100019BFB1FA81F701FA07F6B0FA80F700FAC4
:100E200007F6C7F120071EBF20FA07FC46EA0C06AA
:100E30002037B6FBF4FCA7EB0507103F07F01F0BAC
:100E4000CBF120060CFA0BFB2CFA06F644BFB34696
:100E50000026202FA4BF5E464FF0000B5BEA060C75
:100E600008BF4FF0010B19EB0B09ABFB027C48EB01
:100E70000608C01B06FB02CC0BFB03CC71EB0C017C
:100E8000C1E70B46024641464846BDE8F08B13B524
:100E90004FF000004FF00001AFF30080BDE81C40B0
:100EA000704710B5431C02E010F8011B71B18107B7
:100EB000FAD14FF0013202C88C1A8C4314EAC211E5
:100EC000F9D0C01A0A0603D0C01E10BDC01A10BD4A
:100ED0000A0401D0801E10BD0902FCD0401E10BDC6
:100EE000032A40F2308010F0030C00F0158011F856
:100EF000013BBCF1020F624498BF11F801CB00F82E
:100F0000013B38BF11F8013BA2F1040298BF00F881
:100F100001CB38BF00F8013B11F0030300F025803E
:100F2000083AC0F0088051F8043B083A51F804CB65
:100F3000A0E80810F5E7121D5CBF51F8043B40F82B
:100F4000043BAFF30080D20724BF11F8013B11F836
:100F500001CB48BF11F8012B24BF00F8013B00F87A
:100F600001CB48BF00F8012B704710B5203AC0F004
:100F70000B80B1E81850203AA0E81850B1E818509A
:100F8000A0E81850BFF4F5AF5FEA027C24BFB1E8D7
:100F90001850A0E8185044BF18C918C0BDE8104048
:100FA0005FEA827C24BF51F8043B40F8043B08BF51
:100FB0007047D20728BF31F8023B48BF11F8012B18
:100FC00028BF20F8023B48BF00F8012B704702F011
:100FD000FF0343EA032242EA024200F08AB84FF0DC
:100FE000000200B5134694469646203922BFA0E879
:100FF0000C50A0E80C50B1F12001BFF4F7AF090785
:1010000028BFA0E80C5048BF0CC05DF804EB890075
:1010100028BF40F8042B08BF704748BF20F8022BB8
:1010200011F0804F18BF00F8012B704770477047D0
:1010300070470000004870473CA60020704770478A
:101040007047704738B504460A4600206946AFF33A
:101050000080002808BF38BD02460099204600F0F5
:1010600071F8012038BD012000F09EB8F8B5AFF34B
:101070000080054600200C46102000BF0646A81937
:10108000A0420DD9324669460020AFF30080070028
:1010900008BF00F089F80098A04218BF0546C4199F
:1010A000FFF7C8FF05600746F01D20F0070046194E
:1010B000284600F00AF8B44208BFF8BDA21B31462A
:1010C0003868BDE8F84000F03DB800210160C0E993
:1010D000011070471020704710B500F02FF800681D
:1010E00010BD10B5044600F029F8046010BD4FF0A3
:1010F00000020429C0F0128010F0030C3FF471AF1D
:10110000CCF1040CBCF1020F18BF00F8012BA8BFF2
:1011100020F8022BA1EB0C01FFF763BF5FEAC17C53
:1011200024BF00F8012B00F8012B48BF00F8012B69
:10113000704700000048704734A600200048704700
:1011400034A60020034640688C46002818BF884219
:101150003CBF03464068F8D318681844884207D05B
:101160000CF1030020F00700001D411A521A01463D
:10117000081D0A60FFF7F7BD1FB584B000200A9C68
:1011800006AB04AA02A90094AFF3008018B1DDE910
:10119000020108B010BD0348204000F040F80020D4
:1011A0000146F6E70000207C10B500F03FF8BDE8EE
:1011B000104000F02FB870477546FFF7BBFFAE46F2
:1011C00005006946534620F00700854618B020B553
:1011D000FFF7BCF8BDE820404FF000064FF00007D5
:1011E0004FF000084FF0000B21F00701AC46ACE8CF
:1011F000C009ACE8C009ACE8C009ACE8C0098D463C
:10120000704710B50446AFF300802046BDE810409B
:10121000FFF727B8002801D000F030B8704710B5AC
:1012200000F04CF8BDE81040FFF7F4BF10B50128FE
:1012300005D0002103A000F027F8012010BD09A16E
:10124000F8E7000053494752544D454D3A204F7539
:1012500074206F662068656170206D656D6F7279AE
:10126000000000003A2048656170206D656D6F7266
:101270007920636F7272757074656400014918207B
:10128000ABBEFEE72600020070B505460C460A20FC
:1012900000E06D1C00F068F835B128780028F8D11E
:1012A00002E0641C00F060F814B120780028F8D146
:1012B000BDE870400A2000F057B8000010B50228C1
:1012C00003D0410103D50DA112E0002010BD0101A2
:1012D00001D50FA10CE0C10001D511A108E08100EA
:1012E00001D512A104E0400001D513A100E00021C6
:1012F00015A0FFF7C9FF012010BD0000496E7661FF
:101300006C6964204F7065726174696F6E000000D3
:10131000446976696465204279205A65726F0000DD
:101320004F766572666C6F7700000000556E6465DD
:1013300072666C6F77000000496E65786163742097
:10134000526573756C7400005349474650453A2006
:1013500041726974686D657469632065786365704E
:1013600074696F6E3A20000008B569468DF8000078
:101370000320ABBE08BD000055494A6822F4403244
:101380004A604A6843681A434A600268526822F415
:10139000807203685A6002685368026943EA022255
:1013A00003685A600268526822F0407203685A600B
:1013B0000268526883681A4303685A600268926838
:1013C00022F4006203689A6002689268C3681A4354
:1013D00003689A603F4B826A9A4218D0026892680A
:1013E00022F0706203689A6002689268836A1A4306
:1013F00003689A600268926822F0405203689A601B
:1014000002689268C36A1A4303689A600BE0026834
:10141000926822F0706203689A600268926822F013
:10142000405203689A600268926822F002020368E0
:101430009A6002689368027E43EA420203689A60F7
:101440002022125CA2B10268526842F40062036872
:101450005A600268526822F4604203685A60026867
:101460005368426A521E43EA423203685A6005E0FA
:101470000268526822F4006203685A600268D26A05
:1014800022F470020368DA620268D36A828B521E09
:1014900043EA02520368DA620268926822F4007238
:1014A00003689A600268936890F8302043EA422209
:1014B00003689A600268926822F4806203689A6006
:1014C00002689368426943EA822203689A6070471F
:1014D000002301400100000FB7EE000A80ED000A72
:1014E0009FED060A80ED010A9FED040A80ED020AD5
:1014F0009FED020A80ED030A704700000000000023
:101500002DE9F0412DED028B0746B0EE408A0C46E6
:1015100015461E46D6ED024AB0EE644AD6ED014AA3
:10152000F0EE643AD6ED004AB0EE643AD5ED024AE8
:10153000F0EE642AD5ED014AB0EE642AD5ED004AFA
:10154000F0EE641AD4ED024AB0EE641AD4ED014A0A
:10155000F0EE640AD4ED004AB0EE640A384608F0B2
:1015600063FDBDEC028BBDE8F081D0ED000AF4EE26
:10157000C00AF1EE10FA02DD80ED000A0CE0D0EDB9
:10158000000AB1EE401AF4EEC10AF1EE10FA03D2ED
:10159000F1EE400AC0ED000A7047000010B50122CC
:1015A0001021024803F060FE10BD00000000024060
:1015B00010B500221021024803F056FE10BD0000B5
:1015C000000002407047000010B501221146024899
:1015D00003F04AFE10BD00000004024010B50022D6
:1015E0000121024803F040FE10BD0000000402404B
:1015F00010B543781B021BB20478234300EE103A67
:10160000B8EEC01A1C4BD3ED001A21EE211A81ED61
:10161000001AC3781B021BB28478234300EE103AF1
:10162000B8EEC01A144BD3ED001A21EE211A81ED49
:10163000011A43791B021BB20479234300EE103ACE
:10164000B8EEC01A0C4BD3ED001A21EE211A81ED31
:10165000021A037A1B04C47943EA042384792343DE
:1016600000EE903AB8EE601ADFED041A21EE211A6E
:1016700082ED001A10BD00005C06002000401C42F4
:10168000704710B50446204614F0FAFA10BD10B5A4
:101690000446204612F08EFF10BD00004278120270
:1016A00012B203781A4300EE102AF8EEC00A144A68
:1016B00092ED001A60EE810AC1ED000AC2781202B2
:1016C00012B283781A4300EE102AF8EEC00A0C4AD0
:1016D00092ED001A60EE810AC1ED010A4279120210
:1016E00012B203791A4300EE102AF8EEC00A044A37
:1016F00092ED001A60EE810AC1ED020A7047000007
:101700006006002010B50024FFF75CFFFFF7B8FF6C
:1017100012F0A0F910B144F0800402E012F000F9D8
:10172000044312F07BFB10B144F0400402E012F0DD
:10173000FBFA0443002010BD2DE9FC4105460E468E
:101740001746002000900190FFF732FF922000F032
:10175000D1F806226946122000F0ACF8FFF71EFF10
:101760009DF80100000200B29DF8001040EA01045B
:1017700000EE104AB8EEC00A4C48D0ED000A20EE48
:10178000200A86ED000A9DF80300000200B29DF8D1
:10179000021040EA010400EE104AB8EEC00A4348C5
:1017A000D0ED000A20EE200A86ED010A9DF8050022
:1017B000000200B29DF8041040EA010400EE104A55
:1017C000B8EEC00A3948D0ED000A20EE200A86EDB6
:1017D000020AFFF703FF08226946002000F06AF8BA
:1017E000FFF7F2FE9DF800000F2838D19DF80300A6
:1017F000000200B29DF8021040EA010400EE104A17
:10180000B8EEC00A2A48D0ED000A20EE200A85ED85
:10181000000A9DF80500000200B29DF8041040EA9D
:10182000010400EE104AB8EEC00A2148D0ED000ACB
:1018300020EE200A85ED010A9DF80700000200B2A3
:101840009DF8061040EA010400EE104AB8EEC00A06
:101850001748D0ED000A20EE200A85ED020AFFF7B6
:10186000A7FEA22000F046F802226946222000F0DE
:1018700021F8FFF793FE9DF80000C0009DF80110CD
:1018800040EA6114B4F5806F02DBA4F5006004B295
:1018900000EE104AF8EEC00AB4EE001AB3EE070AE2
:1018A00000EE810A87ED000ABDE8FC815C0600209D
:1018B0006006002070B506460C46154646F08000CE
:1018C00000F018F806E0552000F014F82070641CB1
:1018D000681EC5B2002DF6D170BD70B504460D4628
:1018E00044F0800000F006F8552000F003F828705E
:1018F00070BD000001B582B04FF47A70012301AAD7
:1019000002A90090024805F0E0FC9DF804000EBD1D
:101910003823002010B502461378DB00547843EAE0
:101920006410B0F5806F02DBA0F5006318B200EE22
:10193000100AF8EEC00AB4EE001AB3EE070A00EE81
:10194000810A81ED000A10BD70B505460C46284697
:10195000FFF7D0FF2046FFF7CDFF70BD00BFFEE7C9
:1019600010B50821054806F0D3F900200449087095
:10197000488008728880C88010BD0000282500209B
:10198000084200204748007820B1012809D00228E9
:1019900048D13FE000204349488088800872C880D1
:1019A00079E040488088401C3E4988800846C088CD
:1019B000012801D1002008703A4989884FF49672B5
:1019C00091FBF2F000EBD0714910A0EB410139B965
:1019D0003449097A21B987203249488001200872A8
:1019E000304989884FF4967291FBF2F000EBD07188
:1019F0004910A0EB410101290BD12A49097A01299B
:101A000007D100202749488008720846C088401C3A
:101A1000C88040E001202349488000208880087267
:101A2000C88038E01F488088401C1E4988800846CE
:101A3000C088032801D1002008701A4989884FF412
:101A4000967291FBF2F000EBD0714910A0EB4101CE
:101A500039B91449097A21B98720124948800120EF
:101A60000872104989884FF4967291FBF2F000EBEE
:101A7000D0714910A0EB410101290BD10949097A24
:101A8000012907D100200749488008720846C0880C
:101A9000401CC88000BF00BF024840880249096856
:101AA000C8637047084200202825002010B500F0C8
:101AB0000FF8064802F037FF04480068406940F01C
:101AC000020002490968486110BD0000942200200C
:101AD00000B58BB000200A90069007900120089076
:101AE000002001900290039004900590012009903D
:101AF00001A9024802F0DEFA0BB000BD94220020DA
:101B00008EB000BF4FF0FF3205A93448006816F0D0
:101B100073FC0446012CF5D10598B0F5017F08D17E
:101B2000142209A96846FFF720FA05A80FC807F094
:101B300039FB40F203210598884208D1142209A9F3
:101B40006846FFF712FA05A80FC807F02BFB40F212
:101B500002210598884208D1142209A96846FFF796
:101B600004FA05A80FC807F07FFA40F2052105988E
:101B7000884208D1142209A96846FFF7F6F905A89A
:101B80000FC801F0BBFE40F206210598884208D13B
:101B9000142209A96846FFF7E8F905A80FC801F063
:101BA000D7FD40F207210598884208D1142209A9DF
:101BB0006846FFF7DAF905A80FC801F09FFE0598FF
:101BC000B0F5027F9ED1142209A96846FFF7CDF92E
:101BD00005A80FC801F0BCFD94E70000A80500208F
:101BE00010B504480068401C02490860024802F031
:101BF000B1FB10BD6C0400209422002010B500F051
:101C000011F8074802F08FFE08B100BFFEE7044854
:101C10000068406940F0020001490968486110BD50
:101C2000BC22002000B58BB00E200A900690002048
:101C300007900120089000200190029003900490EA
:101C400005900120099001A9024802F033FA0BB077
:101C500000BD0000BC22002010B504480068401CF4
:101C600002490860024802F075FB10BD74040020B0
:101C7000BC22002010B507480078012809D1064B86
:101C80004FF499720021054800F00AF8002001493C
:101C9000087010BD22030020F4160020BC22002092
:101CA0002DE9F84381460E4615461F46002015498A
:101CB000C86008468660806810B90846056005E07F
:101CC00010488068042801D10E48456008200D495D
:101CD0000861002008750846D0F81080002405E04F
:101CE000395D084818300155601CC4B24445F7D32B
:101CF0006B46044A18320349484602F02FF9BDE802
:101D0000F8830000E84100200346042B15D007DCCF
:101D10007BB1012B0ED0022B0DD0032B12D10BE087
:101D2000202B0BD0212B0AD0222B09D0232B09D119
:101D300007E008E007E006E005E004E003E002E079
:101D400001E000E000BF00BF0020704700207047A6
:101D500010B50022044905480DF044FD044903482C
:101D60000DF039FD002010BD6039002088280020CA
:101D70006031002070B504460D46214603480DF041
:101D80002AFD02480DF002FD002070BD88280020C9
:101D900010B503460C460021084610BDF0EE400A7F
:101DA0000268521C026090ED021A00EE101AB8EEA2
:101DB000400AB4EE401AF1EE10FA19D090ED010A83
:101DC00030EEC01AD0ED021A00EE101AB8EE400A3A
:101DD00030EE610AC1EE001AC0ED031AC0ED010A2F
:101DE00000EE101AB8EE400A80ED020A00220260EE
:101DF0000268C82A03DD9FED030A80ED030A90ED17
:101E0000030A704700000000F0EE400A0268521C0E
:101E1000026090ED021A00EE101AB8EE400AB4EE1D
:101E2000401AF1EE10FA1DD090ED010A30EEC01A02
:101E3000D0ED021A00EE101AB8EE400A70EE611AE8
:101E400081EE210AB0EE001A20EE010A80ED030AAD
:101E5000C0ED010A00EE101AB8EE400A80ED020A49
:101E6000002202600268C82A03DD9FED030A80EDAC
:101E7000030A90ED030A7047000000008EB00024B2
:101E800000BF4FF0FF3205A9E548006816F0B4FA2C
:101E90000546012DF5D1E3480068401CE149086082
:101EA000E1480068401CE04908600598962808D180
:101EB000142209A96846FFF758F805A80FC806F0CC
:101EC000BFFC0598B0F5A97F0DD1002404E00CA853
:101ED000005DD6490855641C082CF8DBD348007A0D
:101EE000401CD24908720598B0F5A27F4ED1D04867
:101EF0000068401CCE490860002404E00CA8005D86
:101F0000CC490855641C082CF8DBCA480078012825
:101F100003D0C848C079012802D10120C649087001
:101F2000C448007828B9C348C07910B90020C24914
:101F30000870C0480078012802D1C049087002E04A
:101F40000020BE490870BB48C079012802D1BC49B5
:101F5000087002E00020BA490870B648C07801282D
:101F600003D0B4480079012802D10120B549087096
:101F7000B048C07810B1AF48007910B90020B1491D
:101F80000870B149A1F1080001F06AFD0598B0F5AB
:101F9000A37F0DD1002404E00CA8005DAB490855D7
:101FA000641C082CF8DBAA480068401CA84908609B
:101FB00040F24711059888420FD1002406E00CA892
:101FC000015DA24A04F108001154641C082CF6DBE0
:101FD000A0480068401C9F4908600598B0F5A47FA0
:101FE0000FD1002406E00CA8015D984A04F110000E
:101FF0001154641C082CF6DB97480068401C964975
:10200000086040F24911059888420FD1002406E08B
:102010000CA8015D8D4A04F118001154641C082CB1
:10202000F6DB8E480068401C8C4908600598B0F5C6
:10203000A87F08D1002404E00CA8005D8849085559
:10204000641C082CF8DB40F25111059888420FD12E
:10205000002406E00CA8015D814A04F10800115437
:10206000641C082CF6DB7F480068401C7D49086032
:102070000598B0F5A17F08D1002404E00CA8005D0C
:1020800079490855641C082CF8DB40F24311059887
:1020900088420FD1002406E00CA8015D724A04F1C9
:1020A00008001154641C082CF6DB70480068401CC2
:1020B0006E4908600598B0F59B7F0DD1002404E0BF
:1020C0000CA8005D6A490855641C082CF8DB6948B7
:1020D0000068401C6749086040F237110598884243
:1020E00007D19DF830006449087008464078401CCC
:1020F00048700598B0F59C7F0DD1002404E00CA831
:10210000005D5E490855641C082CF8DB50480068E7
:10211000401C4F49086040F23911059888420FD1A0
:10212000002406E00CA8015D544A04F10800115493
:10213000641C082CF6DB47480068401C45490860D1
:102140000598B0F5A07F0FD1002406E00CA8015D32
:102150004A4A04F110001154641C082CF6DB3E4876
:102160000068401C3C49086040F2411105988842D3
:1021700014D1002406E00CA8015D404A04F11800C7
:102180001154641C082CF6DB3D480068401C3C4997
:1021900008603C480068401C3A49086040F235112C
:1021A000059888420DD1002404E00CA8005D364952
:1021B0000855641C082CF8DB34480068401C33497F
:1021C00008600598B0F59A7F0FD1002406E00CA8AE
:1021D000015D2D4A04F108001154641C082CF6DB43
:1021E0002B480068401C2A49086040F233110598CA
:1021F00088427FF446AE002406E00CA8015D224A26
:1022000004F110001154641C082CF6DB214800680E
:10221000401C2049086001201F49087031E6000079
:10222000AC0500203405002070040020780900204F
:10223000B0040020B602002045050020480500201B
:102240004705002044050020F80E0020CD15002091
:1022500094040020980400209C040020A80400207E
:10226000EE150020B4040020BC150020AC040020B2
:10227000AC0200208C040020B4020020A015002035
:10228000A0040020A4040020FA150020B8040020B7
:10229000BC040020C0040020C804002010B5024681
:1022A000002004E012F8013B4340044CE05C0B1EAC
:1022B000A1F10104A1B2F5D110BD0000D0A7010821
:1022C00010B5B7EE000A164880ED0B0A154B022236
:1022D00011461548FEF7D0F8144B02221146144857
:1022E000FEF7CAF800211348C0F898109FED120AB3
:1022F000D0F89C0080ED100A9FED0F0A0D48D0F831
:102300009C0080ED140A0D4890ED070A0C4880ED02
:10231000010A0A4890ED030A094880ED000A10BD41
:10232000C01400202C010020C8130020100200203F
:1023300060140020080F0020000000005843002017
:10234000A80F002010B5024802F038FB10BD0000B5
:102350006827002010B5024802F030FB10BD0000D5
:10236000E823002010B5024802F028FB10BD000051
:10237000C827002010B5FE48C06C0068FD4988429F
:1023800076D9FC4854380068F949C96C0968FA4A9A
:10239000914201D1202169E0F549C96C0968F54AEB
:1023A000483A914201D1202160E0F149C96C0968A5
:1023B000F14A6032914201D1202157E0EC49C96CC9
:1023C0000968EC4A1832914201D120214EE0E849D7
:1023D000C96C0968E84A1832914201D1C91445E034
:1023E000E349C96C0968E34A303A914201D1C91402
:1023F0003CE0DF49C96C0968DF4A7832914201D17B
:10240000C91433E0DA49C96C0968DA4A30329142BA
:1024100001D1C9142AE0D649C96C0968D64A3032BC
:10242000914202D14FF4001120E0D149C96C0968F2
:10243000D04A183A914202D14FF4001116E0CC492B
:10244000C96C0968CC4A9032914202D14FF4001114
:102450000CE0C749C96C0968C64A4832914203D1A9
:102460004FF4001102E003E04FF00061084070E11A
:10247000BF48C06C0068C049A831884276D9BD48C1
:1024800058380068BA49C96C0968BB4A914201D101
:10249000202169E0B649C96C0968B64A483A9142B8
:1024A00001D1202160E0B249C96C0968B24A6032AA
:1024B000914201D1202157E0AD49C96C0968AD4A6C
:1024C0001832914201D120214EE0A949C96C096816
:1024D000A94A1832914201D1C91445E0A449C96CF6
:1024E0000968A44A303A914201D1C9143CE0A0499C
:1024F000C96C0968A04A7832914201D1C91433E00D
:102500009B49C96C09689B4A3032914201D1C91478
:102510002AE09749C96C0968974A3032914202D142
:102520004FF4001120E09249C96C0968914A183AA9
:10253000914202D14FF4001116E08D49C96C09682F
:102540008D4A9032914202D14FF400110CE088493B
:10255000C96C0968874A4832914203D14FF400118F
:1025600002E003E04FF000610840F2E08048C06CF8
:10257000006881494831884276D97F4810384068E0
:102580007B49C96C09687C4A914201D1202169E0EC
:102590007749C96C0968774A483A914201D12021AC
:1025A00060E07349C96C0968734A6032914201D195
:1025B000202157E06E49C96C09686E4A1832914271
:1025C00001D120214EE06A49C96C09686A4A183273
:1025D000914201D1C91445E06549C96C0968654A51
:1025E000303A914201D1C9143CE06149C96C096893
:1025F000614A7832914201D1C91433E05C49C96C17
:1026000009685C4A3032914201D1C9142AE0584924
:10261000C96C0968584A3032914202D14FF4001116
:1026200020E05349C96C0968524A183A914202D1D4
:102630004FF4001116E04E49C96C09684E4A9032B9
:10264000914202D14FF400110CE04949C96C09686C
:10265000484A4832914203D14FF4001102E003E0AE
:102660004FF00061084074E043481038006840496A
:10267000C96C0968404A914201D1202168E03C4977
:10268000C96C09683B4A483A914201D120215FE078
:102690003749C96C0968384A6032914201D120211A
:1026A00056E03349C96C0968324A1832914201D167
:1026B00020214DE02E49C96C09682F4A18329142F9
:1026C00001D1C91444E02A49C96C0968294A303A41
:1026D000914201D1C9143BE02549C96C0968264AD9
:1026E0007832914201D1C91432E02149C96C09689C
:1026F000204A3032914201D1C91429E01C49C96CE9
:1027000009681D4A3032914202D14FF400111FE096
:102710001749C96C0968174A183A914202D14FF417
:10272000001115E01249C96C0968134A90329142B0
:1027300002D14FF400110BE00D49C96C09680D4A34
:102740004832914202D14FF4001101E04FF0006194
:10275000084000286FD00648C06C006805498842D0
:102760007BD90348C06C00680349884208D105E062
:10277000382300205864024010600240202068E0A6
:10278000FE48C06C0068FE49884201D1202060E00C
:10279000FA48C06C0068FB49884201D1202058E00B
:1027A000F648C06C0068F6496031884201D12020AB
:1027B0004FE0F248C06C0068F2494839884201D1C4
:1027C000C01446E0ED48C06C0068ED4918318842FD
:1027D00001D1C0143DE0E948C06C0068E9491831F6
:1027E000884201D1C01434E0E448C06C0068E44978
:1027F0007831884201D1C0142BE0E048C06C0068F9
:10280000E0493039884202D14FF4001021E0DB4822
:10281000C06C0068DA493031884202D14FF40010B0
:1028200017E0D648C06C0068D6493031884204D1E0
:102830004FF400100DE0DFE10FE0D048C06C0068FD
:10284000CF499031884202D14FF4001001E04FF09F
:102850000060CB49091F08606AE1C848C06C006885
:10286000C8494831884274D9C448C06C0068C54919
:102870006039884201D1202066E0C048C06C006801
:10288000BF49884201D120205EE0BC48C06C00688E
:10289000BC49884201D1202056E0B848C06C00688D
:1028A000B7496031884201D120204DE0B348C06C67
:1028B0000068B4494839884201D1C01444E0AF48A7
:1028C000C06C0068AE491831884201D1C0143BE0A9
:1028D000AA48C06C0068AB491831884201D1C014C5
:1028E00032E0A648C06C0068A5497831884201D121
:1028F000C01429E0A148C06C0068A2493039884260
:1029000002D14FF400101FE09C48C06C00689C4945
:102910003031884202D14FF4001015E09748C06C66
:10292000006898493031884202D14FF400100BE022
:102930009248C06C006892499031884202D14FF4AD
:10294000001001E04FF000608D4908390860EFE0A9
:10295000FFE78A48C06C00688A491839884274D9F0
:102960008648C06C006887496039884201D12020C0
:1029700066E08248C06C00688149884201D120200D
:102980005EE07E48C06C00687E49884201D120200C
:1029900056E07A48C06C006879496031884201D1BC
:1029A00020204DE07548C06C00687649483988425F
:1029B00001D1C01444E07148C06C006870491831FE
:1029C000884201D1C0143BE06C48C06C00686D497E
:1029D0001831884201D1C01432E06848C06C0068E8
:1029E00067497831884201D1C01429E06348C06C3E
:1029F000006864493039884202D14FF400101FE06A
:102A00005E48C06C00685E493031884202D14FF4A4
:102A1000001015E05948C06C00685A4930318842AE
:102A200002D14FF400100BE05448C06C00685449C8
:102A30009031884202D14FF4001001E04FF0006065
:102A400050497039C86073E0FFE74C48C06C0068BB
:102A50004C496039884201D1202066E04748C06C6B
:102A600000684749884201D120205EE04348C06C9D
:102A700000684449884201D1202056E03F48C06C9C
:102A800000683F496031884201D120204DE03B4839
:102A9000C06C00683B494839884201D1C01444E009
:102AA0003648C06C006836491831884201D1C014DC
:102AB0003BE03248C06C006832491831884201D18D
:102AC000C01432E02D48C06C00682D49783188422E
:102AD00001D1C01429E02948C06C00682949303967
:102AE000884202D14FF400101FE02448C06C0068F7
:102AF00023493031884202D14FF4001015E01F48BD
:102B0000C06C00681F493031884202D14FF4001078
:102B10000BE01A48C06C006819499031884202D114
:102B20004FF4001001E04FF00060164970398860E2
:102B30001548007800F0020078B11348007820F0C2
:102B40000200114908700846007840F0040008703F
:102B5000012211460D4802F087FB0D48007800F075
:102B60000200E0B10A48007820F00200084908702D
:102B70000846007840F0040008700BE0382300207D
:102B800010640240706002401107002000040240FF
:102B90001207002001221021184802F065FB184896
:102BA000007800F0020078B11548007820F00200AB
:102BB000134908700846007840F0040008700122AC
:102BC00010210E4802F050FB12F0A0FA0D480078D8
:102BD00000F0040080B10B48007820F0040009499F
:102BE00008700846007840F0080008700648006841
:102BF00040F001000449086010BD000000000240E0
:102C00001307002011070020103C014010B50248B6
:102C100001F0D4FE10BD00000827002010B50248C6
:102C200001F0CCFE10BD00002828002010B502489D
:102C300001F0C4FE10BD0000A8260020014608785F
:102C400010381823B0FBF3F20848805CC865032AEB
:102C500005D908686FF30900001D886503E008685E
:102C60006FF309008865886D70470000D3B50108CF
:102C7000014600208A6A8B69CBB932B1012A0DD096
:102C8000022A03D0032A10D10EE000BFCB6A03F062
:102C90008073B3F1807F00D1012007E0CB6AB3F1EC
:102CA000C07F00D1012001E000E000BF34E08B696B
:102CB000B3F5005F1AD132B1012A07D0022A03D03E
:102CC000032A11D10AE000BF01200EE0CB6A03F015
:102CD0008073B3F1807F00D1012006E0CB6AB3F1AD
:102CE000C07F00D1012000E000BF15E032B1012A11
:102CF00005D0022A04D0032A0CD103E000BF00BF94
:102D0000012008E0CB6A03F08073B3F1807F00D12B
:102D1000012000E000BF00BF704730B504682468A0
:102D200024F4802405682C60046863608468402C67
:102D300004D10468A2600468E16003E00468A16053
:102D40000468E26030BD000000B970470178427845
:102D500041EA0221C1F30A01704A11801146098833
:102D6000A1F5806109B211804178C910827841EAE9
:102D70004211C1F30A01694A518011464988A1F5FF
:102D8000806109B2518081788911C27841EA82015B
:102D9000027941EA8221C1F30A01604A9180114619
:102DA0008988A1F5806109B2918001794910427941
:102DB00041EAC211C1F30A01584AD1801146C988BB
:102DC000A1F5806109B2D180417909118908117298
:102DD0004179C1F3011151728179C27941EA02212D
:102DE00009B24E4A9181017A427A41EA02210AB23D
:102DF0004A49CA81817AC27A41EA02210AB2474924
:102E00000A82027B8A74427BCA74817BC27B41EA5C
:102E10000221424A9182017C427C41EA0221C1F3B3
:102E20000A013E4A518111464989A1F5806109B2E2
:102E300051811146B1F90A10394A12681144384AD1
:102E400011603649C98A491C344AD1821146B1F908
:102E50000010052907DC1146B1F9001011F1050F2A
:102E600001DB002111802D49B1F90210052908DC90
:102E70002A49B1F9021011F1050F02DB0021274A9E
:102E800051802649B1F90410142908DC2349B1F90D
:102E9000041011F1140F02DB0021204A91801F4918
:102EA000B1F90610142908DC1C49B1F9061011F11A
:102EB000140F02DB0021194AD1801849B1F90A1018
:102EC000142908DC1549B1F90A1011F1140F02DBBD
:102ED0000021124A51811149B1F90010114A1268BA
:102EE0001144104A11600D49B1F902100E4A1268DE
:102EF00011440D4A11600949B1F904100B4A1268D6
:102F000011440A4A11600549B1F90610084A1268CD
:102F10001144074A116000BF17E70000C6020020F5
:102F20002405002078040020800400208404002070
:102F30008804002038B504462068006800F01000BE
:102F400010282DD12068C06800F0100040B300BFE9
:102F50000020009020680068009020684068009081
:102F600000BF00BF606B0068006820F00100616B6B
:102F700009680860606B00684068042804D109484B
:102F8000D0F81910084888471620616B0968486016
:102F9000606B0068006840F00100616B09680860C0
:102FA00038BD0000C6020020FA1500201CB5002420
:102FB000B8A103C9CDE900010026002500BF641CAB
:102FC000B649A1F1080000F04BFD642094FBF0F13C
:102FD00000FB114030B9B2480068B24908600020D7
:102FE000AF490860642094FBF0F100FB1140002819
:102FF0007FD1AD48007A022804D1AC480088AC49A2
:1030000009684863A848007A032852D1A648407A44
:1030100001284ED1A7480079032805D1A648007998
:10302000012801D1A5490860A2480079032806D1EA
:10303000A1480079032802D10220A04908609F48D6
:103040000068012814D19E4800889949096848639E
:103050009C48006864309B490860084600689A49AB
:103060000968884204DB002094490860954908609B
:1030700092480068022814D1944800888C49096855
:1030800048639048006864308E49086008460068CC
:103090008F490968884204DB002088490860894913
:1030A00008608648006820B980480088804909681F
:1030B00048637D48007A03281BD17B48407A022868
:1030C00017D17948B0F90A0010F1C80F03DC0120CC
:1030D0007A4908600DE07448B0F90A00C82803DB9B
:1030E00002207649086004E0704800887049096849
:1030F0004863642094FBF0F100FB114080B97548EF
:10310000B0F92200744908600020724948840846DA
:10311000B0F98E007149086000216E48A0F88E1049
:1031200000BF07F0D9FB6048407A022803D05E4810
:10313000407A00B100BF642094FBF0F100FB114025
:1031400030BB701C86B2012E0AD161206449087020
:1031500039204870382088703720C8706220087184
:10316000022E0BD163205E49087031204870322056
:1031700088703320C870642008710026002505E09F
:103180005748405D57494855681C85B2052DF7DB07
:103190004548007A012822D153480078012807D1F8
:1031A0005248007820B952480068401C50490860D5
:1031B0004F480068002804DD4D480068401C4C4919
:1031C00008604B480068B0F5C86F02DD0020484930
:1031D00008604548007810B9002045490860424819
:1031E000007842490870642094FBF0F100FB114024
:1031F00000BB11F0EBFD3F4880ED000A90ED000AA6
:10320000F3EE050AB4EEE00AF1EE10FA12D290EDF8
:10321000000AF3EE040AB4EEE00AF1EE10FA09DD5A
:1032200041F2883094FBF0F100FB114010B901200D
:103230003149087031480068401C30490860304806
:103240000068401C2E4908602E4800780009E8B943
:103250002C48007800F00F0028B12A48007800F0D0
:103260000F00012812D10020254908602548007868
:1032700000F00F00012802D10020204908602148F9
:10328000007820F0F000A0301E490870012012F0F4
:10329000F7FC94E66572726F72000000040F002064
:1032A000AC040020EC050020C6020020960500209A
:1032B000A8240020C4030020DC030020DC0500203B
:1032C00094050020E0050020E4050020980500207A
:1032D000E805002064160020D4050020D805002051
:1032E000CD050020C805002045050020460500202A
:1032F000500500204C0500200842002060050020F9
:103300005C050020B4020020704710B5012001F0D8
:1033100095FE10BD10B5082001F090FE10BD10B54F
:10332000102001F08BFE10BD10B5202001F086FEAC
:1033300010BD704710B5002201B909E0012901D183
:103340000A0205E0022901D10A0201E04FF44072AD
:103350000E4B1B6823F440730C4C236023461B6800
:103360001343236023461B6823F0F803236023469E
:103370001B68022444EAC0042343044C2360234610
:103380001B6843F48033236010BD0000103C0240F2
:103390001C48006800F40070B0B11A48006820F4BE
:1033A00000701849086000BF0846006840F40060DB
:1033B00008600846006820F40060086000BF084606
:1033C000006840F4007008600E48006800F48060F7
:1033D000B0B10C48006820F480600A49086000BF62
:1033E0000846006840F4805008600846006820F4F1
:1033F0008050086000BF0846006840F480600860A4
:1034000070470000003C02400A4A126822F44072F1
:10341000084B1A601A46126842F004021A601A46F3
:1034200012684FF4803343EA00231A43014B1A60B9
:1034300070470000103C0240074A126822F44072B4
:10344000054B1A601A4612681A601A46126842F052
:1034500001021A6001707047103C024010B50D491E
:10346000096821F440710B4C21602146096841F440
:10347000407121602146096841F00101216002602C
:1034800000BF00BF00BFBFF36F8F00BF00BF00BF12
:10349000436010BD103C0240084A126822F440729A
:1034A000064B1A601A46126842F480721A601A4675
:1034B000126842F001021A6001807047103C02401D
:1034C000084A126822F44072064B1A601A461268C3
:1034D00042F400721A601A46126842F001021A6041
:1034E00001607047103C02402348006800F0100063
:1034F00040B12248C06940F010002049C861102046
:103500001D4908601C48006800F0200040B11B48BD
:10351000C06940F008001949C861202016490860B8
:103520001548006800F0400040B11448C06940F000
:1035300004001249C86140200F4908600E48006825
:1035400000F0800040B10D48C06940F002000B4916
:10355000C8618020084908600748006800F0020040
:1035600040B10648C06940F020000449C86102200B
:1035700001490860704700000C3C0240D443002021
:1035800070B50446002500201449C86101F072FEA0
:10359000054609E0601C38B124B101F06BFE401B08
:1035A000A04201D9032070BD0D48006800F48030AE
:1035B0000028EFD10A48006800F0010010B1012096
:1035C000074908600648006800F0F20018B1FFF7EC
:1035D0008BFF0120E7E70020E5E70000D44300204F
:1035E0000C3C024010B52DED068B0446204616F02B
:1035F000ABF841EC1A0B53EC1A2B9FED0A0B51EC74
:10360000100B15F0EDFD41EC190B9FED080B53EC81
:10361000102B16F0E9F841EC180B16F003F8BDEC8E
:10362000068B10BD000000000000F03F000000000D
:1036300000408F40F0EE400AC0ED000A90ED030A12
:1036400090ED021AD0ED001A01EE210A80ED010A78
:1036500090ED070A90ED051A20EE010A90ED081A88
:10366000D0ED061A01EE210A80ED040A90ED070A5A
:1036700090ED0B1A20EE011AD0ED0C1A90ED0D0A08
:1036800001EE210A80ED0A0A90ED0A0A90ED0F1A68
:1036900020EE011A90ED020AD0ED0A1A60EE211A0E
:1036A00090ED0F2A90ED100A01EE820AC1EE001A89
:1036B000C0ED0E1A90ED010A90ED021AD0ED041A39
:1036C00001EE610A90ED041AD0ED0E1A01EE801A97
:1036D00080ED111A90ED130A90ED0E1AD0ED021A3A
:1036E00001EE610A90ED0A1A20EE010A80ED120A3D
:1036F00090ED110A80ED050A90ED120A80ED0B0A9B
:1037000090ED110A70470000B7EE001A80ED021A22
:10371000B7EE001A80ED071A90ED071A80ED0C1A2B
:10372000C0ED0D0A90ED021A80ED0F1A80ED100A1F
:103730009FED061A80ED051AB7EE001A80ED0B1A00
:10374000B7EE001A80ED131A704700000000000069
:103750000FB40099A1F205209DF81D109DF81C20C2
:1037600041EA022100EBC0024E4B23F822109DF8E3
:103770001F209DF81E1042EA012109B200EBC00291
:1037800003EB8202518000EBC0011A4602EB81017B
:10379000B1F9021000EE101AB8EEC00A00EBC00139
:1037A00002EB810181ED010A9DF821209DF8201096
:1037B00042EA012109B200EBC00203EB820211814F
:1037C0009DF8221000EBC00203EB8202917200EB25
:1037D000C0011A4632F8211000EBC00203EB82024E
:1037E000B2F91220891A11F5E15F0BDA00EBC00182
:1037F0001A4602EB81014969491C00EBC00203EB48
:103800008202516100EBC001264A02EB8101B1F94D
:10381000121000EBC002234B33F82220891A11F555
:10382000E15F0BDA00EBC0011A4602EB8101496946
:10383000491E00EBC00203EB8202516100EBC001A4
:10384000184A32F8211000EBC002164B03EB82023B
:1038500052694FF4005303FB021100EE101AB8EE48
:10386000C00A00EBC0010F4A02EB810181ED060A9C
:1038700000EBC00132F8211009B200EBC002094B85
:1038800003EB8202518200EBC0011A4602EB810178
:10389000498C491C09B200EBC00203EB820251843F
:1038A00004B07047641600202DE9FC4107460C4621
:1038B00015461E46380A8DF80000F8B28DF8010052
:1038C000200A8DF80200E0B28DF80300280A8DF876
:1038D0000400E8B28DF80500300A8DF80600F0B259
:1038E0008DF807006B4640F2FF1200210248FEF7F8
:1038F000D7F9BDE8FC810000942200200FB40099A4
:10390000A1F205209DF81D109DF81C2041EA02211E
:1039100000EBC0024E4B23F822109DF81F209DF8AB
:103920001E1042EA012109B200EBC00203EB820241
:10393000518000EBC0011A4602EB8101B1F902107F
:1039400000EE101AB8EEC00A00EBC00102EB8101D4
:1039500081ED010A9DF821209DF8201042EA012105
:1039600009B200EBC00203EB820211819DF8221024
:1039700000EBC00203EB8202917200EBC0011A4619
:1039800032F8211000EBC00203EB8202B2F91220E0
:10399000891A304A91420BDA00EBC0011A4602EB59
:1039A00081014969491C00EBC00203EB82025161AD
:1039B00000EBC001264A02EB8101B1F9121000EBC5
:1039C000C002234B33F82220891A224A91420BDA93
:1039D00000EBC0011A4602EB81014969491E00EB68
:1039E000C00203EB8202516100EBC001184A32F8B9
:1039F000211000EBC002164B03EB820252694FF418
:103A0000005303FB021100EE101AB8EEC00A00EBDF
:103A1000C0010F4A02EB810181ED060A00EBC001F3
:103A200032F8211009B200EBC002094B03EB82020D
:103A3000518258B9002104E007AA525C064B5A543F
:103A4000491C0729F8DB0121044A117004B07047B2
:103A5000641600209CE6FFFFF416002022030020DD
:103A600070B504460D4614F0C1FE2060D4E9001282
:103A7000881AFFF7B7FD28602068606070BD0000FD
:103A800070B50A480468001D0568001D06683444C6
:103A900054B108220649204605F0C7FA0422044919
:103AA0001031284605F0C1FA70BD0000107AFF1FE2
:103AB0002E06002038B502460020009000BF92F884
:103AC0003C00012801D1022038BD012082F83C00D1
:103AD00000BF0868092816D91068C0680C780A3C2D
:103AE00004EB44050724AC40A0431468E0600C7864
:103AF0000A3C04EB44048868A0401468E46820434E
:103B00001468E06013E0106800690C7804EB440569
:103B10000724AC40A043146820610C7804EB4404F3
:103B20008868A040146824692043146820614868AC
:103B3000072817D21068406B0C79641E04EB8405CB
:103B40001F24AC40A04314686063088880B20C79DD
:103B5000641E04EB8404A0401468646B2043146862
:103B6000606331E048680D2817D21068006B0C794B
:103B7000E41F04EB84051F24AC40A04314682063B9
:103B8000088880B20C79E41F04EB8404A040146818
:103B9000246B20431468206316E01068C06A0C7917
:103BA0000D3C04EB84051F24AC40A0431468E06284
:103BB000088880B20C790D3C04EB8404A0401468A2
:103BC000E46A20431468E062194B1A4C1068A04262
:103BD00006D10868122803D1586840F48000586064
:103BE000144C1068A0421CD10868102802D0086844
:103BF000112816D1586840F4000058600868102851
:103C00000FD10D4800680D4CB0FBF4F000EB8000C4
:103C10004000009002E00098401E009000980028AC
:103C2000F9D100BF002082F83C0000BF00BF4BE785
:103C30000023014000200140D407002040420F0033
:103C400001460868C06C704770B5044600250CB981
:103C5000012070BD1549A06A884200D000BF206CC9
:103C600030B9204600F024F80020606484F83C005D
:103C7000206C00F0100088B9206C20F4885040F0CF
:103C8000020020642046FDF777FB00206064206C72
:103C900020F0020040F00100206400E0012500BF98
:103CA000002084F83C0000BF2846D2E70100000F46
:103CB00010B586B00446142101A8FDF790F92349F8
:103CC000206888420FD100BF002000902048006883
:103CD00040F480701E4908600846006800F4807057
:103CE000009000BF2FE01B49206888422BD100BF05
:103CF000002000901648006840F480601449086075
:103D00000846006800F48060009000BF00BF00BF5C
:103D1000002000900E481438006840F020000C4944
:103D2000143908600846006800F02000009000BFC9
:103D300000BF08150190032002900020039001A904
:103D4000054801F089F906B010BD000000200140CF
:103D500044380240002201400014024070B504467D
:103D60000D4600262068806800F48060B0F5806F02
:103D700011D12068806800F48070B0F5807F0AD18E
:103D8000206C40F02000206400BF002084F83C003C
:103D900000BF012070BD01F06DFA064612E0681CFC
:103DA00080B125B101F066FA801BA8420AD9206CC7
:103DB00040F00400206400BF002084F83C0000BFF5
:103DC0000320E7E72068006800F002000228E6D13F
:103DD0006FF0120021680860206C40F400702064CD
:103DE0002068806800F04050B8B9207EA8B92068EB
:103DF000C06A00F4700020B12068806800F4806020
:103E000058B9206C20F480702064206C00F480503D
:103E100018B9206C40F0010020640020BAE70000CF
:103E200008B501460020009000BF91F83C00012831
:103E300001D1022008BD012081F83C0000BF0868C4
:103E4000806800F00100A0B90868806840F00100B7
:103E50000B6898603B4800683B4BB0FBF3F000EB0D
:103E60004000009002E00098401E0090009800285A
:103E7000F9D10868806800F0010000285FD0086C64
:103E800040F20163984340F4807008640868406819
:103E900000F4806028B1086C20F4005040F4805099
:103EA0000864086C00F48050B0F5805F04D1486C61
:103EB00020F00600486401E00020486400BF0020B4
:103EC00081F83C0000BF214A6FF022000B681860A7
:103ED000506800F01F0018BB1D4B0868984213D0B3
:103EE0001C4B0868984204D1101D006800F01F00A8
:103EF00050B1194B0868984221D11448001D006840
:103F000000F01F0010281AD20868806800F04050A6
:103F100028B90868806840F080400B6898600EE01F
:103F20000B4B086898420AD10868806800F040503E
:103F300028B90868806840F080400B6898600020CD
:103F400078E70000D407002040420F000023014022
:103F5000002001400021014000220140F0B504464C
:103F60000D461E4694F8207020688368A86800B942
:103F700000E000BF012F01D0022F7CD103F0806050
:103F800030B903F0006018B903F08050002873D0F6
:103F9000C3F30161022905D9606A40F40000606240
:103FA0000120F0BD012088403060A86860B9B5F8F4
:103FB00000C0E86840EA4C5C206800F5C07000EB87
:103FC0000110C0F800C00FE0D5E901C040EACC0004
:103FD000D5F80CC040EA0C00D4F800C00CF5C07C49
:103FE0000CEB011CCCF80000D5F810C0206800F5DF
:103FF000C07000EB0110C0F804C0287D01280ED16C
:10400000206800F5C07000EB0110406840F4807C2F
:10401000206800F5C07000EB0110C0F804C0D07932
:10402000000692F806C040EA0C4092F805C040EA4B
:104030000C2C10794CEA000C206800F5C07000EBE5
:104040000110C0F80CC0D078000692F802C040EA17
:104050000C4092F801C040EA0C2092F800C040EAFF
:104060000C00D4F800C00CF5C07C0CEB011CCCF8A3
:104070000800206801E016E00FE000F5C07000EBDA
:104080000110006840F0010C206800F5C07000EBE2
:104090000110C0F800C0002083E7606A40F40010FF
:1040A000606201207DE7606A40F480206062012048
:1040B00077E70000F0B504460A46216894F82050DE
:1040C000012D01D0022D7ED1424901F50071086811
:1040D00040F001000860086820F47C50086008681F
:1040E000566A40EA06200860107D00F01F06012095
:1040F00000FA06F3C8699843C861A1F50071D06958
:10410000C8B9D1F80C029843C1F80C02908880B26B
:10411000968940EA064601F51070576940F8376005
:10412000108880B2168940EA064601F5107057697A
:1041300000EBC7004660D069012819D1D1F80C0204
:104140001843C1F80C02908880B2168840EA0646EF
:1041500001F51070576940F83760908980B2168970
:1041600040EA064601F51070576900EBC70046604B
:10417000906928B9D1F804029843C1F8040204E018
:10418000D1F804021843C1F80402106928B9D1F823
:1041900014029843C1F8140204E0D1F81402184341
:1041A000C1F81402106A012804D1D1F81C02184386
:1041B000C1F81C02D1F8000220F00100C1F8000291
:1041C0000020F0BDFFE7606A40F4802060620120BB
:1041D000F7E7000000640040704770B5044694F8AB
:1041E0002050012D01D0022D7DD151B92068C06829
:1041F00000F0030080B9606A40F4001060620120A2
:1042000070BD2068006900F0030028B9606A40F4BE
:10421000001060620120F3E7206800F5D87000EB21
:104220000110006800F004009060906840B92068B8
:1042300000F5D87000EB01100068400D106007E039
:10424000206800F5D87000EB01100068C0085060CD
:10425000206800F5D87000EB0110006800F0020043
:10426000D060206800F5D87000EB0110406800F0C5
:104270000F001061206800F5D87000EB0110406855
:1042800000F47F40000A9061206800F5D87000EBD0
:1042900001104068000C5061206800F5D87000EBF8
:1042A000011080681870206800F5D87000EB0110CC
:1042B000806800F47F40000A5870206800F5D870CC
:1042C00000EB0110806800F47F00000C98702068FB
:1042D00000F5D87000EB01108068000ED8702068DF
:1042E00000F5D87000E02FE000EB0110C0681871F5
:1042F000206800F5D87000EB0110C06800F47F4022
:10430000000A5871206800F5D87000EB0110C068F1
:1043100000F47F00000C9871206800F5D87000EB65
:104320000110C068000ED87131B92068C06840F033
:1043300020002668F06005E02068006940F0200059
:104340002668306100205BE7606A40F4802060628C
:10435000012055E72DE9F05F0446002520684669F5
:104360002068D0F80490206887682068D0F80CA0F6
:104370002068D0F810B02068D0F8188006F001004E
:10438000002855D007F00100C0B1012021688860E5
:1043900007F0020018B1204600F0F5FA0EE007F031
:1043A000040010B145F4006508E007F0080010B102
:1043B00045F4805502E0204600F0E4FA07F48070EE
:1043C000C8B14FF480702168886007F4007018B19C
:1043D000204600F0DAFA0EE007F4806010B145F4F0
:1043E000005508E007F4006010B145F4804502E094
:1043F000204600F0C9FA07F48030C8B14FF480308D
:104400002168886007F4003018B1204600F0BFFA38
:104410000EE007F4802010B145F4004508E007F4F1
:10442000002010B145F4803502E0204600F0AEFADD
:1044300006F0080038B10AF0100020B145F400750C
:1044400010202168C86006F0040040B10AF008009E
:1044500028B108202168C860204600F00DFA06F057
:10446000020038B12068C06800F0030010B1204697
:1044700000F004FA06F0400038B10BF0100020B153
:1044800045F4806510202168086106F0200040B1E5
:104490000BF0080028B1082021680861204600F0D0
:1044A0003FFA06F0100038B12068006900F0030000
:1044B00010B1204600F035FA06F4003040B109F0A2
:1044C000100028B1102021684860204600F02AFA28
:1044D00006F4803040B109F0080028B108202168B6
:1044E0004860204600F054FA06F4004088B309F012
:1044F000040078B306F4807020B108F0010008B120
:1045000045F0010506F4007020B108F0020008B182
:1045100045F0020506F4806020B108F0040008B1FF
:1045200045F0040506F40060A0B108F0700088B101
:1045300008F07000402817D006DC10280BD0202887
:104540000CD0302819D10CE0502810D0602814D19C
:1045500010E01DE019E045F008050FE045F01005FA
:104560000CE045F0200509E045F0400506E045F087
:10457000800503E045F4807500E000BF00BF2068BF
:10458000806920F0700021688861042021684860FB
:104590002DB1606A284360622046FFF71DFEBDE82A
:1045A000F09F70B504460CB9012070BD94F820004E
:1045B00010B9204600F0B0F82068006820F0020032
:1045C0002168086000F056FE05460DE000F052FE3E
:1045D000401B0A2808D9606A40F400306062052058
:1045E00084F820000120E0E72068406800F0020025
:1045F0000028EBD12068006840F0010021680860C5
:1046000000F038FE05460DE000F034FE401B0A289D
:1046100008D9606A40F400306062052084F8200008
:104620000120C2E72068406800F001000028EBD0BC
:10463000207E012806D12068006840F080002168B3
:10464000086005E02068006820F0800021680860AC
:10465000607E012806D12068006840F04000216893
:10466000086005E02068006820F0400021680860CC
:10467000A07E012806D12068006840F02000216853
:10468000086005E02068006820F0200021680860CC
:10469000E07E012806D12068006820F01000216823
:1046A000086005E02068006840F01000216808609C
:1046B000207F012806D12068006840F008002168AA
:1046C000086005E02068006820F0080021680860A4
:1046D000607F012806D12068006840F0040021684E
:1046E000086005E02068006820F004002168086088
:1046F000D4E90201084321690843616908436168FC
:10470000491E08432168C86100206062012084F8C6
:104710002000002049E7000010B586B004461421AF
:1047200001A8FCF75CFC4E492068884241D14D4805
:104730000068401C4B4908600846006801280FD1FA
:1047400000BF002000904848006840F000704649D3
:1047500008600846006800F00070009000BF00BFCD
:1047600000BF0020009040481038006840F008006A
:104770003D49103908600846006800F008000090C4
:1047800000BF00BF03200190022002900020039090
:10479000032004900920059001A9344800F05CFC36
:1047A00000220521142001F08DF9142001F07AF97E
:1047B00054E02F492068884250D100BF002000906B
:1047C0002948006840F08060274908600846006872
:1047D00000F08060009000BF00BF22480068401CCD
:1047E000204908600846006801280FD100BF00205A
:1047F00000901D48006840F000701B4908600846A2
:10480000006800F00070009000BF00BF00BF0020F3
:10481000009015481038006840F002001249103925
:1048200008600846006800F00200009000BF00BF6A
:104830006020019002200290002003900320049049
:104840000920059001A90B4800F006FC0022052173
:10485000402001F037F9402001F024F906B010BDE6
:1048600000640040F405002040380240000C024083
:104870000068004000040240704700001CB5044678
:104880002048844212D12048006878B11F4BA3F120
:104890001C0200211B48FFF7A0FC002301AA1B49B2
:1048A0001C391948006813F02BFD00BF18488442DA
:1048B00012D11848006870B1174BA3F11C020021F7
:1048C0001348FFF78AFC00236A4613491C39114834
:1048D000006813F015FD00BF019838B14FF080500B
:1048E0000E490860BFF34F8FBFF36F8F009838B148
:1048F0004FF0805009490860BFF34F8FBFF36F8FAF
:104900001CBD000094220020A8050020A04100202A
:10491000BC220020AC0500207C41002004ED00E01A
:1049200070477047704770B5044694F8200001281E
:1049300022D1022084F820002068006820F00100C5
:104940002168086000F096FC05460DE000F092FC3E
:10495000401B0A2808D9606A40F4003060620520D4
:1049600084F82000012070BD2068406800F001003C
:104970000028EBD16062F6E7606A40F400206062D4
:104980000120F0E7704770477047704770477047E5
:104990007047014691F83500022803D08020486511
:1049A00001207047052081F835000868006820F074
:1049B00001000A6810600020F3E70000F8B5044623
:1049C000002000908C4800684FF41651B0FBF1F7BE
:1049D000A56D2E6894F85C1008208840304098B18E
:1049E0002068006800F0040070B12068006820F0C2
:1049F00004002168086094F85C1008208840A860D2
:104A0000606D40F00100606594F85C100120884002
:104A1000304068B12068406900F0800040B194F8EF
:104A20005C1001208840A860606D40F00200606565
:104A300094F85C1004208840304068B12068006819
:104A400000F0020040B194F85C1004208840A86097
:104A5000606D40F00400606594F85C1010208840A0
:104A6000304078B32068006800F0080050B394F834
:104A70005C1010208840A8602068006800F4802046
:104A800080B12068006800F4002028B9206CC8B10B
:104A90002046216C884715E0A06C98B12046A16C97
:104AA00088470FE02068006800F4807028B920680B
:104AB000006820F0080021680860206C10B12046D2
:104AC000216C884794F85C102020884030400028F2
:104AD00065D02068006800F0100000285FD094F8CE
:104AE0005C1020208840A86094F83500052828D163
:104AF0002068006820F0160021680860206840697E
:104B000020F0800021684861206C08B9A06C28B1B1
:104B10002068006820F008002168086094F85C10A4
:104B20003F208840A86000BF002084F8340000BF08
:104B3000012084F83500206D10B12046216D884792
:104B4000F8BD2068006800F4802080B1206800680B
:104B500000F4002028B9606C10B12046616C8847D1
:104B60001DE0E06BD8B12046E16B884717E0206874
:104B7000006800F4807068B92068006820F01000B8
:104B80002168086000BF002084F8340000BF0120C5
:104B900084F83500E06B10B12046E16B8847606D0A
:104BA00038B3606D00F00100F0B1052084F83500E5
:104BB0002068006820F001002168086000BF0098AC
:104BC000401C0090B84200D905E02068006800F061
:104BD00001000028F3D100BF00BF002084F834009A
:104BE00000BF012084F83500E06C10B12046E16C74
:104BF000884700BFA4E70000D40700202DE9F0415A
:104C00000446002500F036FB074614B90120BDE834
:104C1000F081606A00B100BF00BF002084F834005A
:104C200000BF022084F835002068006820F00100F1
:104C3000216808600AE000F01DFBC01B052805D9AB
:104C400020206065032084F83500E0E720680068D4
:104C500000F001000028EED12068056821480540D9
:104C6000D4E901010843E168084321690843616907
:104C70000843A1690843E1690843216A08430543E1
:104C8000606A042803D1D4E90B0108430543206876
:104C900005602068456925F00705606A0543606A7C
:104CA00004280DD1A06A0543E06A48B12046FDF70B
:104CB000DFFF28B140206065012084F83500A6E7B9
:104CC000206845612046FDF7B9FF064694F85C1060
:104CD0003F208840B06000206065012084F83500E6
:104CE000002094E73F8010F02DE9F04104460D4686
:104CF00016461F464FF0000800BF94F83400012804
:104D000002D10220BDE8F081012084F8340000BF08
:104D100094F83500012811D1022084F835000020D4
:104D200060653B46324629462046FDF7F6FF20687F
:104D3000006840F001002168086006E000BF002024
:104D400084F8340000BF4FF002084046DAE72DE94E
:104D5000F04704460D4616461F464FF00008D4F8AB
:104D6000589000BF94F83400012802D10220BDE819
:104D7000F087012084F8340000BF94F83500012842
:104D800025D1022084F83500002060653B4632467C
:104D900029462046FDF7C1FF94F85C103F2088406B
:104DA000C9F808002068006840F016002168086013
:104DB000206C28B12068006840F008002168086075
:104DC0002068006840F001002168086006E000BF2C
:104DD000002084F8340000BF4FF002084046C6E7C8
:104DE00070B5044600F046FA06462546681C10B128
:104DF00004480078054400BF00F03CFA801BA8423C
:104E0000FAD370BDE00700202DE9F04104460E46BC
:104E10000127002500BF2548007E012802D102207D
:104E2000BDE8F08101202149087600BF4CF25030E6
:104E3000FEF7A6FB0746002F31D1401E30602068E8
:104E400001280FD1207C6168FEF7DEFA4CF2503069
:104E5000FEF796FB07461648006820F00400144948
:104E600008601AE0A56812E0217C2846FEF762FA85
:104E70004CF25030FEF784FB07460D48006820F0E6
:104E8000FA000B4908600FB1356005E06D1CD4E9EC
:104E900002100844A842E7D800BFFEF779FA00BF25
:104EA00000200249087600BF3846B9E7D443002005
:104EB000103C02400348006840F00040014908608F
:104EC00000207047103C02402DE9F04106460F4695
:104ED00014461D464FF0010800BF1F48007E012800
:104EE00002D10220BDE8F08101201B49087600BFF5
:104EF0004CF25030FEF744FB8046B8F1000F23D14E
:104F000026B9E1B23846FEF797FA12E0012E04D135
:104F1000A1B23846FEF7C0FA0BE0022E04D12146BA
:104F20003846FEF7CDFA04E022462B463846FEF717
:104F300095FA4CF25030FEF723FB80460748006894
:104F400020F001000549086000BF002002490876F2
:104F500000BF4046C6E70000D4430020103C02409A
:104F600000200949096801F0004159B10749064A82
:104F70000C3A1160064911600349096801F00041CB
:104F800001B1012070470000103C02402301674539
:104F9000AB89EFCD10B50446102C11D11F48007815
:104FA00040F001001D4908701D48007840F00100E4
:104FB0001B4908701B48007870B310F0A7F82BE06D
:104FC000202C0BD11848007840F0010016490870D9
:104FD0001448007800B310F099F81DE0082C06D1B1
:104FE0001248007840F001001049087014E0012CCC
:104FF00012D113F0EBFB01280ED00D490D480068CB
:1050000012F098FD0A48006830B120070A4908608C
:10501000BFF34F8FBFF36F8F10BD0000120700204A
:105020001307002015070020110700201407002097
:1050300088070020EC06002004ED00E010B50446CF
:1050400004480068204020B1024804602046FFF771
:10505000A1FF10BD143C0140F8B502460B460025E7
:10506000002400200021DCE0012606FA01F51E687C
:1050700006EA0504AC4273D15E68012E08D05E6872
:10508000022E05D05E68112E02D05E68122E13D15A
:1050900090684F000326BE40B0434F00DE68BE401C
:1050A00030439060506801268E40B0431E79C6F3AD
:1050B00000168E4030435060D0684F000326BE403B
:1050C000B0434F009E68BE403043D0605E68022E01
:1050D00002D05E68122E13D1CF0802F1200656F8D6
:1050E00027004E07F70E0F26BE40B0434F07FF0EB6
:1050F0001E69BE403043CF0802F1200646F8270063
:1051000010684F000326BE40B0431E7906F0030628
:105110004F00BE40304310605E6806F08056B6F126
:10512000805F7DD100BF00260096404E366846F471
:1051300080463E4F3E603E46366806F48046009606
:1051400000BF00BF3A4E8F0856F827008E07370F72
:105150000F26BE40B043374EB24202D1002624E0B3
:105160005EE0354EB24201D101261EE0334EB2421E
:1051700001D1022619E0324EB24201D1032614E0D9
:10518000304EB24201D104260FE02F4EB24201D17F
:1051900005260AE02D4EB24201D1062605E02C4E2E
:1051A000B24201D1072600E008268F073F0FBE401C
:1051B00030431F4E8F0846F82700264E3068A04324
:1051C0005E6806F48036B6F5803F00D12043214E5C
:1051D0003060361D3068A0435E6806F40036B6F5D0
:1051E000003F00D120431B4E361D3060361D306815
:1051F000A0435E6806F48016B6F5801F00D12043F8
:10520000144E08363060361D3068A0435E6806F4E0
:105210000016B6F5001F00D120430E4E0C3630604C
:10522000491C1029FFF420AFF8BD000044380240AB
:10523000083801400000024000040240000802401B
:10524000000C02400010024000140240001802400E
:10525000001C0240003C0140024613690B400BB1A8
:10526000012000E0002070470AB1816101E00B04D9
:10527000836170470148006870470000D80700202C
:1052800070B504460CB9012070BD94F83D0028B9F2
:10529000002084F83C00204600F006FB242084F81F
:1052A0003D002068006820F0010021680860206847
:1052B000006840F40040216808602068006820F41D
:1052C00000402168086001F047FB05465C496068C2
:1052D000884206D85B48854201D2012007E00020C1
:1052E00005E05948854201D2012000E00020012854
:1052F00000D1C9E75548B5FBF0F62068406820F0BA
:105300003F003043216848604D496068884201D8B9
:10531000701C07E04FF4967070434FF47A71B0FB45
:10532000F1F0401C2168096A21F03F01084321681F
:10533000086243496068884214D8681E6168490061
:10534000B0FBF1F0401CC0F30B00042801D2042094
:105350003DE0681E61684900B0FBF1F0401CC0F3FD
:105360000B0034E0A06838B9681E616801EB4101A8
:10537000B0FBF1F0401C0AE0681E616801EBC1025D
:1053800002EB0111B0FBF1F0401C40F48040C0F38F
:105390000B0008B901201AE0A06848B9681E6168CE
:1053A00001EB4101B0FBF1F0401CC0F30B000CE03D
:1053B000681E616801EBC10202EB0111B0FBF1F064
:1053C000401CC0F30B0040F4804040F400402168D2
:1053D000C9694CF6FF72914308432168C861D4E95A
:1053E000070108432168096821F0C00108432168CA
:1053F0000860D4E9031008432168896848F2FF3245
:105400009143084321688860D4E905010843216875
:10541000C96821F0FF0108432168C860206800685E
:1054200040F001002168086000202064202084F8FA
:105430003D000020206384F83E0000BF24E7000008
:10544000A086010080841E0000093D0040420F003C
:105450002DE9FC5F04460F4690469946DDE90CAB0A
:105460000E9EFFF707FF054694F83D00202870D1F7
:1054700019230122B0492046009503F0CDF810B160
:105480000220BDE8FC9F00BF94F83C00012801D138
:105490000220F6E7012084F83C0000BF2068006885
:1054A00000F0010028B92068006840F00100216880
:1054B00008602068006820F40060216808602220ED
:1054C00084F83D00402084F83E0000202064C4F8A9
:1054D00024A0A4F82AB0608D20859848E0624B464D
:1054E000424639462046CDE9006502F047FF08B143
:1054F0000120C6E7208D88B900BF002001902068F8
:105500004069019020688069019000BF00BF206859
:10551000006840F400702168086040E0208D012898
:1055200018D12068006820F480602168086000BFFE
:1055300000200190206840690190206880690190F6
:1055400000BF00BF2068006840F400702168086058
:1055500025E0EFE0208D022816D12068006820F4B5
:105560008060216808602068006840F4006021685D
:10557000086000BF00200190206840690190206809
:105580008069019000BF0AE000BF00200190206800
:105590004069019020688069019000BF00BFBAE0B7
:1055A000208D03287ED8208D012815D12A4631462A
:1055B000204603F0D6F808B1012062E720680069B0
:1055C000616A0870606A401C6062208D401E208500
:1055D000608D401E60859EE0208D02282AD13346D2
:1055E000002257492046009503F016F808B1012023
:1055F00047E72068006840F4007021680860206870
:105600000069616A0870606A401C6062208D401EFB
:105610002085608D401E608520680069616A087081
:10562000606A401C6062208D401E2085608D401E97
:10563000608570E03346002241492046009502F023
:10564000EBFF08B101201CE72068006820F48060AF
:105650002168086020680069616A0870606A401CFF
:105660006062208D401E2085608D401E608533461F
:10567000002233492046009502F0CEFF08B10120F8
:10568000FFE62068006840F4007021680860206828
:105690000069616A0870606A401C6062208D401E6B
:1056A000208500E010E0608D401E60852068006964
:1056B000616A0870606A401C6062208D401E20850F
:1056C000608D401E608526E02A463146204603F064
:1056D00048F808B10120D4E620680069616A0870C2
:1056E000606A401C6062208D401E2085608D401ED7
:1056F000608520684069C0F3800060B1206800695F
:10570000616A0870606A401C6062208D401E2085BE
:10571000608D401E6085208D00287FF441AF2020E1
:1057200084F83D00002084F83E0000BF84F83C006F
:1057300000BFA6E60220A4E6020010000000FFFF62
:10574000040001002DE9FC5F04460F46904699468F
:10575000DDE90CAB0E9EFFF78DFD054694F83D008C
:1057600020287DD1192301224D492046009502F0C1
:1057700053FF10B10220BDE8FC9F00BF94F83C002D
:10578000012801D10220F6E7012084F83C0000BF87
:105790002068006800F0010028B92068006840F027
:1057A0000100216808602068006820F4006021681A
:1057B0000860212084F83D00402084F83E0000204D
:1057C0002064C4F824A0A4F82AB0608D2085354850
:1057D000E0624B46424639462046CDE9006502F07C
:1057E0007DFE08B10120C6E731E02A463146204659
:1057F00002F0F7FF50B1206C042805D12068006842
:1058000040F40070216808600120B4E7606A007805
:1058100021680861606A401C6062208D401E2085FE
:10582000608D401E608520684069C0F3800070B1C3
:10583000208D60B1606A007821680861606A401C50
:105840006062208D401E2085608D401E6085208D09
:105850000028CAD12A463146204602F0AFFE00E0B9
:105860001CE050B1206C042805D12068006840F489
:1058700000702168086001207DE72068006840F41E
:10588000007021680860202084F83D00002084F822
:105890003E0000BF84F83C0000BF6CE702206AE7CE
:1058A000020010000000FFFF10B586B0044614216E
:1058B00001A8FBF794FB2A49206888424DD100BF1C
:1058C000002000902748006840F004002549086047
:1058D0000846006800F00400009000BF00BF00BF51
:1058E000002000900846006840F00100086008466B
:1058F000006800F00100009000BF00BF4815019053
:1059000012200290012003900320049004200590AF
:1059100001A91548FFF7A0FB4FF4807001901220F9
:10592000029001200390032004900420059001A917
:105930000E48FFF791FB00BF00200090094810308F
:10594000006840F40000074910310860084600680C
:1059500000F40000009000BF00BF06B010BD0000C2
:10596000005C004030380240000802400000024065
:1059700003480068034909780844014908607047F2
:10598000D8070020E007002010B50D48006840F45B
:1059900000700B4908600846006840F480600860A9
:1059A0000846006840F480700860032000F0C8F8E2
:1059B000002000F007F800F04BF8002010BD0000B8
:1059C000003C024070B588B0044600250026002245
:1059D0002146362000F076F8362000F063F800BF4C
:1059E000002001901648006840F01000144908603B
:1059F0000846006800F01000019000BF00BF02A937
:105A000003A800F081FF00F0A7FF45000D48B5FB9B
:105A1000F0F0461E0C480D49086040F2E7310B4893
:105A2000C160466000210161816001F0F9FD20B98B
:105A3000064801F0A6FE08B070BD0120FBE700009B
:105A40004038024040420F0000100040A8410020B2
:105A500008B500BF002000901148006840F4804065
:105A60000F4908600846006800F48040009000BFBD
:105A700000BF00BF00200090081F006840F0805069
:105A8000091F08600846006800F08050009000BFC1
:105A900000BF00220F21901E00F014F808BD000086
:105AA0004438024001460846002809DB00F01F0385
:105AB00001229A4043099B0003F1E023C3F800212F
:105AC00000BF70472DE9F05F80460D46164600275F
:105AD0000CF04EFE074639462A46334601F00700D1
