:020000040800F2
:1000000018D500203103000839880008C5660008AB
:1000100035880008490D000821EF000800000000A5
:100020000000000000000000000000007102000855
:10003000E11F000800000000CD020008F1BE00082A
:100040004B0300084B0300084B0300084B03000858
:100050004B0300084B030008E31F00084B03000894
:100060004B030008ED1F0008F71F00084B030008B2
:10007000811300084B0300084B0300084B030008E2
:100080004B0300084B0300084B0300084B03000818
:10009000CD0F00084B0300084B03000801200008A7
:1000A0004B0300084B0300084B0300084B030008F8
:1000B0004B0300083DC000084B0300084B03000839
:1000C0004B0300084B0300084B0300084B030008D8
:1000D0004B03000879C900084B03000889C90008D0
:1000E0004B0300084B0300084B0300084B030008B8
:1000F0004B0300084B0300084B0300084B030008A8
:100100004B0300084B0300084B0300084B03000897
:100110004B0300084B0300084DC000084B030008C8
:100120004B03000891130008A11300084B030008BB
:100130004B0300084B0300084B0300084B03000867
:10014000451000084B0300084B030008C98A00084B
:10015000391C00084B030008491C0008ADC9000801
:100160004B0300084B0300084B0300084B03000837
:100170004B0300084B0300084B030008000000007D
:100180004B0300084B03000800F002F800F060F891
:100190000AA090E8000C82448344AAF10107DA45E2
:1001A00001D100F055F8AFF2090EBAE80F0013F0D4
:1001B000010F18BFFB1A43F001031847A8460100BE
:1001C000C84601000A444FF0000C10F8013B13F040
:1001D000070408BF10F8014B1D1108BF10F8015BA0
:1001E000641E05D010F8016B641E01F8016BF9D193
:1001F00013F0080F1EBF10F8014BAD1C0C1B09D1EA
:100200006D1E58BF01F801CBFAD505E014F8016B5B
:1002100001F8016B6D1EF9D59142D6D370470000ED
:100220000023002400250026103A28BF78C1FBD8FF
:10023000520728BF30C148BF0B6070471FB514F08C
:10024000A8F99DE8030000F045FA1FBD10B510BDE8
:1002500000F0CEFA1146FFF7F1FF10F0F5FD00F0C7
:10026000ECFA03B4FFF7F2FF03BC00F01DFB000043
:100270002C4B19680868B0E8F04F80F30988BFF389
:100280006F8F4FF0000080F311887047000000006E
:1002900008480068006880F308884FF0000080F389
:1002A000148862B661B6BFF34F8FBFF36F8F00DF64
:1002B00000BF00BF08ED00E0DFF80C00016841F46A
:1002C00070010160704700BF88ED00E0EFF3098026
:1002D000BFF36F8F134B1A681EF0100F08BF20ED8D
:1002E000108A20E9F04F106009B44FF0500080F3FD
:1002F0001188BFF34F8FBFF36F8F12F099FB4FF050
:10030000000080F3118809BC19680868B0E8F04F54
:100310001EF0100F08BFB0EC108A80F30988BFF3FD
:100320006F8F704714040020EFF3058070470000C2
:100330000948804709480047FEE7FEE7FEE7FEE779
:10034000FEE7FEE7FEE7FEE7FEE7FEE704480549B5
:10035000054A064B70470000D9BF00088901000814
:100360001895002018D5002018B5002018B50020D9
:1003700070B5064600F092F9056806F10B0020F012
:100380000704B4429CBF002070BD2B466A68BAB116
:100390001068A04210D304F1080188423CBF5068A5
:1003A000586007D35168101941601168091B01603A
:1003B00058601460101D70BD13465268002AE7D1C2
:1003C0002146284600F072F90028DED170BD70B5D4
:1003D0000446051F00F062F90068002C14BF446851
:1003E00070BD002C18BFAC423CBF20466468F8D3F7
:1003F00001680A18AA4218BF456003D12A68054659
:100400001144016028684119A1421CBF6C6070BD95
:100410006168696021680844286070BD53EA020C75
:1004200000F069802DE9F04B4FF00006002B1FBF54
:10043000B3FA83F503FA05F424FA05F65E4012BF19
:100440001643B2FA82F502FA05F4C5F120051EBF83
:1004500022FA05FC44EA0C04203556EA044C4FEA23
:10046000144418BF641C4FF000084FF0000990427C
:1004700071EB030C39D3002919BFB1FA81F701FAE6
:1004800007F6B0FA80F700FA07F6C7F120071EBF9B
:1004900020FA07FC46EA0C062037B6FBF4FCA7EB73
:1004A0000507103F07F01F0BCBF120060CFA0BFBE2
:1004B0002CFA06F644BFB3460026202FA4BF5E46A2
:1004C0004FF0000B5BEA060C08BF4FF0010B19EB75
:1004D0000B09ABFB027C48EB0608C01B06FB02CCF9
:1004E0000BFB03CC71EB0C01C1E70B460246414606
:1004F0004846BDE8F08B13B54FF000004FF0000107
:10050000AFF30080BDE81C40704710B5431C02E00B
:1005100010F8011B71B18107FAD14FF0013202C806
:100520008C1A8C4314EAC211F9D0C01A0A0603D0FF
:10053000C01E10BDC01A10BD0A0401D0801E10BD1F
:100540000902FCD0401E10BD032A40F2308010F09A
:10055000030C00F0158011F8013BBCF1020F62445E
:1005600098BF11F801CB00F8013B38BF11F8013BEF
:10057000A2F1040298BF00F801CB38BF00F8013B9C
:1005800011F0030300F02580083AC0F0088051F80C
:10059000043B083A51F804CBA0E80810F5E7121D17
:1005A0005CBF51F8043B40F8043BAFF30080D20736
:1005B00024BF11F8013B11F801CB48BF11F8012B02
:1005C00024BF00F8013B00F801CB48BF00F8012B25
:1005D000704710B5203AC0F00B80B1E81850203AAF
:1005E000A0E81850B1E81850A0E81850BFF4F5AFD3
:1005F0005FEA027C24BFB1E81850A0E8185044BF5D
:1006000018C918C0BDE810405FEA827C24BF51F8C9
:10061000043B40F8043B08BF7047D20728BF31F8BD
:10062000023B48BF11F8012B28BF20F8023B48BF0E
:1006300000F8012B704702F0FF0343EA032242EA6D
:10064000024200F08AB84FF0000200B5134694460B
:100650009646203922BFA0E80C50A0E80C50B1F11A
:100660002001BFF4F7AF090728BFA0E80C5048BF2E
:100670000CC05DF804EB890028BF40F8042B08BFCC
:10068000704748BF20F8022B11F0804F18BF00F8C8
:10069000012B704770477047704700000048704753
:1006A000C0940020704770477047704738B50446C3
:1006B0000A4600206946AFF30080002808BF38BD15
:1006C00002460099204600F071F8012038BD012053
:1006D00000F086B8F8B5AFF30080054600200C4660
:1006E000102000BF0646A819A0420DD9324669461F
:1006F0000020AFF30080070008BF00F071F80098F9
:10070000A04218BF0546C419FFF7C8FF0560074699
:10071000F01D20F007004619284600F00AF8B44200
:1007200008BFF8BDA21B31463868BDE8F84000F0AC
:100730003DB800210160C0E90110704710207047EA
:1007400010B500F02FF8006810BD10B5044600F099
:1007500029F8046010BD4FF000020429C0F0128097
:1007600010F0030C3FF471AFCCF1040CBCF1020F9C
:1007700018BF00F8012BA8BF20F8022BA1EB0C0139
:10078000FFF763BF5FEAC17C24BF00F8012B00F8CC
:10079000012B48BF00F8012B70470000004870474C
:1007A000B894002000487047B89400200346406881
:1007B0008C46002818BF88423CBF03464068F8D3E7
:1007C00018681844884207D00CF1030020F0070095
:1007D000001D411A521A0146081D0A60FFF7F7BDB5
:1007E00010B500F039F8BDE8104000F02FB87047A0
:1007F0007546FFF7D3FFAE4605006946534620F025
:100800000700854618B020B5FFF7A0FDBDE82040E1
:100810004FF000064FF000074FF000084FF0000BBC
:1008200021F00701AC46ACE8C009ACE8C009ACE86F
:10083000C009ACE8C0098D46704710B50446AFF357
:1008400000802046BDE81040FFF70BBD002801D016
:1008500000F02AB87047000010B5012805D000212B
:1008600003A000F027F8012010BD09A1F8E700005F
:1008700053494752544D454D3A204F7574206F6689
:100880002068656170206D656D6F727900000000F1
:100890003A2048656170206D656D6F727920636FD5
:1008A000727275707465640001491820ABBEFEE772
:1008B0002600020070B505460C460A2000E06D1CBB
:1008C00000F011F835B128780028F8D102E0641C56
:1008D00000F009F814B120780028F8D1BDE8704084
:1008E0000A20AFF3008008B569468DF800000320A8
:1008F000ABBE08BDB7EE000A80ED000A9FED060A08
:1009000080ED010A9FED040A80ED020A9FED020AC4
:1009100080ED030A70470000000000002DE9F0415F
:100920002DED028B0746B0EE408A0C4615461E465A
:10093000D6ED024AB0EE644AD6ED014AF0EE643AD2
:10094000D6ED004AB0EE643AD5ED024AF0EE642AE4
:10095000D5ED014AB0EE642AD5ED004AF0EE641AF6
:10096000D4ED024AB0EE641AD4ED014AF0EE640A06
:10097000D4ED004AB0EE640A384607F007FBBDEC40
:10098000028BBDE8F081000010B501221021024861
:1009900002F0D8FF10BD00000000024010B5002298
:1009A0001021024802F0CEFF10BD000000000240FE
:1009B0007047000010B501221146024802F0C2FF44
:1009C00010BD00000004024010B5002201210248C1
:1009D00002F0B8FF10BD00000004024010B54378DB
:1009E0001B021BB20478234300EE103AB8EEC01A83
:1009F0001C4BD3ED001A21EE211A81ED001AC378A9
:100A00001B021BB28478234300EE103AB8EEC01AE2
:100A1000144BD3ED001A21EE211A81ED011A43790E
:100A20001B021BB20479234300EE103AB8EEC01A41
:100A30000C4BD3ED001A21EE211A81ED021A037A34
:100A40001B04C47943EA04238479234300EE903ADB
:100A5000B8EE601ADFED041A21EE211A82ED001AB9
:100A600010BD0000B402002000401C42704710B5C9
:100A70000446204610F021FA10BD10B50446204669
:100A80000FF00EFC10BD00004278120212B2037883
:100A90001A4300EE102AF8EEC00A144A92ED001A2A
:100AA00060EE810AC1ED000AC278120212B28378A8
:100AB0001A4300EE102AF8EEC00A0C4A92ED001A12
:100AC00060EE810AC1ED010A4279120212B2037985
:100AD0001A4300EE102AF8EEC00A044A92ED001AFA
:100AE00060EE810AC1ED020A70470000B8020020E2
:100AF00010B50024FFF75CFFFFF7B8FF0EF0F2FE21
:100B000010B144F0800402E00EF052FE04430FF0F6
:100B1000E1F810B144F0400402E00FF061F8044342
:100B2000204610BD2DE9FC4105460E461746002023
:100B300000900190FFF732FF922000F0D1F80622DA
:100B40006946122000F0ACF8FFF71EFF9DF8010087
:100B5000000200B29DF8001040EA010400EE104AC5
:100B6000B8EEC00A4C48D0ED000A20EE200A86ED0F
:100B7000000A9DF80300000200B29DF8021040EA4E
:100B8000010400EE104AB8EEC00A4348D0ED000A56
:100B900020EE200A86ED010A9DF80500000200B251
:100BA0009DF8041040EA010400EE104AB8EEC00AB5
:100BB0003948D0ED000A20EE200A86ED020AFFF740
:100BC00003FF08226946002000F06AF8FFF7F2FEF2
:100BD0009DF800000F2838D19DF80300000200B2F4
:100BE0009DF8021040EA010400EE104AB8EEC00A77
:100BF0002A48D0ED000A20EE200A85ED000A9DF873
:100C00000500000200B29DF8041040EA010400EE65
:100C1000104AB8EEC00A2148D0ED000A20EE200AA2
:100C200085ED010A9DF80700000200B29DF806104C
:100C300040EA010400EE104AB8EEC00A1748D0EDB1
:100C4000000A20EE200A85ED020AFFF7A7FEA22087
:100C500000F046F802226946222000F021F8FFF752
:100C600093FE9DF80000C0009DF8011040EA611459
:100C7000B4F5806F02DBA4F5006004B200EE104A08
:100C8000F8EEC00AB4EE001AB3EE070A00EE810ACD
:100C900087ED000ABDE8FC81B4020020B802002004
:100CA00070B506460C46154646F0800000F018F870
:100CB00006E0552000F014F82070641C681EC5B2D0
:100CC000002DF6D170BD70B504460D4644F080008D
:100CD00000F006F8552000F003F8287070BD000001
:100CE00001B582B04FF47A70012301AA02A90090E5
:100CF000024804F04DFD9DF804000EBDD412002002
:100D000010B502461378DB00547843EA6410B0F55E
:100D1000806F02DBA0F5006318B200EE100AF8EE57
:100D2000C00AB4EE001AB3EE070A00EE810A81EDA4
:100D3000000A10BD70B505460C462846FFF7D0FFE7
:100D40002046FFF7CDFF70BD00BFFEE710B50821BC
:100D5000054805F0C7F9002004490870488008726A
:100D60008880C88010BD00002C140020AC3000200A
:100D70004748007820B1012809D0022848D13FE037
:100D800000204349488088800872C88079E0404844
:100D90008088401C3E4988800846C088012801D1CF
:100DA000002008703A4989884FF4967291FBF2F05E
:100DB00000EBD0714910A0EB410139B93449097AEF
:100DC00021B987203249488001200872304989883A
:100DD0004FF4967291FBF2F000EBD0714910A0EB4A
:100DE000410101290BD12A49097A012907D10020A3
:100DF0002749488008720846C088401CC88040E0E7
:100E0000052023494880002088800872C88038E087
:100E10001F488088401C1E4988800846C0880328D7
:100E200001D1002008701A4989884FF4967291FB0D
:100E3000F2F000EBD0714910A0EB410139B914492F
:100E4000097A21B987201249488001200872104987
:100E500089884FF4967291FBF2F000EBD071491043
:100E6000A0EB410101290BD10949097A012907D1D8
:100E700000200749488008720846C088401CC88086
:100E800000BF00BF0248408802490968C863704734
:100E9000AC3000202C14002010B500F00FF80648EC
:100EA00002F0AFF804480068406940F002000249CF
:100EB0000968486110BD00003012002000B58BB0F9
:100EC00000200A90069007900120089000200190D1
:100ED00002900390049005900120099001A9024816
:100EE00001F056FC0BB000BD301200208EB000BFE8
:100EF0004FF0FF3205A93448006812F0CFF80446DD
:100F0000012CF5D10598B0F5017F08D1142209A96B
:100F10006846FFF75EFB05A80FC806F0A7FA40F287
:100F200003210598884208D1142209A96846FFF7D1
:100F300050FB05A80FC806F099FA40F20221059867
:100F4000884208D1142209A96846FFF742FB05A888
:100F50000FC806F0EDF940F205210598884208D146
:100F6000142209A96846FFF734FB05A80FC801F051
:100F700097FA40F206210598884208D1142209A95F
:100F80006846FFF726FB05A80FC801F0BFF940F23D
:100F900007210598884208D1142209A96846FFF75D
:100FA00018FB05A80FC801F07BFA0598B0F5027F81
:100FB0009ED1142209A96846FFF70BFB05A80FC8AC
:100FC00001F0A4F994E700002802002010B50448BD
:100FD0000068401C02490860024801F029FD10BD6C
:100FE0007C0100203012002010B500F011F80748F5
:100FF00002F007F808B100BFFEE704480068406946
:1010000040F0020001490968486110BD58120020F3
:1010100000B58BB00E200A900690002007900120AA
:101020000890002001900290039004900590012008
:10103000099001A9024801F0ABFB0BB000BD000014
:101040005812002010B504480068401C024908608E
:10105000024801F0EDFC10BD840100205812002070
:101060002DE9F84381460E4615461F4600201549D6
:10107000C86008468660806810B90846056005E0CB
:1010800010488068042801D10E48456008200D49A9
:101090000861002008750846D0F81080002405E09B
:1010A000395D084818300155601CC4B24445F7D377
:1010B0006B46044A18320349484601F0BDFABDE8C0
:1010C000F88300008C3000200346042B15D007DC89
:1010D0007BB1012B0ED0022B0DD0032B12D10BE0D4
:1010E000202B0BD0212B0AD0222B09D0232B09D166
:1010F00007E008E007E006E005E004E003E002E0C6
:1011000001E000E000BF00BF0020704700207047F2
:1011100010B50022044905480BF0EEFD04490348D0
:101120000BF0E3FD002010BD042800202C17002048
:101130000420002070B504460D46214603480BF0FC
:10114000D4FD02480BF0ACFD002070BD2C17002030
:1011500010B503460C460021084610BD8EB0002491
:1011600000BF4FF0FF3205A96B48006811F096FFF1
:101170000546012DF5D169480068401C67490860A3
:101180000598962808D1142209A96846FFF721FA84
:1011900005A80FC805F01AFD0598B0F59B7F0DD185
:1011A000002404E00CA8005D5D490855641C082C6F
:1011B000F8DB5C480068401C5A49086040F237116F
:1011C0000598884207D19DF83000574908700846B5
:1011D0004078401C48700598B0F59C7F0DD10024E4
:1011E00004E00CA8005D51490855641C082CF8DB8C
:1011F0004F480068401C4E49086040F2391105987C
:1012000088420FD1002406E00CA8015D474A04F192
:1012100008001154641C082CF6DB46480068401C8A
:10122000444908600598B0F5A07F0FD1002406E07E
:101230000CA8015D3D4A04F110001154641C082CF7
:10124000F6DB3D480068401C3B49086040F2411114
:101250000598884214D1002406E00CA8015D334AA9
:1012600004F118001154641C082CF6DB33480068A4
:10127000401C3249086032480068401C3049086010
:1012800040F23511059888420DD1002404E00CA8E5
:10129000005D2C490855641C082CF8DB2A480068BE
:1012A000401C294908600598B0F59A7F0FD10024A9
:1012B00006E00CA8015D234A04F108001154641CE7
:1012C000082CF6DB21480068401C2049086040F2E9
:1012D00033110598884212D1002406E00CA8015D64
:1012E000184A04F110001154641C082CF6DB18484D
:1012F0000068401C1649086001201649087015480E
:10130000007801287FF42DAF1348C1690D48884744
:1013100000201049087024E72C02002080010020E2
:10132000500000209C01002058000020180A0020D6
:10133000A4010020A8010020AC010020B001002081
:10134000B4010020340A0020B8010020BC010020B4
:10135000C0010020C80100206400002010B5024632
:10136000002004E012F8013B4340044CE05C0B1EFB
:10137000A1F10104A1B2F5D110BD0000A6450108FC
:1013800010B5024801F088FE10BD00006C16002068
:1013900010B5024801F080FE10BD0000CC16002000
:1013A00010B5FE48C06C0068FD49884276D9FC48FB
:1013B00054380068F949C96C0968FA4A914201D168
:1013C000202169E0F549C96C0968F54A483A91421B
:1013D00001D1202160E0F149C96C0968F14A60320D
:1013E000914201D1202157E0EC49C96C0968EC4ACF
:1013F0001832914201D120214EE0E849C96C0968B8
:10140000E84A1832914201D1C91445E0E349C96C58
:101410000968E34A303A914201D1C9143CE0DF49FE
:10142000C96C0968DF4A7832914201D1C91433E0AE
:10143000DA49C96C0968DA4A3032914201D1C914DB
:101440002AE0D649C96C0968D64A3032914202D1A5
:101450004FF4001120E0D149C96C0968D04A183A0C
:10146000914202D14FF4001116E0CC49C96C0968D1
:10147000CC4A9032914202D14FF400110CE0C7499E
:10148000C96C0968C64A4832914203D14FF4001131
:1014900002E003E04FF00061084070E1BF48C06C1B
:1014A0000068C049A831884276D9BD4858380068DC
:1014B000BA49C96C0968BB4A914201D1202169E04F
:1014C000B649C96C0968B64A483A914201D120210F
:1014D00060E0B249C96C0968B24A6032914201D1F8
:1014E000202157E0AD49C96C0968AD4A18329142D4
:1014F00001D120214EE0A949C96C0968A94A1832D6
:10150000914201D1C91445E0A449C96C0968A44AB3
:10151000303A914201D1C9143CE0A049C96C096834
:10152000A04A7832914201D1C91433E09B49C96C79
:1015300009689B4A3032914201D1C9142AE0974987
:10154000C96C0968974A3032914202D14FF40011B8
:1015500020E09249C96C0968914A183A914202D137
:101560004FF4001116E08D49C96C09688D4A90321C
:10157000914202D14FF400110CE08849C96C09680E
:10158000874A4832914203D14FF4001102E003E050
:101590004FF000610840F2E08048C06C006881496B
:1015A0004831884276D97F48103840687B49C96CF9
:1015B00009687C4A914201D1202169E07749C96CD0
:1015C0000968774A483A914201D1202160E0734985
:1015D000C96C0968734A6032914201D1202157E0F9
:1015E0006E49C96C09686E4A1832914201D12021B6
:1015F0004EE06A49C96C09686A4A1832914201D1C1
:10160000C91445E06549C96C0968654A303A914298
:1016100001D1C9143CE06149C96C0968614A78325A
:10162000914201D1C91433E05C49C96C09685C4A34
:101630003032914201D1C9142AE05849C96C096875
:10164000584A3032914202D14FF4001120E0534900
:10165000C96C0968524A183A914202D14FF40011FC
:1016600016E04E49C96C09684E4A9032914202D147
:101670004FF400110CE04949C96C0968484A4832E6
:10168000914203D14FF4001102E003E04FF00061FA
:10169000084074E04348103800684049C96C096844
:1016A000404A914201D1202168E03C49C96C096857
:1016B0003B4A483A914201D120215FE03749C96C49
:1016C0000968384A6032914201D1202156E03349FD
:1016D000C96C0968324A1832914201D120214DE08B
:1016E0002E49C96C09682F4A1832914201D1C91498
:1016F00044E02A49C96C0968294A303A914201D12B
:10170000C9143BE02549C96C0968264A78329142E0
:1017100001D1C91432E02149C96C0968204A30322C
:10172000914201D1C91429E01C49C96C09681D4ABC
:101730003032914202D14FF400111FE01749C96CB9
:101740000968174A183A914202D14FF4001115E086
:101750001249C96C0968134A9032914202D14FF480
:1017600000110BE00D49C96C09680D4A48329142DD
:1017700002D14FF4001101E04FF000610840002851
:101780006FD00648C06C0068054988427BD9034881
:10179000C06C00680349884208D105E0D4120020DB
:1017A0005864024010600240202068E0FE48C06C8F
:1017B0000068FE49884201D1202060E0FA48C06CF0
:1017C0000068FB49884201D1202058E0F648C06CEF
:1017D0000068F6496031884201D120204FE0F2488C
:1017E000C06C0068F2494839884201D1C01446E013
:1017F000ED48C06C0068ED491831884201D1C01431
:101800003DE0E948C06C0068E9491831884201D1DF
:10181000C01434E0E448C06C0068E4497831884280
:1018200001D1C0142BE0E048C06C0068E0493039B9
:10183000884202D14FF4001021E0DB48C06C006800
:10184000DA493031884202D14FF4001017E0D6480F
:10185000C06C0068D6493031884204D14FF4001082
:101860000DE0DFE10FE0D048C06C0068CF49903157
:10187000884202D14FF4001001E04FF00060CB49E4
:10188000091F08606AE1C848C06C0068C84948314F
:10189000884274D9C448C06C0068C5496039884220
:1018A00001D1202066E0C048C06C0068BF49884272
:1018B00001D120205EE0BC48C06C0068BC49884271
:1018C00001D1202056E0B848C06C0068B7496031AB
:1018D000884201D120204DE0B348C06C0068B44973
:1018E0004839884201D1C01444E0AF48C06C006858
:1018F000AE491831884201D1C0143BE0AA48C06CFF
:101900000068AB491831884201D1C01432E0A648C2
:10191000C06C0068A5497831884201D1C01429E023
:10192000A148C06C0068A2493039884202D14FF406
:1019300000101FE09C48C06C00689C493031884210
:1019400002D14FF4001015E09748C06C0068984928
:101950003031884202D14FF400100BE09248C06C45
:10196000006892499031884202D14FF4001001E0A2
:101970004FF000608D4908390860EFE0FFE78A48C2
:10198000C06C00688A491839884274D98648C06C8E
:10199000006887496039884201D1202066E082488A
:1019A000C06C00688149884201D120205EE07E48F9
:1019B000C06C00687E49884201D1202056E07A48F8
:1019C000C06C006879496031884201D120204DE027
:1019D0007548C06C006876494839884201D1C01406
:1019E00044E07148C06C006870491831884201D1E8
:1019F000C0143BE06C48C06C00686D4918318842E7
:101A000001D1C01432E06848C06C00686749783181
:101A1000884201D1C01429E06348C06C0068644961
:101A20003039884202D14FF400101FE05E48C06C8C
:101A300000685E493031884202D14FF4001015E051
:101A40005948C06C00685A493031884202D14FF47D
:101A500000100BE05448C06C006854499031884233
:101A600002D14FF4001001E04FF00060504970398E
:101A7000C86073E0FFE74C48C06C00684C496039AF
:101A8000884201D1202066E04748C06C0068474981
:101A9000884201D120205EE04348C06C0068444980
:101AA000884201D1202056E03F48C06C00683F4981
:101AB0006031884201D120204DE03B48C06C006875
:101AC0003B494839884201D1C01444E03648C06CD3
:101AD000006836491831884201D1C0143BE03248D1
:101AE000C06C006832491831884201D1C01432E01C
:101AF0002D48C06C00682D497831884201D1C0144E
:101B000029E02948C06C006829493039884202D14F
:101B10004FF400101FE02448C06C006823493031A6
:101B2000884202D14FF4001015E01F48C06C0068D5
:101B30001F493031884202D14FF400100BE01A489F
:101B4000C06C006819499031884202D14FF40010EE
:101B500001E04FF000601649703988601548007840
:101B600000F0020078B11348007820F0020011491B
:101B700008700846007840F0040008700122114601
:101B80000D4801F0DFFE0D48007800F00200E0B1E2
:101B90000A48007820F002000849087008460078DA
:101BA00040F0040008700BE0D412002010640240E2
:101BB0007060024041030020000402404203002004
:101BC00001221021184801F0BDFE1848007800F0ED
:101BD000020078B11548007820F00200134908701F
:101BE0000846007840F004000870012210210E48D9
:101BF00001F0A8FE0EF092FE0D48007800F00400FF
:101C000080B10B48007820F00400094908700846AC
:101C1000007840F0080008700648006840F00100B5
:101C20000449086010BD000000000240430300208A
:101C300041030020103C014010B5024801F02CFA8D
:101C400010BD00000C16002010B5024801F024FA67
:101C500010BD0000AC15002001460878103818238C
:101C6000B0FBF3F20848805CC865032A05D9086810
:101C70006FF30900001D886503E008686FF3090031
:101C80008865886D70470000F7470108014600200D
:101C90008A6A8B69CBB932B1012A0DD0022A03D0EE
:101CA000032A10D10EE000BFCB6A03F08073B3F1BA
:101CB000807F00D1012007E0CB6AB3F1C07F00D163
:101CC000012001E000E000BF34E08B69B3F5005F64
:101CD0001AD132B1012A07D0022A03D0032A11D126
:101CE0000AE000BF01200EE0CB6A03F08073B3F17D
:101CF000807F00D1012006E0CB6AB3F1C07F00D124
:101D0000012000E000BF15E032B1012A05D0022A0F
:101D100004D0032A0CD103E000BF00BF012008E07B
:101D2000CB6A03F08073B3F1807F00D1012000E023
:101D300000BF00BF704730B50468246824F48024D5
:101D400005682C60046863608468402C04D10468D2
:101D5000A2600468E16003E00468A1600468E260D6
:101D600030BD000000B970470178427841EA022195
:101D7000C1F30A016B4A11804178C910827841EAA7
:101D80004211C1F30A01674A518081788911C278F2
:101D900041EA8201027941EA8221C1F30A01614AE2
:101DA000918001794910427941EAC211C1F30A01D7
:101DB0005C4AD18041790911890811724179C1F3D6
:101DC000011151728179C27941EA022109B2554A61
:101DD0009181017A427A41EA02210AB25149CA81CB
:101DE000817AC27A41EA02210AB24E490A82027B12
:101DF0008A74427BCA74817BC27B41EA0221494AD0
:101E00009182017C427C41EA0221C1F30A01454AE8
:101E100051811146C98A491CD18211460988A1F510
:101E2000806109B2118011464988A1F5806109B22B
:101E3000518011468988A1F5806109B291801146CF
:101E4000C988A1F5806109B2D18011464989A1F5FF
:101E5000806109B251811146B1F90010142907DCE3
:101E60001146B1F9001011F1140F01DB00211180AE
:101E70002C49B1F90210142908DC2A49B1F90210E1
:101E800011F1140F02DB0021264A51802549B1F9D6
:101E90000410142908DC2349B1F9041011F1140FBE
:101EA00002DB00211F4A91801E49B1F90610142956
:101EB00008DC1C49B1F9061011F1140F02DB0021F6
:101EC000184AD1801749B1F90A10142908DC1549BC
:101ED000B1F90A1011F1140F02DB0021114A5181EE
:101EE0001049B1F90010104A126811440E4A1160ED
:101EF0000C49B1F902100D4A126811440B4A1160E5
:101F00000849B1F904100A4A12681144084A1160DC
:101F10000449B1F90610074A12681144054A1160D4
:101F200000BF20E76400002088010020900100200D
:101F3000940100209801002038B50446206800680C
:101F400000F0100010282CD12068C06800F01000AC
:101F500038B300BF0020009020680068009020681F
:101F60004068009000BF00BF606B0068006820F010
:101F70000100616B09680860606B006840680428B4
:101F800003D10848C169084888471620616B096871
:101F90004860606B0068006840F00100616B096890
:101FA000086038BD64000020340A002000BF0A48E1
:101FB000407A02280CD00848407A48B10748C078D7
:101FC000552805D105480079C00908B906F036FC46
:101FD0000A200EF072FFEAE7640000204832002079
:101FE000704710B5012001F097FB10BD10B5082017
:101FF00001F092FB10BD10B5102001F08DFB10BD5B
:1020000010B5202001F088FB10BD704710B50022EC
:1020100001B909E0012901D10A0205E0022901D133
:102020000A0201E04FF440720E4B1B6823F4407328
:102030000C4C236023461B681343236023461B6814
:1020400023F0F803236023461B68022444EAC004FB
:102050002343044C236023461B6843F480332360EE
:1020600010BD0000103C02401C48006800F40070E5
:10207000B0B11A48006820F400701849086000BF29
:102080000846006840F4006008600846006820F4D4
:102090000060086000BF0846006840F400700860F7
:1020A0000E48006800F48060B0B10C48006820F46D
:1020B00080600A49086000BF0846006840F480500C
:1020C00008600846006820F48050086000BF084699
:1020D000006840F48060086070470000003C0240E7
:1020E0000A4A126822F44072084B1A601A461268B3
:1020F00042F004021A601A4612684FF4803343EA31
:1021000000231A43014B1A6070470000103C024044
:10211000074A126822F44072054B1A601A46126888
:102120001A601A46126842F001021A600170704784
:10213000103C024010B50D49096821F440710B4C68
:1021400021602146096841F44071216021460968F7
:1021500041F001012160026000BF00BF00BFBFF37A
:102160006F8F00BF00BF00BF436010BD103C024036
:10217000084A126822F44072064B1A601A46126826
:1021800042F480721A601A46126842F001021A6024
:1021900001807047103C0240084A126822F44072E5
:1021A000064B1A601A46126842F400721A601A4608
:1021B000126842F001021A6001607047103C024050
:1021C0002348006800F0100040B12248C06940F088
:1021D00010002049C86110201D4908601C48006893
:1021E00000F0200040B11B48C06940F008001949C8
:1021F000C8612020164908601548006800F04000BA
:1022000040B11448C06940F004001249C861402040
:102210000F4908600E48006800F0800040B10D488A
:10222000C06940F002000B49C8618020084908607D
:102230000748006800F0020040B10648C06940F05D
:1022400020000449C861022001490860704700006D
:102250000C3C02405832002070B504460025002096
:102260001449C86101F074FB054609E0601C38B1EF
:1022700024B101F06DFB401BA04201D9032070BDC9
:102280000D48006800F480300028EFD10A4800684B
:1022900000F0010010B101200749086006480068FD
:1022A00000F0F20018B1FFF78BFF0120E7E70020F4
:1022B000E5E70000583200200C3C024010B52DED3F
:1022C000068B0446204611F0EFFD41EC1A0B53EC4F
:1022D0001A2B9FED0A0B51EC100B11F019FC41EC7D
:1022E000190B9FED080B53EC102B11F02DFE41EC58
:1022F000180B11F095FDBDEC068B10BD0000000021
:102300000000F03F0000000000408F400FB4009933
:10231000A1F205209DF81D109DF81C2041EA022124
:1023200000EBC002484B23F822109DF81F209DF8B7
:102330001E1042EA012109B200EBC00203EB820247
:10234000518000EBC0011A4602EB8101B1F9021085
:1023500000EE101AB8EEC00A00EBC00102EB8101DA
:1023600081ED010A9DF821209DF8201042EA01210B
:1023700009B200EBC00203EB820211819DF822102A
:1023800000EBC00203EB8202917200EBC0011A461F
:1023900032F8211000EBC00203EB8202B2F91220E6
:1023A000891A11F5E15F0BDA00EBC0011A4602EB66
:1023B00081014969491C00EBC00203EB82025161B3
:1023C00000EBC001204A02EB8101B1F9121000EBD1
:1023D000C0021D4B33F82220891A11F5E15F0BDA98
:1023E00000EBC0011A4602EB81014969491E00EB6E
:1023F000C00203EB8202516100EBC001124A32F8C5
:10240000211000EBC002104B03EB820252694FF423
:10241000005303FB021100EE101AB8EEC00A00EBE5
:10242000C001094A02EB810181ED060A00EBC001FF
:1024300032F8211009B200EBC002034B03EB820219
:10244000518204B0704700009C0A00202DE9FC4135
:1024500007460C4615461E46380A8DF80000F8B2AD
:102460008DF80100200A8DF80200E0B28DF803001B
:10247000280A8DF80400E8B28DF80500300A8DF8BE
:102480000600F0B28DF807006B4640F2FF12002103
:102490000248FEF7E5FDBDE8FC8100003012002097
:1024A0000FB40099A1F205209DF81D109DF81C2085
:1024B00041EA022100EBC002484B23F822109DF8AC
:1024C0001F209DF81E1042EA012109B200EBC00254
:1024D00003EB8202518000EBC0011A4602EB81013E
:1024E000B1F9021000EE101AB8EEC00A00EBC001FC
:1024F00002EB810181ED010A9DF821209DF8201059
:1025000042EA012109B200EBC00203EB8202118111
:102510009DF8221000EBC00203EB8202917200EBE7
:10252000C0011A4632F8211000EBC00203EB820210
:10253000B2F91220891A2A4A91420BDA00EBC00143
:102540001A4602EB81014969491C00EBC00203EB0A
:102550008202516100EBC001204A02EB8101B1F916
:10256000121000EBC0021D4B33F82220891A1C4ABE
:1025700091420BDA00EBC0011A4602EB8101496976
:10258000491E00EBC00203EB8202516100EBC00167
:10259000124A32F8211000EBC002104B03EB82020A
:1025A00052694FF4005303FB021100EE101AB8EE0B
:1025B000C00A00EBC001094A02EB810181ED060A65
:1025C00000EBC00132F8211009B200EBC002034B4E
:1025D00003EB8202518204B0704700009C0A002085
:1025E0009CE6FFFF70B504460D4610F051FF2060D9
:1025F000D4E90012881AFFF761FE28602068606045
:1026000070BD000070B50A480468001D0568001D13
:102610000668344454B108220649204604F069FE95
:10262000042204491031284604F063FE70BD000006
:10263000107AFF1F86020020F0B504460D461E46A4
:1026400094F8207020688368A86800B900E000BF93
:10265000012F01D0022F7CD103F0806030B903F04C
:10266000006018B903F08050002873D0C3F30161F3
:10267000022905D9606A40F4000060620120F0BDC3
:10268000012088403060A86860B9B5F800C0E868EB
:1026900040EA4C5C206800F5C07000EB0110C0F807
:1026A00000C00FE0D5E901C040EACC00D5F80CC06D
:1026B00040EA0C00D4F800C00CF5C07C0CEB011C07
:1026C000CCF80000D5F810C0206800F5C07000EB11
:1026D0000110C0F804C0287D01280ED1206800F543
:1026E000C07000EB0110406840F4807C206800F569
:1026F000C07000EB0110C0F804C0D079000692F859
:1027000006C040EA0C4092F805C040EA0C2C107953
:102710004CEA000C206800F5C07000EB0110C0F816
:102720000CC0D078000692F802C040EA0C4092F843
:1027300001C040EA0C2092F800C040EA0C00D4F836
:1027400000C00CF5C07C0CEB011CCCF80800206824
:1027500001E016E00FE000F5C07000EB011000682A
:1027600040F0010C206800F5C07000EB0110C0F8CB
:1027700000C0002083E7606A40F40010606201201E
:102780007DE7606A40F480206062012077E7000006
:10279000F0B504460A46216894F82050012D01D076
:1027A000022D7ED1424901F50071086840F0010018
:1027B0000860086820F47C5008600868566A40EA9F
:1027C00006200860107D00F01F06012000FA06F3C5
:1027D000C8699843C861A1F50071D069C8B9D1F83A
:1027E0000C029843C1F80C02908880B2968940EAA6
:1027F000064601F51070576940F83760108880B2BE
:10280000168940EA064601F51070576900EBC700CB
:102810004660D069012819D1D1F80C021843C1F8DB
:102820000C02908880B2168840EA064601F51070C6
:10283000576940F83760908980B2168940EA0646A9
:1028400001F51070576900EBC7004660906928B920
:10285000D1F804029843C1F8040204E0D1F804025C
:102860001843C1F80402106928B9D1F8140298433A
:10287000C1F8140204E0D1F814021843C1F814029C
:10288000106A012804D1D1F81C021843C1F81C02B7
:10289000D1F8000220F00100C1F800020020F0BDD4
:1028A000FFE7606A40F4802060620120F7E70000E3
:1028B00000640040704770B5044694F82050012D24
:1028C00001D0022D7DD151B92068C06800F003000D
:1028D00080B9606A40F400106062012070BD206819
:1028E000006900F0030028B9606A40F400106062DB
:1028F0000120F3E7206800F5D87000EB01100068B4
:1029000000F004009060906840B9206800F5D8702D
:1029100000EB01100068400D106007E0206800F532
:10292000D87000EB01100068C0085060206800F506
:10293000D87000EB0110006800F00200D060206841
:1029400000F5D87000EB0110406800F00F00106136
:10295000206800F5D87000EB0110406800F47F405B
:10296000000A9061206800F5D87000EB0110406803
:10297000000C5061206800F5D87000EB01108068F1
:102980001870206800F5D87000EB0110806800F422
:102990007F40000A5870206800F5D87000EB0110E5
:1029A000806800F47F00000C9870206800F5D870F3
:1029B00000EB01108068000ED870206800F5D87018
:1029C00000E02FE000EB0110C0681871206800F5EE
:1029D000D87000EB0110C06800F47F40000A587105
:1029E000206800F5D87000EB0110C06800F47F008B
:1029F000000C9871206800F5D87000EB0110C068D9
:102A0000000ED87131B92068C06840F020002668F7
:102A1000F06005E02068006940F020002668306121
:102A200000205BE7606A40F480206062012055E787
:102A30002DE9F05F04460025206846692068D0F83B
:102A40000490206887682068D0F80CA02068D0F82F
:102A500010B02068D0F8188006F00100002855D08A
:102A600007F00100C0B101202168886007F0020072
:102A700018B1204600F0F5FA0EE007F0040010B19E
:102A800045F4006508E007F0080010B145F48055F2
:102A900002E0204600F0E4FA07F48070C8B14FF479
:102AA00080702168886007F4007018B1204600F03B
:102AB000DAFA0EE007F4806010B145F4005508E042
:102AC00007F4006010B145F4804502E0204600F0B4
:102AD000C9FA07F48030C8B14FF4803021688860AB
:102AE00007F4003018B1204600F0BFFA0EE007F4FA
:102AF000802010B145F4004508E007F4002010B133
:102B000045F4803502E0204600F0AEFA06F00800F9
:102B100038B10AF0100020B145F40075102021688A
:102B2000C86006F0040040B10AF0080028B108208F
:102B30002168C860204600F00DFA06F0020038B1A6
:102B40002068C06800F0030010B1204600F004FACD
:102B500006F0400038B10BF0100020B145F480655C
:102B600010202168086106F0200040B10BF0080039
:102B700028B1082021680861204600F03FFA06F0DD
:102B8000100038B12068006900F0030010B1204641
:102B900000F035FA06F4003040B109F0100028B119
:102BA000102021684860204600F02AFA06F48030A0
:102BB00040B109F0080028B108202168486020468B
:102BC00000F054FA06F4004088B309F0040078B32A
:102BD00006F4807020B108F0010008B145F001054D
:102BE00006F4007020B108F0020008B145F00205BB
:102BF00006F4806020B108F0040008B145F0040537
:102C000006F40060A0B108F0700088B108F0700010
:102C1000402817D006DC10280BD020280CD03028F4
:102C200019D10CE0502810D0602814D110E01DE01C
:102C300019E045F008050FE045F010050CE045F0FF
:102C4000200509E045F0400506E045F0800503E079
:102C500045F4807500E000BF00BF2068806920F067
:102C60007000216888610420216848602DB1606A85
:102C7000284360622046FFF71DFEBDE8F09F70B557
:102C800004460CB9012070BD94F8200010B920460C
:102C900000F0B0F82068006820F0020021680860A9
:102CA00000F056FE05460DE000F052FE401B0A28DB
:102CB00008D9606A40F400306062052084F8200082
:102CC0000120E0E72068406800F002000028EBD116
:102CD0002068006840F001002168086000F038FEBC
:102CE00005460DE000F034FE401B0A2808D9606A52
:102CF00040F400306062052084F820000120C2E723
:102D00002068406800F001000028EBD0207E0128F8
:102D100006D12068006840F080002168086005E066
:102D20002068006820F0800021680860607E01282B
:102D300006D12068006840F040002168086005E086
:102D40002068006820F0400021680860A07E01280B
:102D500006D12068006840F020002168086005E086
:102D60002068006820F0200021680860E07E0128CB
:102D700006D12068006820F010002168086005E096
:102D80002068006840F0100021680860207F01285A
:102D900006D12068006840F008002168086005E05E
:102DA0002068006820F0080021680860607F012822
:102DB00006D12068006840F004002168086005E042
:102DC0002068006820F0040021680860D4E902014E
:102DD000084321690843616908436168491E084343
:102DE0002168C86100206062012084F82000002072
:102DF00049E7000010B586B00446142101A8FDF78C
:102E000022FC4E492068884241D14D480068401C50
:102E10004B4908600846006801280FD100BF002018
:102E200000904848006840F0007046490860084635
:102E3000006800F00070009000BF00BF00BF0020DD
:102E4000009040481038006840F008003D491039B3
:102E500008600846006800F00800009000BF00BF4E
:102E60000320019002200290002003900320049090
:102E70000920059001A9344800F05CFC00220521DE
:102E8000142001F08DF9142001F07AF954E02F4953
:102E90002068884250D100BF002000902948006877
:102EA00040F08060274908600846006800F08060B4
:102EB000009000BF00BF22480068401C2049086005
:102EC0000846006801280FD100BF002000901D486F
:102ED000006840F000701B4908600846006800F078
:102EE0000070009000BF00BF00BF00200090154898
:102EF0001038006840F00200124910390860084696
:102F0000006800F00200009000BF00BF6020019048
:102F100002200290002003900320049009200590D5
:102F200001A90B4800F006FC00220521402001F019
:102F300037F9402001F024F906B010BD00640040CC
:102F40004C02002040380240000C02400068004063
:102F500000040240704700001CB50446204884422B
:102F600012D12048006878B11F4BA3F11C02002148
:102F70001B48FFF7A0FC002301AA1B491C39194874
:102F8000006810F00FF800BF1848844212D11848AA
:102F9000006870B1174BA3F11C0200211348FFF722
:102FA0008AFC00236A4613491C39114800680FF057
:102FB000F9FF00BF019838B14FF080500E4908600A
:102FC000BFF34F8FBFF36F8F009838B14FF0805031
:102FD00009490860BFF34F8FBFF36F8F1CBD00001E
:102FE0003012002028020020443000205812002017
:102FF0002C0200202030002004ED00E070477047D4
:10300000704770B5044694F82000012822D10220B0
:1030100084F820002068006820F001002168086022
:1030200000F096FC05460DE000F092FC401B0A28DB
:1030300008D9606A40F400306062052084F82000FE
:10304000012070BD2068406800F001000028EBD12D
:103050006062F6E7606A40F4002060620120F0E7F9
:103060007047704770477047704770477047014618
:1030700091F83500022803D0802048650120704770
:10308000052081F835000868006820F001000A6812
:1030900010600020F3E70000F8B50446002000901F
:1030A0008C4800684FF41651B0FBF1F7A56D2E68FF
:1030B00094F85C1008208840304098B1206800687F
:1030C00000F0040070B12068006820F0040021685E
:1030D000086094F85C1008208840A860606D40F09B
:1030E0000100606594F85C1001208840304068B1B0
:1030F0002068406900F0800040B194F85C10012025
:103100008840A860606D40F00200606594F85C1033
:1031100004208840304068B12068006800F0020058
:1031200040B194F85C1004208840A860606D40F0C5
:103130000400606594F85C1010208840304078B33B
:103140002068006800F0080050B394F85C1010206C
:103150008840A8602068006800F4802080B1206862
:10316000006800F4002028B9206CC8B12046216C0A
:10317000884715E0A06C98B12046A16C88470FE005
:103180002068006800F4807028B92068006820F08A
:10319000080021680860206C10B12046216C884727
:1031A00094F85C10202088403040002865D02068CA
:1031B000006800F0100000285FD094F85C10202018
:1031C0008840A86094F83500052828D12068006858
:1031D00020F01600216808602068406920F0800017
:1031E00021684861206C08B9A06C28B1206800688B
:1031F00020F008002168086094F85C103F208840A7
:10320000A86000BF002084F8340000BF012084F8CB
:103210003500206D10B12046216D8847F8BD20682B
:10322000006800F4802080B12068006800F400206D
:1032300028B9606C10B12046616C88471DE0E06BD6
:10324000D8B12046E16B884717E02068006800F499
:10325000807068B92068006820F01000216808605C
:1032600000BF002084F8340000BF012084F835003E
:10327000E06B10B12046E16B8847606D38B3606D3C
:1032800000F00100F0B1052084F8350020680068E6
:1032900020F001002168086000BF0098401C0090E9
:1032A000B84200D905E02068006800F0010000285D
:1032B000F3D100BF00BF002084F8340000BF01201C
:1032C00084F83500E06C10B12046E16C884700BFFF
:1032D000A4E70000040400202DE9F0410446002585
:1032E00000F036FB074614B90120BDE8F081606AA2
:1032F00000B100BF00BF002084F8340000BF0220EE
:1033000084F835002068006820F00100216808601A
:103310000AE000F01DFBC01B052805D920206065D0
:10332000032084F83500E0E72068006800F0010021
:103330000028EED12068056821480540D4E9010144
:103340000843E16808432169084361690843A169AA
:103350000843E1690843216A08430543606A042879
:1033600003D1D4E90B0108430543206805602068B8
:10337000456925F00705606A0543606A04280DD198
:10338000A06A0543E06A48B12046FEF77FFC28B1F9
:1033900040206065012084F83500A6E7206845617B
:1033A0002046FEF759FC064694F85C103F20884002
:1033B000B06000206065012084F83500002094E7AB
:1033C0003F8010F02DE9F04104460D4616461F4699
:1033D0004FF0000800BF94F83400012802D1022009
:1033E000BDE8F081012084F8340000BF94F8350076
:1033F000012811D1022084F83500002060653B4689
:10340000324629462046FEF796FC2068006840F0C8
:1034100001002168086006E000BF002084F8340045
:1034200000BF4FF002084046DAE72DE9F0470446B6
:103430000D4616461F464FF00008D4F8589000BFBE
:1034400094F83400012802D10220BDE8F087012061
:1034500084F8340000BF94F83500012825D10220FB
:1034600084F83500002060653B46324629462046F8
:10347000FEF761FC94F85C103F208840C9F8080012
:103480002068006840F0160021680860206C28B1B0
:103490002068006840F00800216808602068006823
:1034A00040F001002168086006E000BF002084F8B9
:1034B000340000BF4FF002084046C6E770B504462E
:1034C00000F046FA06462546681C10B1044800780C
:1034D000054400BF00F03CFA801BA842FAD370BD3F
:1034E000100400202DE9F04104460E460127002576
:1034F00000BF2548007E012802D10220BDE8F081EE
:1035000001202149087600BF4CF25030FEF7A4FE9E
:103510000746002F31D1401E3060206801280FD1AE
:10352000207C6168FEF7DCFD4CF25030FEF794FE23
:1035300007461648006820F00400144908601AE0A5
:10354000A56812E0217C2846FEF760FD4CF2503061
:10355000FEF782FE07460D48006820F0FA000B498E
:1035600008600FB1356005E06D1CD4E90210084415
:10357000A842E7D800BFFEF777FD00BF0020024950
:10358000087600BF3846B9E758320020103C0240A8
:103590000348006840F0004001490860002070477F
:1035A000103C02402DE9F04106460F4614461D46E8
:1035B0004FF0010800BF1F48007E012802D1022001
:1035C000BDE8F08101201B49087600BF4CF2503065
:1035D000FEF742FE8046B8F1000F23D126B9E1B2D2
:1035E0003846FEF795FD12E0012E04D1A1B238460F
:1035F000FEF7BEFD0BE0022E04D121463846FEF751
:10360000CBFD04E022462B463846FEF793FD4CF2F4
:103610005030FEF721FE80460748006820F0010088
:103620000549086000BF00200249087600BF4046F7
:10363000C6E7000058320020103C02400020094933
:10364000096801F0004159B10749064A0C3A116076
:10365000064911600349096801F0004101B10120E8
:1036600070470000103C024023016745AB89EFCD55
:1036700010B50446102C11D11F48007840F001000D
:103680001D4908701D48007840F001001B49087072
:103690001B48007870B30DF041F92BE0202C0BD1C2
:1036A0001848007840F00100164908701448007866
:1036B00000B30DF033F91DE0082C06D11248007854
:1036C00040F001001049087014E0012C12D10FF0F5
:1036D000CFFE01280ED00D490D4800680FF090F87C
:1036E0000A48006830B120070A490860BFF34F8FCD
:1036F000BFF36F8F10BD0000420300204303002082
:10370000450300204103002044030020B8030020AB
:103710001C03002004ED00E010B5044604480068D6
:10372000204020B1024804602046FFF7A1FF10BDF1
:10373000143C0140F8B502460B4600250024002049
:103740000021DCE0012606FA01F51E6806EA050400
:10375000AC4273D15E68012E08D05E68022E05D09F
:103760005E68112E02D05E68122E13D190684F0051
:103770000326BE40B0434F00DE68BE403043906039
:10378000506801268E40B0431E79C6F300168E4065
:1037900030435060D0684F000326BE40B0434F0016
:1037A0009E68BE403043D0605E68022E02D05E68E4
:1037B000122E13D1CF0802F1200656F827004E072B
:1037C000F70E0F26BE40B0434F07FF0E1E69BE40E6
:1037D0003043CF0802F1200646F8270010684F005A
:1037E0000326BE40B0431E7906F003064F00BE40DC
:1037F000304310605E6806F08056B6F1805F7DD180
:1038000000BF00260096404E366846F480463E4F84
:103810003E603E46366806F48046009600BF00BF14
:103820003A4E8F0856F827008E07370F0F26BE40F6
:10383000B043374EB24202D1002624E05EE0354E5E
:10384000B24201D101261EE0334EB24201D102261E
:1038500019E0324EB24201D1032614E0304EB2429A
:1038600001D104260FE02F4EB24201D105260AE015
:103870002D4EB24201D1062605E02C4EB24201D1B6
:10388000072600E008268F073F0FBE4030431F4E3B
:103890008F0846F82700264E3068A0435E6806F47D
:1038A0008036B6F5803F00D12043214E3060361D72
:1038B0003068A0435E6806F40036B6F5003F00D1DC
:1038C00020431B4E361D3060361D3068A0435E68B5
:1038D00006F48016B6F5801F00D12043144E08363A
:1038E0003060361D3068A0435E6806F40016B6F5F9
:1038F000001F00D120430E4E0C363060491C1029A9
:10390000FFF420AFF8BD0000443802400838014001
:10391000000002400004024000080240000C024087
:10392000001002400014024000180240001C024037
:10393000003C0140024613690B400BB1012000E03E
:10394000002070470AB1816101E00B048361704778
:1039500001480068704700000804002070B5044664
:103960000CB9012070BD94F83D0028B9002084F8FE
:103970003C00204600F006FB242084F83D0020682F
:10398000006820F00100216808602068006840F4A9
:103990000040216808602068006820F40040216829
:1039A000086001F047FB05465C496068884206D81C
:1039B0005B48854201D2012007E0002005E059481C
:1039C000854201D2012000E00020012800D1C9E792
:1039D0005548B5FBF0F62068406820F03F003043C2
:1039E000216848604D496068884201D8701C07E032
:1039F0004FF4967070434FF47A71B0FBF1F0401CB5
:103A00002168096A21F03F0108432168086243499F
:103A10006068884214D8681E61684900B0FBF1F004
:103A2000401CC0F30B00042801D204203DE0681EB6
:103A300061684900B0FBF1F0401CC0F30B0034E0BA
:103A4000A06838B9681E616801EB4101B0FBF1F074
:103A5000401C0AE0681E616801EBC10202EB011123
:103A6000B0FBF1F0401C40F48040C0F30B0008B9FB
:103A700001201AE0A06848B9681E616801EB4101A5
:103A8000B0FBF1F0401CC0F30B000CE0681E616855
:103A900001EBC10202EB0111B0FBF1F0401CC0F3DD
:103AA0000B0040F4804040F400402168C9694CF6A6
:103AB000FF72914308432168C861D4E907010843B4
:103AC0002168096821F0C001084321680860D4E931
:103AD000031008432168896848F2FF329143084384
:103AE00021688860D4E9050108432168C96821F08C
:103AF000FF0108432168C8602068006840F00100A9
:103B00002168086000202064202084F83D00002007
:103B1000206384F83E0000BF24E70000A086010077
:103B200080841E0000093D0040420F002DE9FC5F2B
:103B300004460F4690469946DDE90CAB0E9EFFF712
:103B400007FF054694F83D00202870D11923012273
:103B5000B0492046009502F025FF10B10220BDE8D3
:103B6000FC9F00BF94F83C00012801D10220F6E739
:103B7000012084F83C0000BF2068006800F00100CC
:103B800028B92068006840F00100216808602068BA
:103B9000006820F4006021680860222084F83D005D
:103BA000402084F83E0000202064C4F824A0A4F83B
:103BB0002AB0608D20859848E0624B4642463946DF
:103BC0002046CDE9006502F09FFD08B10120C6E75F
:103BD000208D88B900BF00200190206840690190C5
:103BE00020688069019000BF00BF2068006840F431
:103BF00000702168086040E0208D012818D12068FD
:103C0000006820F480602168086000BF00200190F7
:103C100020684069019020688069019000BF00BF62
:103C20002068006840F400702168086025E0EFE03B
:103C3000208D022816D12068006820F48060216859
:103C400008602068006840F400602168086000BFD8
:103C500000200190206840690190206880690190EF
:103C600000BF0AE000BF0020019020684069019079
:103C700020688069019000BF00BFBAE0208D032852
:103C80007ED8208D012815D12A463146204602F0E3
:103C90002EFF08B1012062E720680069616A0870A0
:103CA000606A401C6062208D401E2085608D401E31
:103CB00060859EE0208D02282AD133460022574994
:103CC0002046009502F06EFE08B1012047E720680B
:103CD000006840F400702168086020680069616A2B
:103CE0000870606A401C6062208D401E2085608DD7
:103CF000401E608520680069616A0870606A401C27
:103D00006062208D401E2085608D401E608570E0C1
:103D10003346002241492046009502F043FE08B197
:103D200001201CE72068006820F48060216808609A
:103D300020680069616A0870606A401C6062208DBA
:103D4000401E2085608D401E608533460022334929
:103D50002046009502F026FE08B10120FFE620680B
:103D6000006840F400702168086020680069616A9A
:103D70000870606A401C6062208D401E208500E053
:103D800010E0608D401E608520680069616A0870DF
:103D9000606A401C6062208D401E2085608D401E40
:103DA000608526E02A463146204602F0A0FE08B192
:103DB0000120D4E620680069616A0870606A401CCE
:103DC0006062208D401E2085608D401E60852068C9
:103DD0004069C0F3800060B120680069616A0870C2
:103DE000606A401C6062208D401E2085608D401EF0
:103DF0006085208D00287FF441AF202084F83D00AD
:103E0000002084F83E0000BF84F83C0000BFA6E616
:103E10000220A4E6020010000000FFFF04000100E1
:103E20002DE9FC5F04460F4690469946DDE90CAB50
:103E30000E9EFFF78DFD054694F83D0020287DD1AC
:103E4000192301224D492046009502F0ABFD10B127
:103E50000220BDE8FC9F00BF94F83C00012801D17E
:103E60000220F6E7012084F83C0000BF20680068CB
:103E700000F0010028B92068006840F001002168C6
:103E800008602068006820F4006021680860212034
:103E900084F83D00402084F83E0000202064C4F8EF
:103EA00024A0A4F82AB0608D20853548E0624B46F6
:103EB000424639462046CDE9006502F0D5FC08B1FE
:103EC0000120C6E731E02A463146204602F04FFE87
:103ED00050B1206C042805D12068006840F40070BF
:103EE000216808600120B4E7606A007821680861F1
:103EF000606A401C6062208D401E2085608D401EDF
:103F0000608520684069C0F3800070B1208D60B189
:103F1000606A007821680861606A401C6062208DD8
:103F2000401E2085608D401E6085208D0028CAD1EE
:103F30002A463146204602F007FD00E01CE050B161
:103F4000206C042805D12068006840F400702168C6
:103F5000086001207DE72068006840F40070216857
:103F60000860202084F83D00002084F83E0000BF57
:103F700084F83C0000BF6CE702206AE702001000F2
:103F80000000FFFF10B586B00446142101A8FCF71D
:103F90005AFB2A49206888424DD100BF002000907A
:103FA0002748006840F0040025490860084600687A
:103FB00000F00400009000BF00BF00BF0020009090
:103FC0000846006840F0010008600846006800F0FC
:103FD0000100009000BF00BF481501901220029020
:103FE00001200390032004900420059001A91548A6
:103FF000FFF7A0FB4FF48070019012200290012087
:104000000390032004900420059001A90E48FFF7B7
:1040100091FB00BF0020009009481030006840F478
:1040200000000749103108600846006800F40000ED
:10403000009000BF00BF06B010BD0000005C004053
:104040003038024000080240000002400348006887
:1040500003490978084401490860704708040020B2
:104060001004002010B50D48006840F400700B49A2
:1040700008600846006840F48060086008460068F0
:1040800040F480700860032000F0C8F8002000F0C1
:1040900007F800F04BF8002010BD0000003C024083
:1040A00070B588B00446002500260022214636203F
:1040B00000F076F8362000F063F800BF0020019091
:1040C0001648006840F0100014490860084600686F
:1040D00000F01000019000BF00BF02A903A800F08B
:1040E00081FF00F0A7FF45000D48B5FBF0F0461E2C
:1040F0000C480D49086040F2E7310B48C16046604A
:1041000000210161816001F0B5FC20B9064801F091
:1041100048FD08B070BD0120FBE7000040380240B8
:1041200040420F00001000404C30002008B500BF96
:10413000002000901148006840F480400F4908605A
:104140000846006800F48040009000BF00BF00BF38
:1041500000200090081F006840F08050091F086090
:104160000846006800F08050009000BF00BF0022A9
:104170000F21901E00F014F808BD000044380240E2
:1041800001460846002809DB00F01F0301229A407F
:1041900043099B0003F1E023C3F8002100BF7047EF
:1041A0002DE9F05F80460D46164600270BF094F887
:1041B000074639462A46334601F00700C0F1070A90
:1041C000BAF1040F02D94FF0040A01E0C0F1070A66
:1041D000D14600F1040ABAF1070F02D24FF0000AEB
:1041E00001E0A0F1030AD4464FF0010A0AFA09FAE5
:1041F000AAF1010A0AEA020A0AFA0CFA4FF0010BC4
:104200000BFA0CFBABF1010B0BEA030B4AEA0B04B4
:10421000214640460BF068F8BDE8F09F00BF00F073
:104220000702064B19684FF6FF031940044B0B4376
:1042300043EA0221014B196000BF70470CED00E01A
:104240000000FA057047024610684162002070477E
:10425000F0B5034615461868446A21B944EA05409A
:104260001E68B06219E01868806A04EB10440022EE
:1042700008E0186800F5827050F8220004EB104442
:10428000501CC2B2481E9042F3D844EA0547186851
:1042900000F582704E1E40F826700020F0BD10B56B
:1042A0000446D4F8040409F06CF910BD70B5044656
:1042B0000D46C5EBC50304F13C0101EB8301CA685F
:1042C0002946D4F8040409F0A0F870BD70B504467E
:1042D0000D46C5EBC50304F5FE7101EB8301CA6809
:1042E0002946D4F8040409F003F970BD10B504465A
:1042F000D4F8040409F048F910BD70B504460E4620
:1043000006F0800080280AD106F00F00C0EBC00143
:1043100004F13C0000EB81050120687009E006F023
:104320000F00C0EBC00104F5FE7000EB810500201A
:10433000687006F00F00287000BF94F8BC030128D5
:1043400001D1022070BD012084F8BC0300BF2946C2
:10435000206809F023FE00BF002084F8BC0300BFE2
:1043600000BFEFE770B504460E4606F00F00616827
:10437000884201D9012070BD06F0800080280AD152
:1043800006F00F00C0EBC00104F13C0000EB81051A
:104390000120687009E006F00F00C0EBC00104F5D1
:1043A000FE7000EB8105002068700020A87006F008
:1043B0000F00287000BF94F8BC03012801D102202F
:1043C000D9E7012084F8BC0300BF294620680AF021
:1043D000CBF800BF002084F8BC0300BF00BFCAE7D1
:1043E000024601F00F00C0EBC00302F5FE7000EBC7
:1043F0008300806970472DE9F04705460E469046D8
:104400001F464FF0000906F0800080280AD106F010
:104410000F00C0EBC00105F13C0000EB810401205E
:10442000607009E006F00F00C0EBC00105F5FE70FA
:1044300000EB81040020607006F00F002070C4F8CB
:104440000880E770607808B12078E080022F01D101
:104450000020207100BF95F8BC03012802D1022082
:10446000BDE8F087012085F8BC0300BF214628681D
:1044700009F0B0FC00BF002085F8BC0300BF48462F
:10448000EEE72DE9F04104460E461746984606F041
:104490000F00C0EBC00104F5FE7000EB8105EF607A
:1044A000C5F814800020A861687006F00F0028701D
:1044B0002069012800D12F6106F00F0028B9227C65
:1044C0002946206809F02CFF04E0227C2946206858
:1044D0000AF0DEF80020BDE8F08170B504460D4614
:1044E00005F00F006168884201D9012070BD05F018
:1044F000800080280AD105F00F00C0EBC00104F154
:104500003C0000EB81060120707007E0C5EBC5019F
:1045100004F5FE7000EB8106002070700120B07081
:1045200005F00F00307000BF94F8BC03012801D1E2
:104530000220DBE7012084F8BC0300BF314620687D
:104540000AF059F805F00F0028B9217C04F57172C2
:10455000206809F0D1FF00BF002084F8BC0300BF31
:1045600000BFC3E72DE9F04104460E4617469846C2
:1045700006F00F00C0EBC00104F13C0000EB810528
:10458000EF60C5F814800020A8610120687006F073
:104590000F0028702069012800D12F6106F00F005C
:1045A00028B9227C2946206809F0BAFE04E0227C62
:1045B000294620680AF06CF80020BDE8F0812DE95A
:1045C000FE4F044620680290029D20680AF04BFAD4
:1045D00000287DD120680AF085FA08B9BDE8FE8F71
:1045E00020680AF07FFA00F00200022805D1206856
:1045F000406900F002002168486120680AF072FA00
:1046000000F01000102846D12068806920F01000CA
:10461000216888610298D0F8209009F00F00C0EB63
:10462000C00104F5FE7000EB810BC9F34340022882
:104630001AD147F6F07009EA000030B3C9F30A1244
:10464000DBF80C1002980AF052FAC9F30A11DBF8F1
:104650000C000844CBF80C00C9F30A11DBF8180071
:104660000844CBF8180010E0C9F3434006280CD1E9
:10467000082204F5717102980AF039FAC9F30A1197
:10468000DBF818000844CBF818002068806940F077
:1046900010002168886120680AF024FA00F40020E4
:1046A000B0F5002F52D1002620680AF0EBF98246BF
:1046B00049E00AF00100E8B3F1B220680AF005FA17
:1046C000804608F0010058B1012105F5306000E096
:1046D00021E200EB461081603146204604F02EFABC
:1046E00008F00800082809D1082105F5306000EB22
:1046F000461081603146204604F0EEF908F01000C3
:10470000102805D1102105F5306000EB46108160BE
:1047100008F02000202805D1202105F5306000EBAD
:104720004610816008F40050B0F5005F08D14FF4E6
:10473000005100E004E005F5306000EB46108160B8
:10474000761C4FEA5A0ABAF1000FB2D120680AF07B
:10475000C9F900F48020B0F5802F7ED120680AF0DE
:1047600087F98246002683E00AF0010000287CD009
:10477000F1B220680AF090F9804608F00100F0B329
:1047800006F00F0101208840019040F634004159A5
:10479000019821EA000040F634014851012105F555
:1047A000106000EB461081602069012824D1C6EB1F
:1047B000C60104F13C0000EB8100C6EBC602C168F3
:1047C00004F13C0000EB820080680144C6EBC602A5
:1047D00004F13C0000EB8200C1606EB9C6EBC6017B
:1047E00004F13C0000EB8100406928B904F57172C6
:1047F0000121206809F080FEF1B2204600E001E0CE
:10480000FFF754FD08F00800082805D1082105F538
:10481000106000EB4610816008F01000102805D1F0
:10482000102105F5106000EB4610816008F0400093
:10483000402805D1402105F5106000EB461081604D
:1048400008F00200022805D1022105F5106000EBF6
:104850004610816008F0800001E00DE005E080284E
:1048600003D13146204604F027FA761C4FEA5A0A53
:10487000BAF1000F7FF478AF20680AF033F900F046
:104880000040B0F1004F1CD140F60400405920F028
:10489000010140F60400415194F8F403012807D1C6
:1048A000002084F8F40300212046FFF7CBFC02E04F
:1048B000204600F063FA2068406900F0004021685B
:1048C000486120680AF00EF900F40060B0F5006F4E
:1048D0000ED140F60800405900F0010010B120460A
:1048E00000F0A4FA2068406900F400602168486183
:1048F00020680AF0F7F800F48050B0F5805F7DD1B1
:1049000040F60400405920F0010140F604004151F6
:10491000102120680AF07CF800273EE04FF67F3136
:1049200005F5106000EB4710816005F5106000EBA5
:104930004710006820F4001105F5106000EB4710E7
:10494000016005F5106000EB4710006840F0006161
:1049500005F5106000EB471001604FF67F3105F55B
:10496000306000EB4710816005F5306000EB4710C8
:10497000006820F4001105F5306000EB471001607D
:1049800005F5306000EB4710006840F0006105F568
:10499000306000EB471001607F1C6068B842BDD8F2
:1049A00040F61C00405940F0011140F61C004151F6
:1049B000206B70B1D5F8840840F00B01C5F884185D
:1049C00040F64400405940F00B0140F6440041518C
:1049D0000FE040F61400405942F22B01084340F624
:1049E00014014851081F405940F00B014FF4016079
:1049F0004151D5F8000820F4FE6000E00DE0C5F854
:104A00000008217C04F57172206809F075FD2068AA
:104A1000406900F480502168486120680AF062F81B
:104A200000F40050B0F5005F17D1206809F03AFAA1
:104A300020680AF005F8E06000F0F6FA0090227BAA
:104A4000206800990AF09EF8204600F07FF920685F
:104A5000406900F400502168486120680AF042F87B
:104A600000F00800082808D1204600F08EF92068E0
:104A7000406900F008002168486120680AF032F8B7
:104A800000F48010B0F5801F0AD100263146204680
:104A900000F043F82068406900F480102168486104
:104AA00020680AF01FF800F40010B0F5001F0AD1CA
:104AB00000263146204600F039F82068406900F4AD
:104AC00000102168486120680AF00CF800F080406E
:104AD000B0F1804F08D12046FFF7E1FB2068406924
:104AE00000F0804021684861206809F0FBFF00F079
:104AF000040004280FD12068D0F8049009F00400C5
:104B0000042802D12046FFF7F1FB2068406840EA04
:104B100009002168486000BF60E570B504460D4695
:104B20002946D4F8040408F099FD70BD70B5044618
:104B30000D462946D4F8040408F093FD70BD70B505
:104B40008AB0044614B901200AB070BD266894F8F2
:104B5000BD0328B9002084F8BC03204600F0A2F869
:104B6000032084F8BD03F06B00F4807008B90021C5
:104B70002161206809F0CCFB282204F1100168466D
:104B8000FBF727FD94E80F0009F0A0F920B10220FF
:104B900084F8BD030120D7E70021206809F0B8FFA1
:104BA000002531E00121C5EBC50204F13C0000EB1A
:104BB00082004170C5EBC50104F13C0000F82150B2
:104BC000C5EBC50100EB8100C5800021C5EBC50226
:104BD00004F13C0000EB8200C170C5EBC50204F19A
:104BE0003C0000EB82008160C5EBC50204F13C0093
:104BF00000EB8200C160C5EBC50204F13C0000EB94
:104C000082004161681CC5B26068A842CAD800250C
:104C10002AE00021C5EBC50204F5FE7000EB82001E
:104C20004170C5EBC50104F5FE7000F8215000216C
:104C3000C5EBC50200EB8200C170C5EBC50204F5EF
:104C4000FE7000EB82008160C5EBC50204F5FE70CA
:104C500000EB8200C160C5EBC50204F5FE7000EBFD
:104C600082004161681CC5B26068A842D1D8282280
:104C700004F110016846FBF7ACFC94E80F0009F062
:104C800057FA20B1022084F8BD0301205CE7002020
:104C900084F83800012084F8BD03206809F036FA52
:104CA000002051E710B586B00446142101A8FBF797
:104CB000CAFC2068B0F1A04F42D100BF0020009094
:104CC0002048006840F001001E490860084600685E
:104CD00000F00100009000BF00BF4FF4C0500190F1
:104CE0000220029000200390032004900A200590E7
:104CF00001A91548FEF71EFD00BF1248001D0068FF
:104D000040F080000F49091D086000BF002000909E
:104D10000C481430006840F480400A49143108609F
:104D20000846006800F48040009000BF00BF00BF4C
:104D3000002205214320FFF733FA4320FFF720FA32
:104D400006B010BD303802400000024070B5044685
:104D50000125E06808B9002506E0E068022801D1D5
:104D6000012501E0FDF751F92946D4F8040408F0C3
:104D7000F4FCD4F8040408F0A7FC70BD10B5044698
:104D8000D4F8040408F0CDFC10BD10B50446D4F8E6
:104D9000040408F0D1FC10BD70B504460D4600BFF8
:104DA00094F8BC03012801D1022070BD012084F8D1
:104DB000BC0300BF84F838502946206809F0C3FEC0
:104DC00000BF002084F8BC0300BF00BFEDE710B5B2
:104DD000044604F57171D4F8040408F0D5FC10BD44
:104DE00070B50446256800BF94F8BC03012801D1C2
:104DF000022070BD012084F8BC0300BFA06A012816
:104E000006D1A069012803D0A86B40F48030A863C4
:104E1000206809F0DFFD206809F066F900BF002076
:104E200084F8BC0300BF00BFE3E7000010B50446F0
:104E3000D4F8040408F005FD2068D0F8000E40F016
:104E400001002168C1F8000E206A28B103480068FB
:104E500040F006000149086010BD000010ED00E0C0
:104E600070B504460D460CB9012070BD5848006865
:104E700000F00F00A84209D255490D70084600689D
:104E800000F00F00A84201D00120EEE7207800F0EA
:104E9000020002281DD1207800F00400042805D16A
:104EA0004C48006840F4E0504A490860207800F01F
:104EB0000800082805D14748006840F4604045498B
:104EC00008604448006820F0F000A16808434149A8
:104ED0000860207800F00100A8B36068012807D1BD
:104EE0003C4808380068C0F34040B8B90120BCE72E
:104EF0006068022802D06068032807D13548083866
:104F00000068C0F3406048B90120AEE73148083876
:104F10000068C0F3400008B90120A6E72D480068EA
:104F200020F00300616808432A490860FEF710FD7D
:104F3000064609E0FEF70CFD801B41F288318842ED
:104F400002D9032091E707E02248006800F00C0036
:104F50006168B0EB810FEDD11D48006800F00F00D3
:104F6000A84209D91A490D700846006800F00F00E0
:104F7000A84201D0012078E7207800F0040004283E
:104F800007D11448006820F4E050E1680843114953
:104F90000860207800F00800082808D10D48006853
:104FA00020F46040216940EAC1000A49086000F02D
:104FB00061F808490968C1F30311074A515CC84008
:104FC0000649086006480068FFF76AF800204CE7C9
:104FD000003C024008380240DF470108040400207A
:104FE0000C0400200F2202600D4A126802F0030236
:104FF00042600B4A126802F0F0028260084A1268AE
:1050000002F4E052C260064A126802F46042D2081A
:105010000261044A126802F00F020A607047000041
:1050200008380240003C0240014800687047000018
:105030000404002000B5FFF7F7FF04490968C1F335
:105040008221034A515CC84000BD0000083802407C
:10505000EF47010800B5FFF7E7FF04490968C1F30E
:105060004231034A515CC84000BD0000083802408C
:10507000EF4701082DE9F047002400250026A1464E
:105080002548006800F00C0020B1042805D008284D
:105090003AD105E0DFF8849039E0DFF8849036E01B
:1050A0001D48001F006800F03F041B48001F0068F7
:1050B00000F4800078B11A481749091F0968C1F344
:1050C0008811A0FB01700146224600233846FBF7F9
:1050D000A5F905460EE011480F49091F0968C1F3FB
:1050E0008811A0FB01700146224600233846FBF7D9
:1050F00095F905460848001F0068C0F30140401CB0
:105100004600B5FBF6F902E0DFF8109000BF00BFE3
:105110004846BDE8F0870000083802400024F4004B
:10512000001BB700F8B504460CB90120F8BD207883
:1051300000F00100002874D0F948006800F00C006D
:1051400004280DD0F648006800F00C00082813D1A0
:10515000F348001F006800F48000B0F5800F0BD109
:10516000EF4808380068C0F34040002859D0606814
:10517000002856D10120D9E700BF6068B0F5803F14
:1051800008D1E7480838006840F48030E44908391D
:1051900008601EE06068B0F5A02F0DD1E048083827
:1051A000006840F48020DE4908390860084600683D
:1051B00040F4803008600CE0D9480838006820F4DA
:1051C0008030D749083908600846006820F48020FC
:1051D000086000BF606890B1FEF7BAFB054606E0C4
:1051E000FEF7B6FB401B642801D903209EE7CC489C
:1051F00008380068C0F340400028F1D011E0FEF705
:10520000A7FB054606E0FEF7A3FB401B642801D977
:1052100003208BE7C24808380068C0F340400028EC
:10522000F1D1207800F0020002285FD1BC4800686C
:1052300000F00C0058B1BA48006800F00C000828D3
:105240001CD1B748001F006800F48000B0B9B44812
:1052500008380068C0F3400020B1E068012801D0A0
:10526000012063E7AE480838006820F0F8002169A3
:1052700040EAC100AA490839086037E0E06800B395
:105280000120A8490860FEF763FB054606E0FEF72B
:105290005FFB401B022801D9032047E7A0480838DC
:1052A0000068C0F340000028F1D09D48083800682D
:1052B00020F0F800216940EAC100994908390860E6
:1052C00014E0002097490860FEF742FB054606E01F
:1052D000FEF73EFB401B022801D9032026E7904839
:1052E00008380068C0F340000028F1D1207800F0B1
:1052F000080008282CD16069A8B101208A490860FB
:10530000FEF726FB054606E0FEF722FB401B0228BF
:1053100001D903200AE782486C300068C0F34000DE
:105320000028F1D014E000207F490860FEF710FB50
:10533000054606E0FEF70CFB401B022801D90320BE
:10534000F4E677486C300068C0F340000028F1D1E3
:10535000207800F00400042870D10027704838300D
:10536000006800F0805090B900BF002000906C48A9
:105370003830006840F0805069493831086008468C
:10538000006800F08050009000BF00BF0127674810
:10539000006800F48070B0B96448006840F4807020
:1053A00062490860FEF7D4FA054606E0FEF7D0FA37
:1053B000401B022801D90320B8E65C48006800F4CD
:1053C00080700028F2D000BFA068012808D154489E
:1053D0006830006840F001005149683108601DE004
:1053E000A06805280DD14E486830006840F00400E0
:1053F0004B49683108600846006840F001000860C9
:105400000CE047486830006820F0010044496831EA
:1054100008600846006820F00400086000BFA0682B
:10542000A8B1FEF795FA054609E0FEF791FA401B90
:1054300041F28831884202D9032077E626E03848D5
:1054400068300068C0F340000028EED013E0FEF79B
:105450007FFA054608E0FEF77BFA401B41F28831EF
:10546000884201D9032061E62D4868300068C0F306
:1054700040000028EFD1012F07D1294838300068BB
:1054800020F0805026493831086000BFA06900280C
:1054900045D02348006800F00C0008285DD0A069C2
:1054A000022845D100201F490866FEF751FA05463B
:1054B00006E0FEF74DFA401B022801D9032035E62D
:1054C000174808380068C0F340600028F1D1D4E9DB
:1054D00007010843616A40EA81110122A06AC2EB18
:1054E000500041EA00412C20005D41EA00600C4977
:1054F000091F086001200B490866FEF729FA0546D6
:1055000006E0FEF725FA401B022801D903200DE62C
:10551000034808380068C0F340600028F1D03FE03D
:105520000838024000004742800E474200700040A9
:1055300000201C490866FEF70BFA054606E0FEF758
:1055400007FA401B022801D90320EFE5164800683E
:10555000C0F340600028F2D122E0A069012800D108
:10556000E4E51148001D066806F48001E069814207
:1055700014D106F03F01206A81420FD147F6C07076
:105580003040616A884209D106F44031A06A814204
:1055900004D106F07061E06A814201D00120C5E5C6
:1055A0000020C3E5000047420038024010B5044621
:1055B0000CB9012010BD606A00B900BF0021A162D2
:1055C00094F8510028B9002084F85000204600F0DB
:1055D00033F8022084F851002068006820F0400071
:1055E00021680860D4E901010843E16808432169A2
:1055F000084361690843218B01F400710843E169A4
:105600000843216A0843A16A08432168086004210D
:10561000A06901EA1040616A084321684860206877
:10562000C06920F400602168C86100206065012025
:1056300084F851000020BDE710B586B0044614215F
:1056400001A8FBF700F84B49206888427ED100BFD3
:10565000002000904848006840F4805046490860A7
:105660000846006800F48050009000BF00BF00BFF3
:105670000020009040481438006840F002003E4985
:10568000143908600846006800F00200009000BF6E
:1056900000BF00BF002000900846006840F00100F5
:1056A00008600846006800F00100009000BF00BFDD
:1056B0001820019002200290012003900320049002
:1056C0000520059001A92D48FEF734F880200190AF
:1056D00002200290012003900320049005200590F1
:1056E00001A92748FEF726F82648274908604FF009
:1056F000C0604860002124488160C1604FF480612F
:105700000161002141618161C1614FF44031016259
:1057100000214162FDF7E0FD08B1FCF776FC00BF17
:105720001948E064846300BF1648183017490860C0
:105730004FF0C06048604021144881600021C16082
:105740004FF4806101610021416100E010E081615E
:10575000C1614FF40031016200214162FDF7BCFDDF
:1057600008B1FCF752FC00BF0848A064846300BF86
:1057700006B010BD00300140443802400004024031
:1057800000000240406402402C1300208C130020D3
:105790002DE9FF5F0446884691461D460E9E012076
:1057A00002900020019000BF94F85000012803D11E
:1057B000022004B0BDE8F09F012084F8500000BF33
:1057C000FEF7C6F8074694F851B060680390AA4601
:1057D000BBF1010F0BD00398B0F5827F04D1A06814
:1057E00010B9BBF1040F02D002200190DBE0B8F148
:1057F000000F03D0B9F1000F00D015B901200190BE
:10580000D1E094F85100042802D0052084F851001A
:1058100000206065C4F83890E587A587C4F830801B
:10582000E586A586206460642068006800F040007A
:10583000402805D02068006840F0400021680860DA
:10584000E068B0F5006F4AD1606810B1BAF1010F9D
:1058500009D1206B00882168C860206B801C206300
:10586000E08E401EE08633E02068806800F0020091
:10587000022810D1E08E70B1029801280BD1206B64
:1058800000882168C860206B801C2063E08E401E69
:10589000E086002002902068806800F0010068B176
:1058A000E08F58B12068C068A16B0880A06B801C95
:1058B000A063E08F401EE08701200290FEF748F8C9
:1058C000C01BB04204D3701C10B1032001906AE0E9
:1058D000E08E0028C8D1E08F0028C5D14AE060687A
:1058E00010B1BAF1010F09D1206B0078216808735B
:1058F000206B401C2063E08E401EE08634E0206870
:10590000806800F00200022810D1E08E70B1029889
:1059100001280BD1206B007821680873206B401C94
:105920002063E08E401EE0860020029020688068A0
:1059300000F0010068B1E08F58B12068C068A16B29
:105940000870A06B401CA063E08F401EE087012020
:105950000290FDF7FDFFC01BB04201D3701C00B9DF
:1059600016B9032001901EE0E08E0028C7D1E08F19
:105970000028C4D13A463146204606F025FA20B127
:1059800001200190202060650DE0A06850B900BFA3
:10599000002000902068C068009020688068009017
:1059A00000BF00BF00BF012084F8510000BF0020ED
:1059B00084F8500000BF0198FBE670477047000074
:1059C00030B502460B4600BF92F83C00012801D1D9
:1059D000022030BD012082F83C0000BF022082F886
:1059E0003D00106844681068816824F070041868ED
:1059F000044310684460184D1068A8421BD010681A
:105A0000B0F1804F17D0154D1068A84213D0144D37
:105A10001068A8420FD0134D1068A8420BD0124D49
:105A20001068A84207D0114D1068A84203D0104D4D
:105A30001068A84205D121F0800158680143106820
:105A40008160012082F83D0000BF002082F83C0008
:105A500000BF00BFBDE7000000000140000400409F
:105A600000080040000C00400004014000400140DC
:105A70000018004010B504460CB9012010BD94F880
:105A80003D0028B9002084F83C00204600F00CF8C6
:105A9000022084F83D00211D206806F0DFFA012075
:105AA00084F83D000020E9E738B504462D49206818
:105AB000884218D100BF002000902B48006840F0B9
:105AC0000200294908600846006800F002000090C2
:105AD00000BF00BF002207211D20FEF761FB1D2033
