:020000040800F2
:10000000B0E30020DD030008D9BA0008019700081A
:10001000D5BA000811320008312B01080000000099
:100020000000000000000000000000001D030008A8
:1000300045480008000000007903000871FA000834
:10004000F7030008F7030008F7030008F7030008A8
:10005000F7030008F703000847480008F703000803
:10006000F7030008514800085B480008F703000840
:10007000CD3A0008F7030008F7030008F70300086B
:10008000F7030008F7030008F7030008F703000868
:1000900095340008F7030008F703000865480008D6
:1000A000F7030008F7030008F7030008F703000848
:1000B000F7030008BDFB0008F7030008F70300087A
:1000C000F7030008F7030008F7030008F703000828
:1000D000F7030008F9040108F703000809050108FF
:1000E000F7030008F7030008F7030008F703000808
:1000F000F7030008F7030008F7030008F7030008F8
:10010000F7030008F7030008F7030008F7030008E7
:10011000F7030008F7030008CDFB0008F703000809
:10012000F7030008DD3A0008ED3A0008F70300087D
:10013000F7030008F7030008F7030008F7030008B7
:100140000D350008F7030008F703000835BF000865
:1001500085430008F7030008954300082D050108B2
:10016000F7030008F7030008F7030008F703000887
:10017000F7030008F7030008F70300080000000079
:10018000F7030008F703000800F002F800F0B6F8E3
:100190000AA090E8000C82448344AAF10107DA45E2
:1001A00001D100F0ABF8AFF2090EBAE80F0013F07E
:1001B000010F18BFFB1A43F00103184758AD0100A7
:1001C00078AD01000A444FF0000C10F8013B13F029
:1001D000070408BF10F8014B1D1108BF10F8015BA0
:1001E000641E05D010F8016B641E01F8016BF9D193
:1001F00013F0080F1EBF10F8014BAD1C0C1B09D1EA
:100200006D1E58BF01F801CBFAD505E014F8016B5B
:1002100001F8016B6D1EF9D59142D6D370470000ED
:100220000023002400250026103A28BF78C1FBD8FF
:10023000520728BF30C148BF0B6070476E2901F0DC
:100240005D80702901F09F81662919F0118665296A
:1002500019F00E86672919F00B86612919F00A86B4
:1002600003681B0A28BF41F08001692901F00A8058
:10027000642901F00780752901F004806F2901F0DD
:100280002C81782901F06B81E92901F0C780E429EC
:1002900001F0C480F52901F0C180EF2901F0298126
:1002A000F82901F06A810368DB0928BF41F0800169
:1002B000632901F0C986732901F0CE86E32901F094
:1002C000D986F32901F0DE86002070471FB519F0AA
:1002D00017FD9DE8030000F031FF01F02DFF040041
:1002E0000020002118F036F9401C60600020002139
:1002F00018F01AF9E0601FBD10B510BD01F0EEFE58
:100300001146FFF7E3FF14F0D7FF01F0CBFF03B472
:10031000FFF7F2FF03BC02F003F800002C4B196852
:100320000868B0E8F04F80F30988BFF36F8F4FF093
:10033000000080F311887047000000000848006842
:10034000006880F308884FF0000080F3148862B6DC
:1003500061B6BFF34F8FBFF36F8F00DF00BF00BFE9
:1003600008ED00E0DFF80C00016841F47001016065
:10037000704700BF88ED00E0EFF30980BFF36F8F97
:10038000134B1A681EF0100F08BF20ED108A20E9E9
:10039000F04F106009B44FF0500080F31188BFF3A4
:1003A0004F8FBFF36F8F17F035F94FF0000080F3D8
:1003B000118809BC19680868B0E8F04F1EF0100FEA
:1003C00008BFB0EC108A80F30988BFF36F8F7047C5
:1003D000A8060020EFF30580704700000948804719
:1003E00009480047FEE7FEE7FEE7FEE7FEE7FEE717
:1003F000FEE7FEE7FEE7FEE704480549054A064B2F
:100400007047000059FB000889010008B0A30020D4
:10041000B0E30020B0C30020B0C3002070B4058852
:100420000E884468D1F804C05368B54208D14088AA
:100430004988884201BF11888D425188884203D083
:1004400070BC6FF00200704705FB00F1880827D0F0
:1004500094ED001ADCED000A94ED010ADCED011ABE
:1004600031EE201AD4ED020A70EE211A9CED020A38
:1004700083ED001AC3ED011A94ED031ADCED031AA3
:1004800030EE800A401E71EE210A83ED020A04F16B
:100490001004C3ED030A03F110030CF1100CD7D1C3
:1004A00011F0030030D0B0F1004F30D200282BDD26
:1004B000211F1B1FACF1040210F0010F0AD091EDB7
:1004C000010AD2ED010A091D121D30EE200A83ED4A
:1004D000010A1B1D400817D091ED010AD2ED010A57
:1004E000401E30EE200A83ED010A91ED020AD2EDA2
:1004F000020A01F1080102F1080230EE200A83ED40
:10050000020A03F10803E7D170BC00207047B4EC85
:10051000010A401EFCEC010A30EE200AA3EC010A9D
:10052000F5D1F1E701804280436070472DE9F34F38
:1005300084B0049840680090486801900498B0F82E
:1005400000E04588DFEDFE0A00200290B0EE600A70
:10055000AE4506D108884988884204BF7146864561
:1005600004D06FF0020006B0BDE8F08F01985FEA9A
:10057000010C18BFB7EE001A3DD000BFBEEB0C0156
:1005800017D0B1F1004F80F01F82002911DD021F4A
:1005900011F0010F1CBFC2ED010A121D4B1006D055
:1005A000C2ED010AC2ED020A08325B1EF8D100EB6F
:1005B0008100BCF10102A0EC011A19D0B2F1004F88
:1005C00080F00882002A13DD031F12F0010F1CBF08
:1005D000C3ED010A1B1D511008D000BFC3ED010A75
:1005E000C3ED020A491E03F10803F7D100EB8200B4
:1005F000BCF1010CC2D14FF000080395002D14BFCF
:10060000B0EE602A002000F0BF8100BF009908FB17
:1006100005F001EB800B0199DBED002A01EB800076
:100620000346F0EE421AC64552D9AEEB0802ABEBD8
:10063000850112F0010F17D001EB850191ED000A41
:10064000B5EEC00AF1EE10FA07DDB4EEE10AF1EE04
:1006500010FA09DDF0EE401A06E0B1EE400AF4EEC1
:10066000C01AF1EE10FAF5D3521031D001EB850C1F
:100670009CED000AB5EEC00AF1EE10FA05DDB4EE0D
:10068000E10AF1EE10FA09DD06E0B1EE400AF4EEFF
:10069000C01AF1EE10FA01D2F0EE401A01EBC501DA
:1006A00091ED000AB5EEC00AF1EE10FA05DDB4EEE8
:1006B000E10AF1EE10FA09DD06E0B1EE400AF4EECF
:1006C000C01AF1EE10FA01D2F0EE401A521ECDD14E
:1006D000F5EEC01AF1EE10FA00F07381F5EEC02AC3
:1006E0000126F1EE10FA0099D4BFB1EE620AB0EE25
:1006F000620AB4EE610AF1EE10FA1CBFAEEB08021A
:10070000B2F1010C47D005FB08F201EB820292ED39
:10071000001A00BFB0EE410A05FB06F4B5EEC00AB0
:1007200000EB8404F1EE10FACCBFF0EE400AF1EEDB
:10073000400AF4EE610AF1EE10FA28D1B5EB080C8C
:1007400011D0BCF1004F7DD2BCF1000F0BDD00BF1A
:1007500092ED000AD1ED000ABCF1010CE2EC010AB5
:10076000A1EC010AF4D129000ED0B1F1004F6AD2F8
:10077000002909DD94ED000AD0ED000A491EE4ECE1
:10078000010AA0EC010AF5D1012002900BE0761CD1
:10079000BCF1010CBED10298012804D0F5EEC02AAC
:1007A000F1EE10FA7ED09BED000AB5EB08009A46F8
:1007B0005946064622D0B0F1004F74D200281DDD04
:1007C000091F10F0010F06D0F0EE400A80EEA01ACB
:1007D00081ED011A091D401010D000BFD1ED010AB2
:1007E000401E80EE801A81ED011A91ED021AC1EED1
:1007F000000AC1ED020A01F10801EFD1280026D05C
:10080000B0F1004F7ED2002821DDAAF1040110F0E2
:10081000010F06D0D1ED010A80EE801A81ED011A98
:10082000091D401013D000BFD1ED010A401E80EE1B
:10083000801A81ED011AD1ED020A80EE801A81ED55
:10084000021A01E0CBE0D6E001F10801ECD1DDE9CC
:1008500000124FF000095FEA0E0773D0C14504BFD4
:1008600001EB860102EB850274D091ED000ADC46B3
:100870005046331E35D01C46B6F1004F7ED2002CB8
:100880002FDD0B1FABF1040C16F0010F0FD0F0EEB3
:10089000400ADCED011AB0EE601A00EEE11A83EDB9
:1008A000011A01E08DE0B1E01B1D0CF1040C741085
:1008B00015D000BFD3ED010A9CED011A40EE410AAC
:1008C000C3ED010AD3ED020A9CED021A0CF1080CEB
:1008D00040EE410AC3ED020A0833641EEAD101EB7F
:1008E00086012B0036D0B3F1004F72D2002B31DDE0
:1008F000A2F1040CAAF1040013F0010F0CD0DCEDFE
:10090000010A00E08BE090ED011A001D40EE410A63
:10091000CCED010A0CF1040C5C1019D0DCED010ADD
:1009200090ED011A40EE410ACCED010ADCED020A1D
:1009300090ED021A083040EE410ACCED020A03E0C5
:10094000000000000DE005E0641E0CF1080CE5D18C
:1009500002EB830201EB88017F1E09F101097FF49C
:100960007DAF009808F10108001D00900398401E1B
:1009700003907FF44BAE0299012900E058E004BFD8
:1009800006B0BDE8F08F00BFB5EEC00AF1EE10FA78
:100990007FF4E9AD04990EFB05F3002B4A684FF094
:1009A00000010BD902EB810C9CED000AB5EEC00AE8
:1009B000F1EE10FA02D1491C8B42F3D88B427FF43E
:1009C000D2AD6FF00400CEE5E0EC010A491EFBD188
:1009D000EFE538E0E0EC010A521EFBD108E692EDAB
:1009E000000AD1ED000ABCF1010CE2EC010AA1EC15
:1009F000010AF4D1B7E694ED000AD0ED000A491ED1
:100A0000E4EC010AA0EC010AF5D1BDE6D1ED000A43
:100A1000401E80EE801AA1EC011AF7D1EEE6D3ED6C
:100A2000000A401E80EE801AA3EC011AF7D10EE7EF
:100A3000BCEC011AD1ED000A5B1E40EE410AE1EC6C
:100A4000010AF5D14DE7B0EC011AD2ED000A5B1EA8
:100A500040EE410AE2EC010AF5D17BE72DE9F04FC7
:100A600082B0466853680193058847884B88002008
:100A700000900888874201BFB2F800C065455288DF
:100A800093421EBF6FF0020002B0BDE8F08F9FEDF1
:100A9000412A4FEA970EC7F3400B00BFDDE9000281
:100AA00002EB800A4A6898464FF00009B0EE420A0D
:100AB000B4465FEA0E0025D092ED001ADCED001A74
:100AC00002EB8302DCED010A01EE810A92ED001ACD
:100AD00002EB8302401ED2ED001A02EB830200EE0D
:100AE000810A9CED021ADCED030A00040CF1100CE3
:100AF000000C01EE210A92ED001A02EB830200EED7
:100B0000810AD9D117F0030026D0ACF10404A2EB7E
:100B1000830210F0010F08D002EB8302D4ED010A2A
:100B200092ED001A241D00EE810A5FEA0B0013D03B
:100B300002EB830CD4ED010A9CED001A02EBC30218
:100B4000401E00EE810AD4ED020A92ED001A04F173
:100B5000080400EE810AEBD109F10100AAEC010AB8
:100B60001FFA80F9486800EB8902A8F101001FFA1A
:100B700080F8B8F1000F99D1009806EB8706184469
:100B800080B20090681E05042D0C87D102B00020B1
:100B9000BDE8F08F0000000070B405880E8844683E
:100BA000D1F804C05368B54208D1408849888842CA
:100BB00001BF11888D425188884203D070BC6FF00C
:100BC0000200704705FB00F1880827D094ED001A59
:100BD000DCED000A94ED010ADCED011A31EE601A39
:100BE000D4ED020A70EE611A9CED020A83ED001A40
:100BF000C3ED011A94ED031ADCED031A30EEC00ABE
:100C0000401E71EE610A83ED020A04F11004C3ED87
:100C1000030A03F110030CF1100CD7D111F00300FB
:100C200030D0B0F1004F30D200282BDD211F1B1F28
:100C3000ACF1040210F0010F0AD091ED010AD2EDDF
:100C4000010A091D121D30EE600A83ED010A1B1D09
:100C5000400817D091ED010AD2ED010A401E30EE96
:100C6000600A83ED010A91ED020AD2ED020A01F158
:100C7000080102F1080230EE600A83ED020A03F176
:100C80000803E7D170BC00207047B4EC010A401E95
:100C9000FCEC010A30EE600AA3EC010AF5D1F1E7A1
:100CA0002DE9F04F02884768B0F802804888D1F8F3
:100CB000049082B04FF0000A1646824207BF0988AE
:100CC00088456FF0020002B018BFBDE8F08F4FEA10
:100CD000980B02EB42000190C8F34000CDF80000F1
:100CE00009EB8A01BBF1000F33D0019801EB820CB4
:100CF00001EB80043B46E64601EBC2054FEA0B00E0
:100D000093ED000A401E81ED000A93ED010A01EB0C
:100D100002118CED000A93ED020A0CEB021C85ED2A
:100D2000000A93ED030A05EB021584ED000A04EBBB
:100D3000021403F11003E3D10EEB820000EB8200FA
:100D400000EB8201ABF10100504307EB0B1701EB05
:100D5000001118F0030C21D03B1FA1EB82011CF005
:100D6000010F06D093ED010A01EB82011B1D81EDFD
:100D7000000A009880B100BF93ED010A01EB8204E4
:100D800001EBC20184ED000A93ED020A401E81EDE1
:100D9000000A03F10803EFD107EB8C070AF1010009
:100DA0001FFA80FA701E0604360C99D102B000209A
:100DB000BDE8F08F70B5064600F0A4F9056806F1AD
:100DC0000B0020F00704B4429CBF002070BD2B46EE
:100DD0006A68BAB11068A04210D304F108018842D1
:100DE0003CBF5068586007D35168101941601168C2
:100DF000091B016058601460101D70BD13465268D5
:100E0000002AE7D12146284600F084F90028DED1E7
:100E100070BD70B50446051F00F074F90068002C21
:100E200014BF446870BD002C18BFAC423CBF2046C4
:100E30006468F8D301680A18AA4218BF456003D154
:100E40002A6805461144016028684119A1421CBF67
:100E50006C6070BD6168696021680844286070BD7D
:100E600053EA020C00F069802DE9F04B4FF00006C8
:100E7000002B1FBFB3FA83F503FA05F424FA05F635
:100E80005E4012BF1643B2FA82F502FA05F4C5F1CC
:100E900020051EBF22FA05FC44EA0C04203556EA60
:100EA000044C4FEA144418BF641C4FF000084FF084
:100EB0000009904271EB030C39D3002919BFB1FA34
:100EC00081F701FA07F6B0FA80F700FA07F6C7F1E2
:100ED00020071EBF20FA07FC46EA0C062037B6FBA7
:100EE000F4FCA7EB0507103F07F01F0BCBF1200622
:100EF0000CFA0BFB2CFA06F644BFB3460026202F53
:100F0000A4BF5E464FF0000B5BEA060C08BF4FF033
:100F1000010B19EB0B09ABFB027C48EB0608C01B6D
:100F200006FB02CC0BFB03CC71EB0C01C1E70B46BB
:100F3000024641464846BDE8F08B13B54FF000002D
:100F40004FF00001AFF30080BDE81C407047000087
:100F50001CB50C46064B7B4469460090204600F0C9
:100F6000E6F904460020694600F0F4F920461CBD6D
:100F7000FB03000010B5431C02E010F8011B71B127
:100F80008107FAD14FF0013202C88C1A8C4314EA5F
:100F9000C211F9D0C01A0A0603D0C01E10BDC01A73
:100FA00010BD0A0401D0801E10BD0902FCD0401EF5
:100FB00010BD032A40F2308010F0030C00F01580C1
:100FC00011F8013BBCF1020F624498BF11F801CB4C
:100FD00000F8013B38BF11F8013BA2F1040298BFB1
:100FE00000F801CB38BF00F8013B11F0030300F01B
:100FF0002580083AC0F0088051F8043B083A51F8BF
:1010000004CBA0E80810F5E7121D5CBF51F8043BC3
:1010100040F8043BAFF30080D20724BF11F8013B36
:1010200011F801CB48BF11F8012B24BF00F8013B98
:1010300000F801CB48BF00F8012B704710B5203AEB
:10104000C0F00B80B1E81850203AA0E81850B1E881
:101050001850A0E81850BFF4F5AF5FEA027C24BF37
:10106000B1E81850A0E8185044BF18C918C0BDE82E
:1010700010405FEA827C24BF51F8043B40F8043BF7
:1010800008BF7047D20728BF31F8023B48BF11F8AC
:10109000012B28BF20F8023B48BF00F8012B704706
:1010A00002F0FF0343EA032242EA024200F03CBBA3
:1010B0004FF0000200B5134694469646203922BFF1
:1010C000A0E80C50A0E80C50B1F12001BFF4F7AF3C
:1010D000090728BFA0E80C5048BF0CC05DF804EB1E
:1010E000890028BF40F8042B08BF704748BF20F88C
:1010F000022B11F0804F18BF00F8012B704770478A
:10110000704770470048704754A3002070477047ED
:101110007047704738B504460A4600206946AFF369
:101120000080002808BF38BD02460099204600F024
:1011300023FB012038BD012000F0C8BFF8B5AFF394
:101140000080054600200C46102000BF0646A81966
:10115000A0420DD9324669460020AFF30080070057
:1011600008BF00F0B3FF0098A04218BF0546C4199D
:10117000FFF7C8FF05600746F01D20F0070046197D
:10118000284600F00AF8B44208BFF8BDA21B314659
:101190003868BDE8F84000F0EFBA00210160C0E90E
:1011A000011070471020704710B500F0E1FA006898
:1011B00010BD10B5044600F0DBFA046010BD70B538
:1011C000044685690068C10601D5302600E0202666
:1011D000C00707D070BDD4E9012130469047206A8E
:1011E000401C20626D1EF6D570BD70B50446856941
:1011F0000078C00707D170BDD4E9012120209047B5
:10120000206A401C20626D1EF6D570BD09684A0533
:1012100001D540B27047C905FCD500B270470968D6
:101220004A0501D5C0B27047C905FCD580B27047E8
:1012300070B50C460546012A05D02878800600D5F1
:10124000EA69002302E0012305E05B1C934202D21D
:10125000E05C0028F9D1A869E618C01AA861286ADC
:10126000184428622846FFF7AAFF04E0D5E90121C7
:1012700014F8010B9047B442F8D32846FFF7B5FFA6
:1012800070BD00002DE9F041064600241068752964
:10129000314616A510D0FFF7B9FF002802DA404208
:1012A00013A507E031688A0701D512A502E04907B6
:1012B00004D511A5012401E0FFF7B1FF00210A22A6
:1012C00006F1240709E0B0FBF2FCB0FBF2F302FBED
:1012D0001C00303078541846491C0028F3D12346AE
:1012E0002A463046BDE8F04100F0BEBA00000000DA
:1012F0002D0000002B000000200000001168026893
:10130000006A530501D508700AE0D30501D50880AD
:1013100006E0130603D5C217C1E9000200E0086029
:101320000120704701694A1C02610878704700B5C6
:101330008FB0CDE901310021059105497944CDE90E
:1013400003101146684600F029F90FB000BD0000F7
:10135000E5FFFFFF0A6802F8010B0A607047000012
:101360002DE9FF5F15468A460446DFF8AC80F84455
:101370000027D8E900103E46CDE9001010E03AF809
:1013800016106A4602A800F081FE411C07D02178A1
:10139000890603D5E269391891420DD80744761CB5
:1013A0002078800602D5E069B84205DDAE42E6DB72
:1013B0003AF816000028E2D1A069C01BA0612046BF
:1013C000FFF7FDFED8E90010CDE90010002017E07E
:1013D0003AF818106A4602A800F058FEB0F1FF3F34
:1013E00081460BD000250DF1080B05E0D4E9012161
:1013F0001BF8050090476D1C4D45F7D308F101001F
:10140000B0428046E4DB206A384420622046FFF781
:10141000ECFEBDE8FF9F0000429A01002DE9F0417B
:101420008046D21D22F007020025D2E90002F529EC
:1014300015A614D0011E72F1000106DA0023D0EBCC
:10144000030063EB020211A608E0D8F800108B0736
:1014500001D50FA602E0490701D50EA601251146C8
:10146000002408F1240704E000F0A0F930323A55D6
:10147000641C50EA0102F7D12B4632462146404611
:10148000BDE8F04100F0F0B9000000002D000000C0
:101490002B0000002000000030B4002100F12404E3
:1014A00008E002F00705D208303542EA4372DB0853
:1014B0006554491C52EA0305F3D10468002310A2C5
:1014C000250707D5A40600D421B1C46901230DA2C4
:1014D000641EC46130BC00F0C7B910B50446214693
:1014E0001068FFF79CFE02462046BDE8104000232E
:1014F000D2E7D21D22F00701D1E90023CCE700009A
:101500000000000030000000F0B40D46018809051D
:1015100002D5214C7C4402E01F4C7C440E34002157
:1015200000F1240608E002F00F071209E75D42EA25
:1015300003721B097754491C52EA0307F3D102785E
:101540000023120704D5702D06D009B102231134EF
:101550002246F0BC00F088B901231034F8E770B5DA
:1015600004460D4621461068FFF759FE02462946FB
:101570002046BDE870400023C6E7D21D22F00703D5
:10158000D3E90023C0E70368126843F02003036037
:101590000823C3610023B7E7A49801002DE9F05F99
:1015A000894604464FF0000ADFF874B1FB44C0F8E6
:1015B00020A02046E1688847002874D0252806D05E
:1015C000D4E901219047206A401C2062F1E70026FF
:1015D0005F462046E16888472028054607DB312D15
:1015E00005D2781910F8200C08B10643F1E7B007CE
:1015F00001D526F00406C4F81CA00027C4F818A0E2
:101600002A2D09D0284612F091FA38B304EB870846
:10161000303DC8F8185019E059F8041B204604EB77
:1016200087029161E1688847012F054618D1E0697A
:10163000002820DA26F020061DE0D8F8180000EB7C
:10164000800005EB40003038C8F818002046E168FB
:101650008847054612F06AFA0028EED1012F0AD019
:101660002E2D08D12046E16888477F1C0546022FB1
:1016700046F02006C4DBA069002803DA404246F0A9
:101680000106A061F00701D026F010066C2D0BD0EA
:10169000682D09D04C2D39D06A2D35D0742D35D018
:1016A0007A2D33D016E038E0E1682F46204688478F
:1016B000B842054609D16C2F26D04FF48060E1680E
:1016C000064320468847054604E06C2F1AD04FF4A5
:1016D000807006430DB3A5F14100192802D82035CA
:1016E00046F400664A462946204626604E46FEF7E6
:1016F000A5FD80B101280BD0F61D26F0070000F1F2
:10170000080956E74020E4E78020D8E70020D6E724
:1017100006F104094DE7284652E7206ABDE8F09F2C
:10172000349801004FF000020429C0F0128010F03C
:10173000030C3FF4BFACCCF1040CBCF1020F18BF9A
:1017400000F8012BA8BF20F8022BA1EB0C01FFF73A
:10175000B1BC5FEAC17C24BF00F8012B00F8012B6B
:1017600048BF00F8012B7047004870474CA3002089
:10177000004870474CA30020034640688C46002870
:1017800018BF88423CBF03464068F8D31868184425
:10179000884207D00CF1030020F00700001D411A19
:1017A000521A0146081D0A60FFF733BB30B5B0F18D
:1017B0000A024FEA900E71F100034EEA817EB0EB0F
:1017C0000E0061EB91014FEA101E4EEA017E10EB14
:1017D0000E0041EB11114FEA102E4EEA016E10EB94
:1017E0000E0041EB11214FEA104E4EEA014E10EB74
:1017F0000E0041EB1141401841F100014FEAD000C9
:1018000040EA41704FEAD10110EB80054FEA8104B4
:1018100044EA907444EB01046D1944EB0404521B38
:10182000A3414FF0000348BF0A3200D530BD401C31
:1018300041F1000130BD00001FB584B000200A9CBA
:1018400006AB04AA02A90094AFF3008018B1DDE949
:10185000020108B010BD0348204000F031FD002017
:101860000146F6E70000207C2DE9F0470D46994639
:101870009246044600F124080168880604D5E06910
:1018800021F01001216000E00120A84201DD471B8A
:1018900000E00027A1697A1902EB0900081AA0618B
:1018A0002078C00602D42046FFF789FC002608E015
:1018B000D4E901211AF806009047206A401C761CE2
:1018C00020624E45F4DB2078C0060AD52046FFF79B
:1018D00076FC06E0D4E9012130209047206A401CC4
:1018E0002062381EA7F10107F4DC07E0D4E90121EA
:1018F00018F805009047206A401C2062281EA5F1B8
:101900000105F3DC2046FFF770FC2078000602D5C5
:101910000220BDE8F0870120FBE770472DE9FF4F6B
:101920000C461E464FF0FF378BB0D2E90001DDF8C0
:1019300060800A908A46C1F30A5505B93D460021E8
:10194000084618F085FABAF1000F00F4400005DAF5
:1019500000EB80004FF4400101EA50004FEA90593B
:10196000B9F1010F00DDB9460A9850EA4A000ED0DD
:1019700044F61050A5F2FF3545432F14B8F1000F7F
:101980001ED07542291E1EDDC9F100021CE0B8F10F
:10199000010F4FF0000001D0302103E0F24305E0D9
:1019A0002154401CB042FBDB304600220021215470
:1019B0000B99C1F80880C1E900200FB0BDE8F08F95
:1019C000BD1B6D1CDEE74A4600DA694206A800F03E
:1019D000F7FB06AB93E8070003AB83E8070050462C
:1019E0000A9900F05AFD8DE80700A0F500501F3855
:1019F00000900398002D0ADD42F21F014A46084478
:101A0000002303A90390684600F0C3FF09E0A0F596
:101A100000504A461F38002303A90390684600F08F
:101A2000CDFF8DE807000004000C03D04FF0FF301D
:101A3000410800E01046B8F1000F03D000220092E8
:101A400015461EE0751E05D4FFF7B0FE3032625514
:101A50006D1EF9D5B3460122084302D000227F1C37
:101A600004E02078302801D100227F1E002A099747
:101A700084D01DE0112D07DAFFF798FE3032625551
:101A80006D1C50EA0102F5D1084302D00098C8B19C
:101A90000EE00021681E05E0235C625C6354225462
:101AA000401E491C8142F7DBAB46A81B401E099033
:101AB000002004F80B000B98099AC0F80880C0E9D0
:101AC000002B7AE711264FF0000857E72DE9F04F79
:101AD00088460446D21D22F0070191B0D1E90001E9
:101AE000CDE90A0111F0BEFD02460B98C00F01D0EE
:101AF0002D2007E02068810701D52B2002E020215E
:101B000001EAC000032A099001D0072A05DB034639
:101B10004146204600F014FB0BE12078800601D5F9
:101B2000E06900E00620B8F1650F814606D0B8F103
:101B3000660F18D0B8F1670F70D131E00020B9F10D
:101B4000110F009001DB112301E009F101030AAA42
:101B500001A90CA8FFF7E2FEDDE90C70002609F1EF
:101B60000105834647E001204B4600904FF00047B7
:101B70000AAA01A90CA8FFF7D1FEDDE90DB00C9966
:101B80005D46002610B909F101000D18B9EB0500FA
:101B900003D4C0F1FF3609F10105A5EB09002BE0E4
:101BA000B9F1010F01DA4FF001090020B9F1110F6D
:101BB0000090484601DD112300E003460AAA01A96E
:101BC0000CA8FFF7ABFEDDE90C704D4600268346FE
:101BD000207800070AD4AB4500DA5D4601A8012D44
:101BE00004DD411911F8011C302907D04F4502DAF4
:101BF00017F1040F04DA012082460FE06D1EEEE7B4
:101C0000002F02DCED1B3E4403E0781CA84200DDFF
:101C10007D1CB81B00F1010A4FF000472078000737
:101C200003D4AA4501DB4FF0FF3A0021B7F1004F82
:101C30000DF143088DF8431024D002202B23002FF0
:101C400001DA7F422D230A21021EA0F1010000DCEF
:101C50005FB197FBF1FC97FBF1F201FB1C7C17468F
:101C60000CF1300C08F801CDEEE7A8F1010003708B
:101C70002188090501D5452100E06521A0F1010871
:101C800000F8011C09980FA9A1EB0807FF1D00B17E
:101C90000120411901EBEA70A1693844081A401E7D
:101CA000A0612078C00602D42046FFF788FA099880
:101CB00028B1D4E901219047206A401C2062207895
:101CC000C00622D52046FFF77AFA1EE0002E04DB7C
:101CD000B34502DD01A8805D00E03020D4E9012198
:101CE0009047206A401C2062761CAAF101005FEA3E
:101CF000000A0AD100F020FAC0680168405CD4E90B
:101D000001219047206A401C2062281EA5F1010590
:101D1000DCDC07E0D4E9012118F8010B9047206AC8
:101D2000401C2062381EA7F10107F3DC2046FFF7B4
:101D30005CFA032011B041E62DE9F04F04460D4650
:101D4000D21D22F0070089B0D0E9009748463946F5
:101D500011F088FC0246F80F01D02D2307E020681F
:101D6000810701D52B2302E0202101EAC0038DF871
:101D700020300BB1012000E00020032A824601D070
:101D8000072A04DB2946204600F0DAF93FE12078F3
:101D9000800601D40D2500E0E569C7F30A560D2D34
:101DA00049DA00214FEA175B084618F051F8002F76
:101DB00000F4400007DA00EB80004FF4400100EB34
:101DC000D07001EA60008115012901DD4FF0FF317B
:101DD00000224FEA850CBCF1180F06D31346ACF174
:101DE00018004FF08052C24003E04FF4801323FAF2
:101DF0000CF30CF10C0CBCF1200F04D3ACF1200C53
:101E000009FA0CF001E007FA0CF000294FF0004845
:101E100001DD18B90FE00ED140450CD319EB0209D2
:101E20005F4121B9404502D19F4329EA0209BBEB3A
:101E3000175F00D0761C2088000502D57B487844C7
:101E400002E07A487844193808AA302302F80A30A8
:101E5000037C0AF10101002E0AF1020A53546A467A
:101E600002DC4FF0300101E04FF031014FF001088A
:101E70008DF8001002D0A6F2FF3603E059EA4701C0
:101E800000D06B4E002D02DC2178090704D54FF0FD
:101E900002082E218DF80110C44600210BE0C7F383
:101EA00003433F01C35C491C6D1E02F8083005293D
:101EB00008F1010801DA002DF1DC00210CE000EB53
:101EC0001973491C1B786D1E082902F808304FEA67
:101ED000091908F1010801DA002DF0DC21688B06F0
:101EE00002D516E0A8F10108E04505DD02EB080384
:101EF00013F8013C302BF5D0B8F1000F09DD02EBEF
:101F0000080313F8013C2E2B03D1090701D4A8F1D3
:101F10000108002D05DD3E2102F808106D1E08F1B4
:101F20000108407C002E02F8080008F1010804DADC
:101F30002D20764202F8080002E02B2002F808006B
:101F40000A214FF47A70864208F101080BDB96FBF8
:101F5000F0F3303302F8083096FBF0F308F1010893
:101F600000FB136601E0642E0CDB642096FBF0F3AB
:101F7000303302F8083096FBF0F308F1010800FB5B
:101F8000136601E00A2E06DB96FBF1F0303002F812
:101F9000080008F1010896FBF1F001FB10603030F9
:101FA00002F80800A16908F1010808EB050202EB3C
:101FB0000A00081AA0612078C00602D42046FFF764
:101FC000FEF8216A08AE01EB0A00206204E0D4E9C1
:101FD000012116F8010B9047BAF1010AF7D22078D7
:101FE000C00602D52046FFF7EAF86E4609E016F86B
:101FF000010B3E280FD0D4E901219047206A401CF4
:102000002062B8F10108F2D22046FFF7EEF809B0DD
:102010000320BDE8F08F206A2844206203E0D4E961
:102020000121302090476D1EEBD3F8E7C68F0100E9
:1020300002FCFFFF10B5436913B1AFF3008001E06C
:10204000FFF7F6F8012010BD127800F124010A70A4
:1020500000224A700122EDE711684FF0FF32E9E7F4
:1020600010B5436913B1AFF3008001E0FFF778F9D1
:10207000012010BD128800F1240182840022C28454
:102080000122EDE711684FF0FF32E9E770B516461F
:102090000C46054600F048F8036893F80101012852
:1020A00006D0FF2C0FD8185D68B101202C7070BDD0
:1020B000D3F807013246214603F2071303442846AA
:1020C000BDE8704018474FF0FF3070BD10B500F00C
:1020D000FFF8BDE8104000F0EEB870477546FFF716
:1020E00043FBAE4605006946534620F0070085468F
:1020F00018B020B5FEF780F9BDE820404FF000068B
:102100004FF000074FF000084FF0000B21F00701DF
:10211000AC46ACE8C009ACE8C009ACE8C009ACE822
:10212000C0098D467047000010B500F005F8001D8D
:1021300010BD00BF21640100004870476CA300205F
:102140002DE9F0411F46044603260168072A01F4E1
:10215000006004DB08B116A505E016A503E008B190
:1021600015A500E015A521F010002060A069C01E93
:10217000A0610FB1401EA0612046FFF720F84FB1CB
:10218000D4E9012138469047206A401C2062C01CD7
:10219000206206E0206AFAE7D4E9012115F8010B74
:1021A0009047761EF8D22046FFF71FF8BDE8F08171
:1021B0004E414E006E616E00494E4600696E6600EB
:1021C0002DE9F047814616468AB0354878440DC857
:1021D0008DE80D0032487844801C03AC0DC884E8BB
:1021E0000D0041F69B300844372190FBF1F290FB43
:1021F000F1F5A5F1800501FB12041B3C02D56442F8
:10220000012000E00020DFF898A080460027FA4473
:10221000AAF1BE0A0EE0E0070AD03246684607EB94
:10222000470101230AEB810100F0C8FB8DE807009C
:1022300064107F1C002CEED1194F7F44AE3F19E093
:10224000E80715D007EB04100DF1180A90E80E000E
:102250008AE80E00C068F04201D198190890324611
:10226000012306A903A800F0A9FB03AB83E807003C
:102270006D10641C002DE3D14FF001033246694616
:10228000B8F1000F03A802D000F083FB01E000F0DA
:1022900095FBC9E90001C9F808200AB0BDE8F0873C
:1022A000C88C010010B50446AFF300802046BDE89D
:1022B0001040FEF72CB8002801D000F031B870476C
:1022C00010B500F04DF8BDE81040FFF7F4BF000076
:1022D00010B5012805D0002103A000F027F8012047
:1022E00010BD09A1F8E7000053494752544D454D30
:1022F0003A204F7574206F662068656170206D65A7
:102300006D6F7279000000003A2048656170206DA1
:10231000656D6F727920636F727275707465640099
:1023200001491820ABBEFEE72600020070B5054645
:102330000C460A2000E06D1C00F0A8F835B12878A2
:102340000028F8D102E0641C00F0A0F814B1207855
:102350000028F8D1BDE870400A2000F097B80000CE
:1023600010B5022803D0410103D50DA112E00020D1
:1023700010BD010101D50FA10CE0C10001D511A1D3
:1023800008E0810001D512A104E0400001D513A1AD
:1023900000E0002115A0FFF7C9FF012010BD0000DB
:1023A000496E76616C6964204F7065726174696F03
:1023B0006E000000446976696465204279205A65A0
:1023C000726F00004F766572666C6F7700000000D8
:1023D000556E646572666C6F77000000496E6578B3
:1023E00061637420526573756C74000053494746ED
:1023F00050453A2041726974686D6574696320655F
:102400007863657074696F6E3A2000004FF0013C8C
:1024100050F8042B51F8043B9A4221D1A2EB0C0353
:10242000934313EACC1317D150F8042B51F8043B13
:102430009A4215D1A2EB0C03934313EACC130BD1B0
:1024400050F8042B51F8043B9A4209D1A2EB0C033B
:10245000934313EACC13DBD04FF00000704700BF6A
:10246000D01A01BAB1FA81F101F0180122FA01F093
:10247000CB40C1F12001DBB2C0B2C01A2CFA01F38B
:10248000D11A914311EAC311E6D1704708B56946E4
:102490008DF800000320ABBE08BD5FEA400C08BF0A
:1024A00091F0000F4FEA8C234FEAC12243EA5151C9
:1024B0004FEA1C5018BF00F5F0404FEA300018BF3B
:1024C00041F000415FEA6C5C00F02980BCF1FF3F05
:1024D00008BF40F080407047130C06BF12044FF055
:1024E000100C4FF0000C130E04BF12020CF1080C7C
:1024F000130F04BF12010CF1040C930F04BF9200E0
:102500000CF1020CD30F04BF52000CF1010C114668
:102510004FF00002A0F11F00A0EB0C00704711F07B
:10252000004F08BF704731F000413FF4D5AF0B0CAE
:1025300006BF09044FF0100C4FF0000C0B0E04BF47
:1025400009020CF1080C0B0F04BF09010CF1040C7B
:102550008B0F04BF89000CF1020CCB0F04BF4900A4
:102560000CF1010CCCF12003A0EB0C0022FA03F3D8
:1025700002FA0CF241EA030100F10100704720F079
:102580007F4C80EA030023F07F47ACEB070303F5A1
:102590007C5300F0004003F1FF032DE980494FEA2E
:1025A000154B09B44FEA144325EA0B4E24EA0348BD
:1025B0000FF2042606EB132749083E785FEA320241
:1025C00003FB0667C7F5000707FB06F64FEA54371B
:1025D0004FEAD64606F1020607FB066CCCF1005C1A
:1025E0004FEA1C472CEA074C07FB06F40CFB06F5E8
:1025F00004EB15464FEA961634BF00204FF000401A
:102600004FEAD13706FB07FC4FEA1C4C0CFB0BF7DB
:10261000D21B03FB0CF761EB07010CFB0EF7B0EBD1
:10262000074072EB17420CFB08F734BFA2EB0742DE
:10263000B2EB074261EB17414FEA0C444FEA9107B6
:1026400006FB07FC4FEA1C4C0CFB0BF7B0EBC7403A
:1026500072EB573203FB0CF734BFA2EBC742B2EB6D
:10266000C74261EB57310CFB0EF7B0EBC70072EBC2
:1026700057720CFB08F734BFA2EBC702B2EBC702DC
:1026800061EB5771039F4FEA816141EA921104EBBC
:10269000CC044FEAD1374FEA826206FB07FC42EADC
:1026A00090124FEA80604FEA1C4C0CFB0BF7D21BD8
:1026B00003FB0CF761EB07010CFB0EF7B0EB0740D7
:1026C00072EB17420CFB08F734BFA2EB0742B2EBE8
:1026D000074261EB17414FEA8C554FEA910704EB33
:1026E0009C2406FB07FC4FEA1C4C0CFB0BF7B0EBE1
:1026F000C74072EB573203FB0CF734BFA2EBC74263
:10270000B2EBC74261EB57310CFB0EF7B0EBC700E1
:1027100072EB57720CFB08F734BFA2EBC702B2EBA7
:10272000C70261EB577115EB4C254FEA816141EA15
:1027300092114FEA82624FEAD13742EA901206FBC9
:1027400007FC44F100044FEA80604FEA1C4C0CFB8C
:102750000BF7D21B03FB0CF761EB07010CFB0EF729
:10276000B0EB074072EB17420CFB08F734BFA2EB4B
:102770000742B2EB074261EB174115EB1C154FEA1C
:10278000813141EA92414FEA823242EA90424FEA75
:1027900080304FEA0C7644F1000448EA03434EEAE5
:1027A0000B484FF0000EB2EB080C71EB030724BF8F
:1027B000624639464EEB0E0E4FF0000B00185241A8
:1027C00049414BEB0B0BB2EB080C71EB03077BF1B0
:1027D000000B24BF624639464EEB0E0E4FF0000B45
:1027E0000018524149414BEB0B0BB2EB080C71EB5B
:1027F00003077BF1000B24BF624639464EEB0E0EF9
:1028000051EA020718BF46F0010616EB0E7655F1A5
:10281000000254F1000103D5BDE88901BDE800883C
:10282000BDE88901BDE80048B619524141EB0101FC
:10283000A3F10103704780807F7E7D7C7B7A79786D
:10284000777676757473727171706F6E6E6D6C6C75
:102850006B6A6A6968686766666564646363626117
:102860006160605F5F5E5E5D5D5C5C5B5B5A5A5998
:102870005958585757565655555554545353525204
:102880005251515050504F4F4F4E4E4D4D4D4C4C5C
:102890004C4B4B4B4A4A4A494949484848474747A5
:1028A00047464646454545444444444343434342E2
:1028B000424242414141002B9C4630D477002BD00C
:1028C0001CB54FEA370703B44FF010004FF010016A
:1028D000BAF1000F06D0BCF1000FDCBF40F00800D9
:1028E00040F0080117F0B4FA0FBCBDE810400BF13E
:1028F000010BBBF1010F08BF5FEA170722BF12F1FE
:10290000010211F101014FF0004143F1000300F019
:10291000004043EA00007047F9D35708D0E746EA81
:10292000064613F1400F4FEA16461FDD13F1200F44
:10293000DFBF16430A46002120335B42BED0C3F1FD
:10294000200746EA064602FA07F74FEA164646EA25
:102950000706C3F1200722FA03F201FA07F721FA6A
:1029600003F14FF0000342EA0702A7E746EA020636
:1029700046EA06464FEA164646EA0106BCBF46EA64
:102980000646360C4FF000034FF000024FF00001F6
:1029900094E72DE9804C9A46934670B491E838004C
:1029A00007C831EA400C48BF34EA430C03D5FFF7AF
:1029B000E6FDFFF780FFF0BCBDE8008C2DE9804C00
:1029C0009A46934670B491E8380007C810F0804FDB
:1029D00008BF13F0804F03D100F005F8FFF76BFF3D
:1029E000F0BCBDE8008C20F07F4780EA030023F0B4
:1029F0007F4C07EB0C03A3F57C5300F00040A3F1E0
:102A0000FE0392F0000F00F0B38095F0000F00F08D
:102A100077802DE901494FEA11404FEA144621EA37
:102A2000004800FB06FC24EA064708FB06F607FB05
:102A300008F800FB07F718EB06484CEB164C4FEA7A
:102A4000124B18EB07484FEA15464CEB174022EAA9
:102A50000B4E0BFB06FC25EA06470EFB06F607FBB2
:102A60000EFE0BFB07F71EEB064E4CEB164C4FF021
:102A700000061EEB074E4CEB174B18EB0B0840F112
:102A8000000018EB0E0B58EB000840F100008F1A05
:102A90004FF000013CBFC943661B14BFB5EB040CEB
:102AA00000213CBFC943F61B4FEA17444EEA8E0E85
:102AB00027EA04454FEA1C4704FB07622CEA074C4F
:102AC00005FB07F70CFB05F604FB0CFC16EB0746B1
:102AD00042EB174216EB0C4642EB1C421BEB060680
:102AE00058EB0202414146EA9E0601D5BDE8018944
:102AF000B619524141EB0101A3F10103BDE801897F
:102B00004FEA14454FEA114724EA054621EA074CEB
:102B100005FB07F406FB07F70CFB06F105FB0CFCB5
:102B200011EB074144EB17444FEA124711EB0C41FC
:102B300044EB1C4422EA074C05FB07F206FB07F7AF
:102B40000CFB06F605FB0CFC16EB074642EB1742A6
:102B500016EB0C4642EB1C456A1854F1000148BFC5
:102B60007047B619524141EB0101A3F101037047CF
:102B700095F0000F37D04FEA11424FEA144721EA8F
:102B8000024624EA074C02FB07F106FB07F70CFBA1
:102B900006F402FB0CFC14EB074441EB17414FEA2F
:102BA000154714EB0C4441EB1C4125EA074C02FB92
:102BB00007F506FB07F70CFB06F602FB0CFC16EB11
:102BC000074645EB174516EB0C4645EB1C42121920
:102BD00051F1000148BF7047B619524141EB010164
:102BE000A3F1010370474FEA14454FEA114724EA65
:102BF000054621EA074C05FB07F106FB07F70CFB2E
:102C000006F24FF0000605FB0CFC12EB074241EB0D
:102C1000174112EB0C4251EB1C4148BF7047921810
:102C200041EB0101A3F101037047000055494A68D7
:102C300022F440324A604A6843681A434A60026894
:102C4000526822F4807203685A600268536802690D
:102C500043EA022203685A600268526822F0407216
:102C600003685A600268526883681A4303685A60AE
:102C70000268926822F4006203689A6002689268AF
:102C8000C3681A4303689A603F4B826A9A4218D01D
:102C90000268926822F0706203689A600268926823
:102CA000836A1A4303689A600268926822F040526D
:102CB00003689A6002689268C36A1A4303689A605C
:102CC0000BE00268926822F0706203689A60026802
:102CD000926822F0405203689A600268926822F07B
:102CE000020203689A6002689368027E43EA420225
:102CF00003689A602022125CA2B10268526842F412
:102D0000006203685A600268526822F460420368F5
:102D10005A6002685368426A521E43EA42320368AC
:102D20005A6005E00268526822F4006203685A6043
:102D30000268D26A22F470020368DA620268D36A17
:102D4000828B521E43EA02520368DA62026892687A
:102D500022F4007203689A600268936890F8302049
:102D600043EA422203689A600268926822F4806211
:102D700003689A6002689368426943EA82220368A2
:102D80009A607047002301400100000FB7EE000A6F
:102D900080ED000A9FED060A80ED010A9FED040A0E
:102DA00080ED020A9FED020A80ED030A70470000E1
:102DB000000000002DE9F0412DED028B0746B0EE3A
:102DC000408A0C4615461E46D6ED024AB0EE644ACD
:102DD000D6ED014AF0EE643AD6ED004AB0EE643A20
:102DE000D5ED024AF0EE642AD5ED014AB0EE642A30
:102DF000D5ED004AF0EE641AD4ED024AB0EE641A42
:102E0000D4ED014AF0EE640AD4ED004AB0EE640A53
:102E1000384608F00BFABDEC028BBDE8F081D0ED2E
:102E2000000AF4EEC00AF1EE10FA02DD80ED000AAD
:102E30000CE0D0ED000AB1EE401AF4EEC10AF1EE5A
:102E400010FA03D2F1EE400AC0ED000A704700000C
:102E500010B501221021024803F088FC10BD0000CB
:102E60000000024010B500221021024803F07EFC51
:102E700010BD0000000002407047000010B50122A4
:102E80001146024803F072FC10BD0000000402402D
:102E900010B500220121024803F068FC10BD0000BB
:102EA0000004024010B543781B021BB20478234390
:102EB00000EE103AB8EEC01A1C4BD3ED001A21EE0A
:102EC000211A81ED001AC3781B021BB284782343B8
:102ED00000EE103AB8EEC01A144BD3ED001A21EEF2
:102EE000211A81ED011A43791B021BB20479234395
:102EF00000EE103AB8EEC01A0C4BD3ED001A21EEDA
:102F0000211A81ED021A037A1B04C47943EA0423CF
:102F10008479234300EE903AB8EE601ADFED041A8C
:102F200021EE211A82ED001A10BD000020050020BC
:102F300000401C42704710B50446204612F018FCB1
:102F400010BD10B50446204611F0DAFB10BD00009C
:102F50004278120212B203781A4300EE102AF8EEF9
:102F6000C00A144A92ED001A60EE810AC1ED000A0F
:102F7000C278120212B283781A4300EE102AF8EED9
:102F8000C00A0C4A92ED001A60EE810AC1ED010AF6
:102F90004279120212B203791A4300EE102AF8EEB7
:102FA000C00A044A92ED001A60EE810AC1ED020ADD
:102FB000704700002405002010B50024FFF75CFFD7
:102FC000FFF7B8FF10F0A6FE10B144F0800402E055
:102FD00010F006FE044311F095F810B144F04004DF
:102FE00002E011F015F80443204610BD2DE9FC4124
:102FF00005460E461746002000900190FFF732FF6D
:10300000922000F0D1F806226946122000F0ACF8B8
:10301000FFF71EFF9DF80100000200B29DF80010AE
:1030200040EA010400EE104AB8EEC00A4C48D0ED68
:10303000000A20EE200A86ED000A9DF80300000237
:1030400000B29DF8021040EA010400EE104AB8EE0A
:10305000C00A4348D0ED000A20EE200A86ED010A9E
:103060009DF80500000200B29DF8041040EA01043A
:1030700000EE104AB8EEC00A3948D0ED000A20EE42
:10308000200A86ED020AFFF703FF082269460020A6
:1030900000F06AF8FFF7F2FE9DF800000F2838D123
:1030A0009DF80300000200B29DF8021040EA0104FE
:1030B00000EE104AB8EEC00A2A48D0ED000A20EE11
:1030C000200A85ED000A9DF80500000200B29DF877
:1030D000041040EA010400EE104AB8EEC00A21488C
:1030E000D0ED000A20EE200A85ED010A9DF80700C8
:1030F000000200B29DF8061040EA010400EE104AFA
:10310000B8EEC00A1748D0ED000A20EE200A85ED7F
:10311000020AFFF7A7FEA22000F046F80222694645
:10312000222000F021F8FFF793FE9DF80000C00078
:103130009DF8011040EA6114B4F5806F02DBA4F53C
:10314000006004B200EE104AF8EEC00AB4EE001AB5
:10315000B3EE070A00EE810A87ED000ABDE8FC81A4
:10316000200500202405002070B506460C461546B3
:1031700046F0800000F018F806E0552000F014F842
:103180002070641C681EC5B2002DF6D170BD70B5EC
:1031900004460D4644F0800000F006F8552000F08B
:1031A00003F8287070BD000001B582B04FF47A704A
:1031B000012301AA02A90090024805F008FB9DF82E
:1031C00004000EBDF020002010B502461378DB008D
:1031D000547843EA6410B0F5806F02DBA0F5006319
:1031E00018B200EE100AF8EEC00AB4EE001AB3EE00
:1031F000070A00EE810A81ED000A10BD70B5054690
:103200000C462846FFF7D0FF2046FFF7CDFF70BDE4
:1032100000BFFEE710B50821054805F081FF00203A
:1032200004490870488008728880C88010BD00007A
:10323000A0220020203F00204748007820B101282C
:1032400009D0022848D13FE00020434948808880C7
:103250000872C88079E040488088401C3E498880D8
:103260000846C088012801D1002008703A498988A1
:103270004FF4967291FBF2F000EBD0714910A0EB85
:10328000410139B93449097A21B987203249488046
:1032900001200872304989884FF4967291FBF2F050
:1032A00000EBD0714910A0EB410101290BD12A4953
:1032B000097A012907D10020274948800872084669
:1032C000C088401CC88040E001202349488000207D
:1032D00088800872C88038E01F488088401C1E49DA
:1032E00088800846C088032801D1002008701A4948
:1032F00089884FF4967291FBF2F000EBD07149107F
:10330000A0EB410139B91449097A21B98720124942
:10331000488001200872104989884FF4967291FB09
:10332000F2F000EBD0714910A0EB410101290BD163
:103330000949097A012907D1002007494880087204
:103340000846C088401CC88000BF00BF02484088B3
:1033500002490968C8637047203F0020A02200206E
:1033600010B500F00FF8064802F05FFD0448006851
:10337000406940F0020002490968486110BD000040
:103380004C20002000B58BB000200A9006900790DA
:103390000120089000200190029003900490059075
:1033A0000120099001A9024802F006F90BB000BD06
:1033B0004C2000208EB000BF4FF0FF3205A93448EA
:1033C000006814F05DFC0446012CF5D10598B0F5B9
:1033D000017F08D1142209A96846FDF72FFE05A830
:1033E0000FC807F0B7F840F203210598884208D1CA
:1033F000142209A96846FDF721FE05A80FC807F0A9
:10340000A9F840F202210598884208D1142209A99E
:103410006846FDF713FE05A80FC806F0FDFF40F251
:1034200005210598884208D1142209A96846FDF7AC
:1034300005FE05A80FC801F0F3FC40F2062105982F
:10344000884208D1142209A96846FDF7F7FD05A8AE
:103450000FC801F01BFC40F207210598884208D1F3
:10346000142209A96846FDF7E9FD05A80FC801F077
:10347000D7FC0598B0F5027F9ED1142209A96846B1
:10348000FDF7DCFD05A80FC801F000FC94E7000083
:103490009404002010B504480068401C02490860EC
:1034A000024802F0D9F910BDA40300204C200020EE
:1034B00010B500F011F8074802F0B7FC08B100BFE2
:1034C000FEE704480068406940F0020001490968CD
:1034D000486110BD7420002000B58BB00E200A900A
:1034E0000690002007900120089000200190029093
:1034F0000390049005900120099001A9024802F070
:103500005BF80BB000BD00007420002010B504482B
:103510000068401C02490860024802F09DF910BD95
:10352000AC030020742000202DE9F84381460E46AC
:1035300015461F4600201549C86008468660806809
:1035400010B90846056005E010488068042801D1DC
:103550000E48456008200D4908610020087508469E
:10356000D0F81080002405E0395D08481830015576
:10357000601CC4B24445F7D36B46044A1832034971
:10358000484601F06DFFBDE8F8830000003F0020D1
:103590000346042B15D007DC7BB1012B0ED0022B88
:1035A0000DD0032B12D10BE0202B0BD0212B0AD0F6
:1035B000222B09D0232B09D107E008E007E006E021
:1035C00005E004E003E002E001E000E000BF00BF2E
:1035D000002070470020704710B5002204490548BC
:1035E0000DF04AF9044903480DF03FF9002010BDE1
:1035F00078360020A0250020782E002070B50446E3
:103600000D46214603480DF030F902480DF008F947
:10361000002070BDA025002010B503460C460021F7
:10362000084610BDF0EE400A0268521C026090EDA0
:10363000021A00EE101AB8EE400AB4EE401AF1EE8B
:1036400010FA19D090ED010A30EEC01AD0ED021A2E
:1036500000EE101AB8EE400A30EE610AC1EE001A10
:10366000C0ED031AC0ED010A00EE101AB8EE400AD0
:1036700080ED020A002202600268C82A03DD9FED85
:10368000030A80ED030A90ED030A70470000000072
:10369000F0EE400A0268521C026090ED021A00EE41
:1036A000101AB8EE400AB4EE401AF1EE10FA1DD02E
:1036B00090ED010A30EEC01AD0ED021A00EE101A99
:1036C000B8EE400A70EE611A81EE210AB0EE001ADF
:1036D00020EE010A80ED030AC0ED010A00EE101A87
:1036E000B8EE400A80ED020A002202600268C82A91
:1036F00003DD9FED030A80ED030A90ED030A704796
:10370000000000008EB0002400BF4FF0FF3205A97A
:10371000A948006814F0B4FA0546012DF5D1A74870
:103720000068401CA5490860A5480068401CA449E1
:1037300008600598962808D1142209A96846FDF763
:103740007DFC05A80FC806F05FFA0598B0F5A27FCA
:103750004ED19C480068401C9A490860002404E04F
:103760000CA8005D98490855641C082CF8DB9648A5
:103770000078012803D09448C079012802D10120A3
:10378000924908709048007828B98F48C07910B9DC
:1037900000208E4908708C480078012802D18C499D
:1037A000087002E000208A4908708748C079012823
:1037B00002D18849087002E00020864908708248DA
:1037C000C078012803D080480079012802D1012067
:1037D000814908707C48C07810B17B48007910B9E5
:1037E00000207D4908707D49A1F1080001F0BAFB75
:1037F0000598B0F5A17F08D1002404E00CA8005D75
:1038000077490855641C082CF8DB40F243110598F1
:1038100088420FD1002406E00CA8015D704A04F133
:1038200008001154641C082CF6DB6E480068401C2C
:103830006C4908600598B0F59B7F0DD1002404E029
:103840000CA8005D68490855641C082CF8DB674823
:103850000068401C6549086040F2371105988842AD
:1038600007D19DF830006249087008464078401C36
:1038700048700598B0F59C7F0DD1002404E00CA899
:10388000005D5C490855641C082CF8DB5A48006848
:10389000401C5949086040F23911059888420FD1FF
:1038A000002406E00CA8015D524A04F108001154FE
:1038B000641C082CF6DB51480068401C4F49086026
:1038C0000598B0F5A07F0FD1002406E00CA8015D9B
:1038D000484A04F110001154641C082CF6DB4848D7
:1038E0000068401C4649086040F241110598884232
:1038F00014D1002406E00CA8015D3E4A04F1180032
:103900001154641C082CF6DB3E480068401C3D49FD
:1039100008603D480068401C3B49086040F2351192
:10392000059888420DD1002404E00CA8005D3749B9
:103930000855641C082CF8DB35480068401C3449E5
:1039400008600598B0F59A7F0FD1002406E00CA816
:10395000015D2E4A04F108001154641C082CF6DBAA
:103960002C480068401C2B49086040F23311059830
:10397000884212D1002406E00CA8015D234A04F11C
:1039800010001154641C082CF6DB23480068401C0E
:103990002149086001202149087020480078012849
:1039A0007FF4B3AE1E48D0F819101848884700209D
:1039B0001A490870A9E60000980400206404002059
:1039C000A8030020E40300207202002075040020F8
:1039D000780400207704002074040020E40C002008
:1039E0009C130020E003002068020020C403002094
:1039F0007002002080130020CC030020D0030020A0
:103A0000D4030020D8030020DC030020AD130020E5
:103A1000E8030020EC030020F0030020F80300205E
:103A20008202002010B50246002004E012F8013B9B
:103A30004340044CE05C0B1EA1F10104A1B2F5D19E
:103A400010BD0000A89F010810B5B7EE000A164887
:103A500080ED0B0A154B022211461548FCF762FD5A
:103A6000144B022211461448FCF75CFD0021134858
:103A7000C0F898109FED120AD0F89C0080ED100A53
:103A80009FED0F0A0D48D0F89C0080ED140A0D48F8
:103A900090ED070A0C4880ED010A0A4890ED030AF0
:103AA000094880ED000A10BDA0120020E8000020A7
:103AB000A8110020CC01002040120020E80C0020BA
:103AC0000000000070400020880D002010B5024862
:103AD00002F0F6F910BD0000E024002010B5024805
:103AE00002F0EEF910BD00004025002010B5FE48A0
:103AF000C06C0068FD49884276D9FC48543800689B
:103B0000F949C96C0968FA4A914201D1202169E05A
:103B1000F549C96C0968F54A483A914201D120211A
:103B200060E0F149C96C0968F14A6032914201D103
:103B3000202157E0EC49C96C0968EC4A18329142DF
:103B400001D120214EE0E849C96C0968E84A1832E1
:103B5000914201D1C91445E0E349C96C0968E34ABF
:103B6000303A914201D1C9143CE0DF49C96C09687F
:103B7000DF4A7832914201D1C91433E0DA49C96C85
:103B80000968DA4A3032914201D1C9142AE0D64993
:103B9000C96C0968D64A3032914202D14FF4001103
:103BA00020E0D149C96C0968D04A183A914202D143
:103BB0004FF4001116E0CC49C96C0968CC4A903228
:103BC000914202D14FF400110CE0C749C96C096859
:103BD000C64A4832914203D14FF4001102E003E09B
:103BE0004FF00061084070E1BF48C06C0068C049F8
:103BF000A831884276D9BD4858380068BA49C96C9E
:103C00000968BB4A914201D1202169E0B649C96CDB
:103C10000968B64A483A914201D1202160E0B24990
:103C2000C96C0968B24A6032914201D1202157E043
:103C3000AD49C96C0968AD4A1832914201D12021C1
:103C40004EE0A949C96C0968A94A1832914201D1CC
:103C5000C91445E0A449C96C0968A44A303A9142A4
:103C600001D1C9143CE0A049C96C0968A04A783266
:103C7000914201D1C91433E09B49C96C09689B4A40
:103C80003032914201D1C9142AE09749C96C0968C0
:103C9000974A3032914202D14FF4001120E092490C
:103CA000C96C0968914A183A914202D14FF4001147
:103CB00016E08D49C96C09688D4A9032914202D153
:103CC0004FF400110CE08849C96C0968874A4832F2
:103CD000914203D14FF4001102E003E04FF0006184
:103CE0000840F2E08048C06C006881494831884251
:103CF00076D97F48103840687B49C96C09687C4A8E
:103D0000914201D1202169E07749C96C0968774A5D
:103D1000483A914201D1202160E07349C96C096899
:103D2000734A6032914201D1202157E06E49C96C3B
:103D300009686E4A1832914201D120214EE06A4949
:103D4000C96C09686A4A1832914201D1C91445E028
:103D50006549C96C0968654A303A914201D1C91474
:103D60003CE06149C96C0968614A7832914201D1ED
:103D7000C91433E05C49C96C09685C4A303291422D
:103D800001D1C9142AE05849C96C0968584A30322F
:103D9000914202D14FF4001120E05349C96C0968E7
:103DA000524A183A914202D14FF4001116E04E499E
:103DB000C96C09684E4A9032914202D14FF4001109
:103DC0000CE04949C96C0968484A4832914203D11C
:103DD0004FF4001102E003E04FF00061084074E08E
:103DE0004348103800684049C96C0968404A91420C
:103DF00001D1202168E03C49C96C09683B4A483A36
:103E0000914201D120215FE03749C96C0968384AE5
:103E10006032914201D1202156E03349C96C0968D2
:103E2000324A1832914201D120214DE02E49C96C0D
:103E300009682F4A1832914201D1C91444E02A4935
:103E4000C96C0968294A303A914201D1C9143BE052
:103E50002549C96C0968264A7832914201D1C914B2
:103E600032E02149C96C0968204A3032914201D1BF
:103E7000C91429E01C49C96C09681D4A30329142B5
:103E800002D14FF400111FE01749C96C0968174AA5
:103E9000183A914202D14FF4001115E01249C96C51
:103EA0000968134A9032914202D14FF400110BE09D
:103EB0000D49C96C09680D4A4832914202D14FF44C
:103EC000001101E04FF00061084000286FD0064863
:103ED000C06C0068054988427BD90348C06C006803
:103EE0000349884208D105E0F020002058640240D0
:103EF00010600240202068E0FE48C06C0068FE4967
:103F0000884201D1202060E0FA48C06C0068FB497B
:103F1000884201D1202058E0F648C06C0068F6497C
:103F20006031884201D120204FE0F248C06C006827
:103F3000F2494839884201D1C01446E0ED48C06CCE
:103F40000068ED491831884201D1C0143DE0E948CC
:103F5000C06C0068E9491831884201D1C01434E0CE
:103F6000E448C06C0068E4497831884201D1C0144B
:103F70002BE0E048C06C0068E0493039884202D14B
:103F80004FF4001021E0DB48C06C0068DA493031A2
:103F9000884202D14FF4001017E0D648C06C006888
:103FA000D6493031884204D14FF400100DE0DFE1F2
:103FB0000FE0D048C06C0068CF499031884202D1F0
:103FC0004FF4001001E04FF00060CB49091F08607A
:103FD0006AE1C848C06C0068C8494831884274D951
:103FE000C448C06C0068C5496039884201D12020AE
:103FF00066E0C048C06C0068BF49884201D12020FB
:104000005EE0BC48C06C0068BC49884201D12020F9
:1040100056E0B848C06C0068B7496031884201D1A9
:1040200020204DE0B348C06C0068B449483988424C
:1040300001D1C01444E0AF48C06C0068AE491831EB
:10404000884201D1C0143BE0AA48C06C0068AB496B
:104050001831884201D1C01432E0A648C06C006813
:10406000A5497831884201D1C01429E0A148C06C2B
:104070000068A2493039884202D14FF400101FE095
:104080009C48C06C00689C493031884202D14FF492
:10409000001015E09748C06C00689849303188429C
:1040A00002D14FF400100BE09248C06C00689249B6
:1040B0009031884202D14FF4001001E04FF00060CF
:1040C0008D4908390860EFE0FFE78A48C06C006856
:1040D0008A491839884274D98648C06C0068874973
:1040E0006039884201D1202066E08248C06C0068B7
:1040F0008149884201D120205EE07E48C06C006882
:104100007E49884201D1202056E07A48C06C006880
:1041100079496031884201D120204DE07548C06C5A
:10412000006876494839884201D1C01444E071489A
:10413000C06C006870491831884201D1C0143BE05E
:104140006C48C06C00686D491831884201D1C014B8
:1041500032E06848C06C006867497831884201D114
:10416000C01429E06348C06C006864493039884253
:1041700002D14FF400101FE05E48C06C00685E4939
:104180003031884202D14FF4001015E05948C06C1C
:1041900000685A493031884202D14FF400100BE0D8
:1041A0005448C06C006854499031884202D14FF4A1
:1041B000001001E04FF0006050497039C86073E0B2
:1041C000FFE74C48C06C00684C496039884201D117
:1041D000202066E04748C06C00684749884201D10A
:1041E00020205EE04348C06C00684449884201D109
:1041F000202056E03F48C06C00683F49603188424B
:1042000001D120204DE03B48C06C00683B49483953
:10421000884201D1C01444E03648C06C0068364979
:104220001831884201D1C0143BE03248C06C0068AC
:1042300032491831884201D1C01432E02D48C06C97
:1042400000682D497831884201D1C01429E02948FD
:10425000C06C006829493039884202D14FF40010FF
:104260001FE02448C06C006823493031884202D1E5
:104270004FF4001015E01F48C06C00681F49303132
:10428000884202D14FF400100BE01A48C06C00685D
:1042900019499031884202D14FF4001001E04FF0EB
:1042A00000601649703988601548007800F00200F7
:1042B00078B11348007820F00200114908700846D0
:1042C000007840F004000870012211460D4802F009
:1042D0004DFA0D48007800F00200E0B10A4800787D
:1042E00020F00200084908700846007840F00400F9
:1042F00008700BE0F0200020106402407060024063
:10430000D505002000040240D6050020012210211E
:10431000184802F02BFA1848007800F0020078B133
:104320001548007820F0020013490870084600780C
:1043300040F004000870012210210E4802F016FA25
:1043400010F0FCFC0D48007800F0040080B10B4830
:10435000007820F00400094908700846007840F011
:10436000080008700648006840F001000449086031
:1043700010BD000000000240D7050020D505002038
:10438000103C014010B5024801F09AFD10BD00003C
:104390008024002010B5024801F092FD10BD0000FD
:1043A000202400200146087810381823B0FBF3F2CF
:1043B0000848805CC865032A05D908686FF30900BE
:1043C000001D886503E008686FF309008865886D43
:1043D00070470000ABAD0108014600208A6A8B6976
:1043E000CBB932B1012A0DD0022A03D0032A10D151
:1043F0000EE000BFCB6A03F08073B3F1807F00D181
:10440000012007E0CB6AB3F1C07F00D1012001E0B9
:1044100000E000BF34E08B69B3F5005F1AD132B120
:10442000012A07D0022A03D0032A11D10AE000BFD3
:1044300001200EE0CB6A03F08073B3F1807F00D1DE
:10444000012006E0CB6AB3F1C07F00D1012000E07B
:1044500000BF15E032B1012A05D0022A04D0032A98
:104460000CD103E000BF00BF012008E0CB6A03F0DD
:104470008073B3F1807F00D1012000E000BF00BF56
:10448000704730B50468246824F4802405682C60E3
:10449000046863608468402C04D10468A2600468E6
:1044A000E16003E00468A1600468E26030BD0000E0
:1044B00000B970470178427841EA0221C1F30A014C
:1044C000704A118011460988A1F5806109B21180F6
:1044D0004178C910827841EA4211C1F30A01694A60
:1044E000518011464988A1F5806109B251808178D7
:1044F0008911C27841EA8201027941EA8221C1F33D
:104500000A01604A918011468988A1F5806109B24B
:10451000918001794910427941EAC211C1F30A013F
:10452000584AD1801146C988A1F5806109B2D1806D
:1045300041790911890811724179C1F30111517250
:104540008179C27941EA022109B24E4A9181017A08
:10455000427A41EA02210AB24A49CA81817AC27A80
:1045600041EA02210AB247490A82027B8A74427BED
:10457000CA74817BC27B41EA0221424A9182017C5A
:10458000427C41EA0221C1F30A013E4A51811146AF
:104590004989A1F5806109B251811146B1F90A102A
:1045A000394A12681144384A11603649C98A491C8F
:1045B000344AD1821146B1F90010142907DC1146A2
:1045C000B1F9001011F1140F01DB002111802D4908
:1045D000B1F90210142908DC2A49B1F9021011F1CD
:1045E000140F02DB0021274A51802649B1F904103B
:1045F000142908DC2349B1F9041011F1140F02DB6E
:104600000021204A91801F49B1F90610142908DCC5
:104610001C49B1F9061011F1140F02DB0021194AEF
:10462000D1801849B1F90A10142908DC1549B1F9EB
:104630000A1011F1140F02DB0021124A51811149B5
:10464000B1F90010114A12681144104A11600D4965
:10465000B1F902100E4A126811440D4A116009495D
:10466000B1F904100B4A126811440A4A1160054955
:10467000B1F90610084A12681144074A116000BFD8
:1046800017E700008202002054040020B00300203D
:10469000B8030020BC030020C003002038B5044646
:1046A0002068006800F0100010282DD12068C06834
:1046B00000F0100040B300BF0020009020680068A8
:1046C000009020684068009000BF00BF606B0068E9
:1046D000006820F00100616B09680860606B006889
:1046E0004068042804D10948D0F8191008488847C0
:1046F0001620616B09684860606B0068006840F0D4
:104700000100616B0968086038BD0000820200206A
:10471000AD1300201CB5002441A103C9CDE900015F
:1047200000BF641C4048407A022812D03E48407ABC
:1047300078B13E48C07855280BD13C480079C00973
:1047400038B90A2094FBF0F100FB114008B907F0DA
:10475000C5F93548007A012822D13548007801286A
:1047600007D13448007820B933480068401C3249EA
:10477000086031480068002804DD2F480068401CAC
:104780002D4908602C480068B0F5C86F02DD002094
:10479000294908602648007810B900202649086099
:1047A0002348007823490870642094FBF0F100FB53
:1047B000114000BB10F022F9204880ED000A90ED76
:1047C000000AF3EE050AB4EEE00AF1EE10FA12D296
:1047D00090ED000AF3EE040AB4EEE00AF1EE10FAEE
:1047E00009DD41F2883094FBF0F100FB114010B973
:1047F0000120134908704FF47A7094FBF0F100FB2C
:10480000114048B9002010F0DBFD6A46012108463E
:1048100010F0D4FE10F0FCFE012010F0A9FF80E79C
:104820006572726F7200000082020020DC4000207E
:104830007504002076040020800400207C04002001
:10484000203F0020704710B5012001F079FE10BD17
:1048500010B5082001F074FE10BD10B5102001F055
:104860006FFE10BD10B5202001F06AFE10BD70472C
:1048700010B5002201B909E0012901D10A0205E0C1
:10488000022901D10A0201E04FF440720E4B1B686D
:1048900023F440730C4C236023461B6813432360AE
:1048A00023461B6823F0F803236023461B68022479
:1048B00044EAC0042343044C236023461B6843F4AA
:1048C0008033236010BD0000103C02401C4800688B
:1048D00000F40070B0B11A48006820F40070184964
:1048E000086000BF0846006840F4006008600846A1
:1048F000006820F40060086000BF0846006840F4CB
:10490000007008600E48006800F48060B0B10C4888
:10491000006820F480600A49086000BF084600680B
:1049200040F4805008600846006820F48050086019
:1049300000BF0846006840F48060086070470000CF
:10494000003C02400A4A126822F44072084B1A6086
:104950001A46126842F004021A601A4612684FF4AE
:10496000803343EA00231A43014B1A60704700006A
:10497000103C0240074A126822F44072054B1A604C
:104980001A4612681A601A46126842F001021A604A
:1049900001707047103C024010B50D49096821F4C0
:1049A00040710B4C21602146096841F4407121603F
:1049B0002146096841F001012160026000BF00BF8B
:1049C00000BFBFF36F8F00BF00BF00BF436010BDCB
:1049D000103C0240084A126822F44072064B1A60EA
:1049E0001A46126842F480721A601A46126842F03F
:1049F00001021A6001807047103C0240084A1268A8
:104A000022F44072064B1A601A46126842F4007291
:104A10001A601A46126842F001021A60016070477B
:104A2000103C02402348006800F0100040B12248CA
:104A3000C06940F010002049C86110201D4908607D
:104A40001C48006800F0200040B11B48C06940F0DD
:104A500008001949C86120201649086015480068F7
:104A600000F0400040B11448C06940F00400124911
:104A7000C86140200F4908600E48006800F08000BF
:104A800040B10D48C06940F002000B49C861802068
:104A9000084908600748006800F0020040B1064875
:104AA000C06940F020000449C86102200149086043
:104AB000704700000C3C0240EC40002070B50446FA
:104AC000002500201449C86101F056FE054609E0A2
:104AD000601C38B124B101F04FFE401BA04201D947
:104AE000032070BD0D48006800F480300028EFD12D
:104AF0000A48006800F0010010B101200749086071
:104B00000648006800F0F20018B1FFF78BFF0120A3
:104B1000E7E70020E5E70000EC4000200C3C024005
:104B200010B52DED068B0446204614F00DFA41EC2D
:104B30001A0B53EC1A2B9FED0A0B51EC100B13F0D0
:104B4000B3FF41EC190B9FED080B53EC102B14F045
:104B50004BFA41EC180B14F065F9BDEC068B10BD57
:104B6000000000000000F03F0000000000408F4007
:104B7000F0EE400AC0ED000A90ED030A90ED021A33
:104B8000D0ED001A01EE210A80ED010A90ED070A2E
:104B900090ED051A20EE010A90ED081AD0ED061AE4
:104BA00001EE210A80ED040A90ED070A90ED0B1A40
:104BB00020EE011AD0ED0C1A90ED0D0A01EE210A3B
:104BC00080ED0A0A90ED0A0A90ED0F1A20EE011A04
:104BD00090ED020AD0ED0A1A60EE211A90ED0F2A2C
:104BE00090ED100A01EE820AC1EE001AC0ED0E1A15
:104BF00090ED010A90ED021AD0ED041A01EE610A5F
:104C000090ED041AD0ED0E1A01EE801A80ED111A03
:104C100090ED130A90ED0E1AD0ED021A01EE610A22
:104C200090ED0A1A20EE010A80ED120A90ED110AA9
:104C300080ED050A90ED120A80ED0B0A90ED110A45
:104C400070470000B7EE001A80ED021AB7EE001AA6
:104C500080ED071A90ED071A80ED0C1AC0ED0D0AD1
:104C600090ED021A80ED0F1A80ED100A9FED061AE2
:104C700080ED051AB7EE001A80ED0B1AB7EE001A98
:104C800080ED131A70470000000000000FB4009977
:104C9000A1F205209DF81D109DF81C2041EA02217B
:104CA00000EBC002484B23F822109DF81F209DF80E
:104CB0001E1042EA012109B200EBC00203EB82029E
:104CC000518000EBC0011A4602EB8101B1F90210DC
:104CD00000EE101AB8EEC00A00EBC00102EB810131
:104CE00081ED010A9DF821209DF8201042EA012162
:104CF00009B200EBC00203EB820211819DF8221081
:104D000000EBC00203EB8202917200EBC0011A4675
:104D100032F8211000EBC00203EB8202B2F912203C
:104D2000891A11F5E15F0BDA00EBC0011A4602EBBC
:104D300081014969491C00EBC00203EB8202516109
:104D400000EBC001204A02EB8101B1F9121000EB27
:104D5000C0021D4B33F82220891A11F5E15F0BDAEE
:104D600000EBC0011A4602EB81014969491E00EBC4
:104D7000C00203EB8202516100EBC001124A32F81B
:104D8000211000EBC002104B03EB820252694FF47A
:104D9000005303FB021100EE101AB8EEC00A00EB3C
:104DA000C001094A02EB810181ED060A00EBC00156
:104DB00032F8211009B200EBC002034B03EB820270
:104DC000518204B070470000181400202DE9FC4106
:104DD00007460C4615461E46380A8DF80000F8B204
:104DE0008DF80100200A8DF80200E0B28DF8030072
:104DF000280A8DF80400E8B28DF80500300A8DF815
:104E00000600F0B28DF807006B4640F2FF12002159
:104E10000248FEF789FBBDE8FC8100004C20002021
:104E20000FB40099A1F205209DF81D109DF81C20DB
:104E300041EA022100EBC002484B23F822109DF802
:104E40001F209DF81E1042EA012109B200EBC002AA
:104E500003EB8202518000EBC0011A4602EB810194
:104E6000B1F9021000EE101AB8EEC00A00EBC00152
:104E700002EB810181ED010A9DF821209DF82010AF
:104E800042EA012109B200EBC00203EB8202118168
:104E90009DF8221000EBC00203EB8202917200EB3E
:104EA000C0011A4632F8211000EBC00203EB820267
:104EB000B2F91220891A2A4A91420BDA00EBC0019A
:104EC0001A4602EB81014969491C00EBC00203EB61
:104ED0008202516100EBC001204A02EB8101B1F96D
:104EE000121000EBC0021D4B33F82220891A1C4A15
:104EF00091420BDA00EBC0011A4602EB81014969CD
:104F0000491E00EBC00203EB8202516100EBC001BD
:104F1000124A32F8211000EBC002104B03EB820260
:104F200052694FF4005303FB021100EE101AB8EE61
:104F3000C00A00EBC001094A02EB810181ED060ABB
:104F400000EBC00132F8211009B200EBC002034BA4
:104F500003EB8202518204B0704700001814002055
:104F60009CE6FFFF70B504460D4613F083F8206001
:104F7000D4E90012881AFFF7D3FD2860206860602A
:104F800070BD000070B50A480468001D0568001D6A
:104F90000668344454B108220649204605F01DFA3B
:104FA000042204491031284605F017FA70BD0000AC
:104FB000107AFF1FF204002038B50246002000904E
:104FC00000BF92F83C00012801D1022038BD012029
:104FD00082F83C0000BF0868092816D91068C0682C
:104FE0000C780A3C04EB44050724AC40A043146849
:104FF000E0600C780A3C04EB44048868A040146824
:10500000E46820431468E06013E0106800690C78DD
:1050100004EB44050724AC40A043146820610C78DD
:1050200004EB44048868A040146824692043146891
:1050300020614868072817D21068406B0C79641EFD
:1050400004EB84051F24AC40A04314686063088807
:1050500080B20C79641E04EB8404A0401468646B75
:1050600020431468606331E048680D2817D2106847
:10507000006B0C79E41F04EB84051F24AC40A043B3
:1050800014682063088880B20C79E41F04EB840460
:10509000A0401468246B20431468206316E0106855
:1050A000C06A0C790D3C04EB84051F24AC40A0437E
:1050B0001468E062088880B20C790D3C04EB84042B
:1050C000A0401468E46A20431468E062194B1A4C4B
:1050D0001068A04206D10868122803D1586840F42D
:1050E00080005860144C1068A0421CD10868102839
:1050F00002D00868112816D1586840F400005860A2
:10510000086810280FD10D4800680D4CB0FBF4F072
:1051100000EB80004000009002E00098401E0090EC
:1051200000980028F9D100BF002082F83C0000BFA1
:1051300000BF4BE7002301400020014098060020FB
:1051400040420F0001460868C06C704770B50446C5
:1051500000250CB9012070BD1549A06A884200D015
:1051600000BF206C30B9204600F024F800206064B5
:1051700084F83C00206C00F0100088B9206C20F40A
:10518000885040F0020020642046FDF74FFD0020CB
:105190006064206C20F0020040F00100206400E018
:1051A000012500BF002084F83C0000BF2846D2E75C
:1051B0000100000F10B586B00446142101A8FBF7CA
:1051C00077FF2349206888420FD100BF002000905C
:1051D0002048006840F480701E4908600846006856
:1051E00000F48070009000BF2FE01B4920688842C7
:1051F0002BD100BF002000901648006840F480606A
:10520000144908600846006800F48060009000BF00
:1052100000BF00BF002000900E481438006840F026
:1052200020000C49143908600846006800F020008E
:10523000009000BF00BF08150190032002900020DD
:10524000039001A9054801F089F906B010BD0000DE
:105250000020014044380240002201400014024076
:1052600070B504460D4600262068806800F4806012
:10527000B0F5806F11D12068806800F48070B0F5BF
:10528000807F0AD1206C40F02000206400BF002005
:1052900084F83C0000BF012070BD01F06DFA0646A5
:1052A00012E0681C80B125B101F066FA801BA842AB
:1052B0000AD9206C40F00400206400BF002084F86C
:1052C0003C0000BF0320E7E72068006800F0020010
:1052D0000228E6D16FF0120021680860206C40F4CB
:1052E000007020642068806800F04050B8B9207ECB
:1052F000A8B92068C06A00F4700020B120688068F6
:1053000000F4806058B9206C20F480702064206C18
:1053100000F4805018B9206C40F001002064002097
:10532000BAE7000008B501460020009000BF91F8E0
:105330003C00012801D1022008BD012081F83C0079
:1053400000BF0868806800F00100A0B908688068A4
:1053500040F001000B6898603B4800683B4BB0FB95
:10536000F3F000EB4000009002E00098401E009037
:1053700000980028F9D10868806800F00100002832
:105380005FD0086C40F20163984340F48070086479
:105390000868406800F4806028B1086C20F4005070
:1053A00040F480500864086C00F48050B0F5805FD1
:1053B00004D1486C20F00600486401E000204864F5
:1053C00000BF002081F83C0000BF214A6FF022009E
:1053D0000B681860506800F01F0018BB1D4B086870
:1053E000984213D01C4B0868984204D1101D0068E5
:1053F00000F01F0050B1194B0868984221D11448A1
:10540000001D006800F01F0010281AD2086880688C
:1054100000F0405028B90868806840F080400B6870
:1054200098600EE00B4B086898420AD108688068C3
:1054300000F0405028B90868806840F080400B6850
:105440009860002078E700009806002040420F0096
:1054500000230140002001400021014000220140C2
:10546000F0B504460D461E4694F820702068836807
:10547000A86800B900E000BF012F01D0022F7CD145
:1054800003F0806030B903F0006018B903F0805079
:10549000002873D0C3F30161022905D9606A40F482
:1054A000000060620120F0BD012088403060A868E3
:1054B00060B9B5F800C0E86840EA4C5C206800F5C7
:1054C000C07000EB0110C0F800C00FE0D5E901C0CA
:1054D00040EACC00D5F80CC040EA0C00D4F800C07B
:1054E0000CF5C07C0CEB011CCCF80000D5F810C00A
:1054F000206800F5C07000EB0110C0F804C0287DE2
:1055000001280ED1206800F5C07000EB0110406842
:1055100040F4807C206800F5C07000EB0110C0F8FA
:1055200004C0D079000692F806C040EA0C4092F818
:1055300005C040EA0C2C10794CEA000C206800F5FC
:10554000C07000EB0110C0F80CC0D078000692F8D3
:1055500002C040EA0C4092F801C040EA0C2092F8E8
:1055600000C040EA0C00D4F800C00CF5C07C0CEB85
:10557000011CCCF80800206801E016E00FE000F5FF
:10558000C07000EB0110006840F0010C206800F5CD
:10559000C07000EB0110C0F800C0002083E7606A13
:1055A00040F40010606201207DE7606A40F48020D2
:1055B0006062012077E70000F0B504460A462168E2
:1055C00094F82050012D01D0022D7ED1424901F5E1
:1055D0000071086840F001000860086820F47C5001
:1055E00008600868566A40EA06200860107D00F0EE
:1055F0001F06012000FA06F3C8699843C861A1F5A7
:105600000071D069C8B9D1F80C029843C1F80C02F6
:10561000908880B2968940EA064601F51070576975
:1056200040F83760108880B2168940EA064601F5D6
:105630001070576900EBC7004660D069012819D186
:10564000D1F80C021843C1F80C02908880B2168879
:1056500040EA064601F51070576940F837609089B6
:1056600080B2168940EA064601F51070576900EBD2
:10567000C7004660906928B9D1F804029843C1F880
:10568000040204E0D1F804021843C1F804021069CE
:1056900028B9D1F814029843C1F8140204E0D1F8F3
:1056A00014021843C1F81402106A012804D1D1F879
:1056B0001C021843C1F81C02D1F8000220F00100BE
:1056C000C1F800020020F0BDFFE7606A40F48020CE
:1056D00060620120F7E7000000640040704770B589
:1056E000044694F82050012D01D0022D7DD151B9EE
:1056F0002068C06800F0030080B9606A40F40010C0
:105700006062012070BD2068006900F0030028B9C4
:10571000606A40F4001060620120F3E7206800F541
:10572000D87000EB0110006800F0040090609068F1
:1057300040B9206800F5D87000EB01100068400DFA
:10574000106007E0206800F5D87000EB01100068D9
:10575000C0085060206800F5D87000EB01100068A8
:1057600000F00200D060206800F5D87000EB011056
:10577000406800F00F001061206800F5D87000EB61
:105780000110406800F47F40000A9061206800F535
:10579000D87000EB01104068000C5061206800F5E3
:1057A000D87000EB011080681870206800F5D87080
:1057B00000EB0110806800F47F40000A58702068F8
:1057C00000F5D87000EB0110806800F47F00000C39
:1057D0009870206800F5D87000EB01108068000E0A
:1057E000D870206800F5D87000E02FE000EB0110C1
:1057F000C0681871206800F5D87000EB0110C0680F
:1058000000F47F40000A5871206800F5D87000EB62
:105810000110C06800F47F00000C9871206800F54A
:10582000D87000EB0110C068000ED87131B9206843
:10583000C06840F020002668F06005E0206800693C
:1058400040F020002668306100205BE7606A40F489
:1058500080206062012055E72DE9F05F04460025B5
:10586000206846692068D0F804902068876820681E
:10587000D0F80CA02068D0F810B02068D0F81880BC
:1058800006F00100002855D007F00100C0B101204A
:105890002168886007F0020018B1204600F0F5FA90
:1058A0000EE007F0040010B145F4006508E007F0D1
:1058B000080010B145F4805502E0204600F0E4FAFB
:1058C00007F48070C8B14FF480702168886007F4D5
:1058D000007018B1204600F0DAFA0EE007F480609C
:1058E00010B145F4005508E007F4006010B145F42C
:1058F000804502E0204600F0C9FA07F48030C8B1C4
:105900004FF480302168886007F4003018B12046D9
:1059100000F0BFFA0EE007F4802010B145F4004516
:1059200008E007F4002010B145F4803502E020467D
:1059300000F0AEFA06F0080038B10AF0100020B10D
:1059400045F4007510202168C86006F0040040B1DD
:105950000AF0080028B108202168C860204600F03D
:105960000DFA06F0020038B12068C06800F00300AC
:1059700010B1204600F004FA06F0400038B10BF0F8
:10598000100020B145F4806510202168086106F000
:10599000200040B10BF0080028B108202168086100
:1059A000204600F03FFA06F0100038B12068006988
:1059B00000F0030010B1204600F035FA06F4003084
:1059C00040B109F0100028B110202168486020463D
:1059D00000F02AFA06F4803040B109F0080028B13E
:1059E000082021684860204600F054FA06F4004080
:1059F00088B309F0040078B306F4807020B108F091
:105A0000010008B145F0010506F4007020B108F06E
:105A1000020008B145F0020506F4806020B108F0EC
:105A2000040008B145F0040506F40060A0B108F0D8
:105A3000700088B108F07000402817D006DC1028EC
:105A40000BD020280CD0302819D10CE0502810D0D1
:105A5000602814D110E01DE019E045F008050FE0C2
:105A600045F010050CE045F0200509E045F0400543
:105A700006E045F0800503E045F4807500E000BFD6
:105A800000BF2068806920F07000216888610420D0
:105A9000216848602DB1606A284360622046FFF7A4
:105AA0001DFEBDE8F09F70B504460CB9012070BD25
:105AB00094F8200010B9204600F0B0F82068006883
:105AC00020F002002168086000F056FE05460DE057
:105AD00000F052FE401B0A2808D9606A40F40030EA
