:020000040800F2
:10000000387F0020810200085D5100083D42000851
:1000100059510008FB070008A16F0008000000000C
:10002000000000000000000000000000C101000806
:10003000B5150008000000001D020008CD62000890
:100040009B0200089B0200089B0200089B0200081C
:100050009B0200089B0200089B0200089B0200080C
:100060009B0200089B0200089B0200089B020008FC
:10007000B90F00089B020008C90F00089B02000886
:100080009B020008D90F00089B0200089B02000891
:10009000550800089B0200089B0200089B0200080C
:1000A0009B0200089B0200089B0200089B020008BC
:1000B0009B020008D16300089B0200089B02000815
:1000C0009B0200089B0200089B0200089B0200089C
:1000D0009B020008716D00089B020008856D0008F6
:1000E0009B0200089B0200089B0200089B0200087C
:1000F0009B0200089B0200089B0200089B0200086C
:100100009B0200089B0200089B0200089B0200085B
:100110009B0200089B0200080564000815640008A3
:100120009B020008E90F0008F90F00089B02000875
:100130009B0200089B0200089B0200089B0200082B
:10014000AD0900089B0200089B0200089B02000802
:100150009B020008091000089B020008A96D000816
:100160009B0200089B0200089B0200089B020008FB
:100170009B0200089B0200089B0200080000000090
:100180009B0200089B0200083567000859670008B9
:100190009B0200089B0200089B0200089B020008CB
:1001A00000000000000000009B020008DFF80CD0F7
:1001B00000F0E6FA0048004781780008387F002008
:1001C0002C4B19680868B0E8F04F80F30988BFF33A
:1001D0006F8F4FF0000080F311887047000000001F
:1001E00008480068006880F308884FF0000080F33A
:1001F000148862B661B6BFF34F8FBFF36F8F00DF15
:1002000000BF00BF08ED00E0DFF80C00016841F41A
:1002100070010160704700BF88ED00E0EFF30980D6
:10022000BFF36F8F134B1A681EF0100F08BF20ED3D
:10023000108A20E9F04F106009B44FF0500080F3AD
:100240001188BFF34F8FBFF36F8F08F047FD4FF05A
:10025000000080F3118809BC19680868B0E8F04F05
:100260001EF0100F08BFB0EC108A80F30988BFF3AE
:100270006F8F704744020020EFF305807047000045
:100280000648804706480047FEE7FEE7FEE7FEE730
:10029000FEE7FEE7FEE7FEE7FEE7FEE7B5630008E0
:1002A000AD0100082DE9F05F0546002092469B460F
:1002B00088460646814640241BE02846414647467C
:1002C000224600F0B9F953465A46C01A914110D35C
:1002D00011461846224600F0A0F92D1A67EB0108D6
:1002E0004F4622460120002100F097F917EB000944
:1002F0004E41201EA4F10104DFDC484631462A4667
:100300004346BDE8F09F40EA01039B0703D009E0A4
:1003100008C9121F08C0042AFAD203E011F8013BF1
:1003200000F8013B521EF9D27047D2B201E000F84A
:10033000012B491EFBD270470022F6E710B5134689
:100340000A4604461946FFF7F0FF204610BD2DE986
:10035000FE4F81EA030404F0004421F000410094C0
:100360004FF0000B23F0004350EA01045ED052EA44
:1003700003045BD0C3F30A54C1F30A552C44A4F21E
:10038000F3340194A0FB0254C1F3130141F4801132
:10039000C3F3130343F4801301FB024400FB034E39
:1003A000840A970A44EA815447EA8357A4FB076802
:1003B00002958D0A05FB07854FEA932C04FB0C542C
:1003C0002705029D4FEA065847EA1637B5EB0805A0
:1003D0006EEB070C870E920E47EA811742EA8312F2
:1003E000A7FB0201B6EB0B0164EB00042B0D43EA03
:1003F0000C335E1844EB1C50DA465146E7FB020111
:10040000C5F313044FEA0B3343EA14534FEA0432A3
:10041000019C43EA0603A4F10C040294009CCDE97C
:1004200000B400F05FF903B0BDE8F08F0020014692
:10043000F9E72DE9F04D81EA030404F0004B21F0C7
:10044000004514464FF0000A23F0004150EA05022F
:1004500020D054EA01021DD0C5F30A570246C5F365
:100460001303C1F31300C1F30A5640F4801543F49B
:100470008013A7EB0608101BD64608F2FD3873EB75
:10048000050002D308F1010801E092185B41B8F1C0
:10049000000F03DA00200146BDE8F08D00204FF484
:1004A0008011064684460EE0171B73EB050705D343
:1004B000121B63EB050306434CEA010C49084FEAA3
:1004C000300092185B4150EA0107EDD152EA030077
:1004D00012D082EA040083EA0501084305D0101B0C
:1004E000AB4106D20122002306E000224FF0004378
:1004F00002E06FF0010253101AEB06004CEB0851BA
:1005000010EB0A0041EB0B01BDE8F04D00F0DBB849
:100510000EB5C10F80EAE0700844CA07002140F21E
:1005200033438DE80E000A460B4600F0DBF803B0BB
:1005300000BD0EB540F2334102910021CDE900111A
:100540000A460B4600F0CEF803B000BD70B5C1F30B
:100550000A5201F000450024C1F3130140F2FF33B9
:1005600041F480119A4201DA002070BD40F2334319
:100570009A42A2F2334203DC524200F05DF800E0FE
:1005800090402C43F1D0404270BDC1F30A5210B5E7
:10059000C1F3130140F2FF3341F480119A4201DAB2
:1005A000002010BD40F233439A42A2F2334203DCF2
:1005B000524200F041F810BD904010BD00F00042E2
:1005C00030F000400AD0C10D01F56071C0F3160093
:1005D00042EA0151C208400711437047002001461A
:1005E000704701F0004330B421F0004150EA0102AD
:1005F00006D00A0DA2F56072C1F31301002A02DCD5
:1006000030BC00207047440F44EAC104C100E01828
:1006100030BC00EBC25000F01FB8202A04DB203AA7
:1006200000FA02F1002070479140C2F1200320FA45
:1006300003F3194390407047202A04DB203A21FA43
:1006400002F00021704721FA02F3D040C2F12002EB
:1006500091400843194670470029A8BF7047401CC5
:10066000490008BF20F00100704710B4B0FA80FCC8
:1006700000FA0CF050EA010404BF10BC704749B105
:10068000CCF1200421FA04F411FA0CF118BF012175
:1006900021430843A3EB0C01CB1D4FEA00614FEA55
:1006A000102042BF002010BC704700EBC350104424
:1006B0000029A4BF10BC7047401C490008BF20F0AF
:1006C000010010BC704710B5141E73F1000408DA65
:1006D000401C41F1000192185B411A4301D120F006
:1006E000010010BD2DE9F04D92469B4611B1B1FAC3
:1006F00081F202E0B0FA80F220329046FFF78DFFDF
:1007000004460F4640EA0A0041EA0B0153465A46A6
:10071000084313D0114653EA010019D0C8F1400232
:100720005046FFF789FF05460E4650465946424659
:10073000FFF773FF084305D0012004E02046394647
:10074000BDE8F08D0020054346EAE0762C433743B0
:100750000A986305E40AA0EB08000022FD0A44EAB7
:1007600047540A3002D500200146E9E70105101977
:100770006941DDE9084500196941BDE8F04DA2E78E
:10078000064C074D06E0E06840F0010394E80700DE
:1007900098471034AC42F6D3FFF70CFDE89B0008F5
:1007A000089C000870B58C1810F8015B15F0070361
:1007B00001D110F8013B2A1106D110F8012B03E0FA
:1007C00010F8016B01F8016B5B1EF9D12B0705D402
:1007D0000023521E0DD401F8013BFAE710F8013B4B
:1007E000CB1A921C03E013F8015B01F8015B521E67
:1007F000F9D5A142D8D3002070BD00BFFEE70000AC
:1008000010B500F00FF8064801F027FE0448006814
:10081000406940F0020002490968486110BD0000CB
:100820009C06002000B58BB000200A90069007902F
:100830000120089000200190029003900490059000
:100840000120099001A9024801F0D0F90BB000BDC8
:100850009C06002010B504480068401C024908604E
:10086000024801F013FB10BD700000209C06002020
:100870008EB034480068401C3249086000BF3148DF
:100880000068401C2F4908604FF0FF3205A92E4830
:10089000006808F015FC0446012CF0D140F2052157
:1008A0000598884208D1142209A96846FFF72BFD54
:1008B00005A80FC800F056FF40F2062105988842AF
:1008C00008D1142209A96846FFF71DFD05A80FC825
:1008D00000F09AFE0598B0F5017F08D1142209A90D
:1008E0006846FFF710FD05A80FC804F09BF840F21A
:1008F00001210598884208D1142209A96846FFF70A
:1009000002FD05A80FC804F023F940F20221059862
:10091000884208D1142209A96846FFF7F4FC05A80B
:100920000FC804F015F940F2032105988842A6D1BA
:10093000142209A96846FFF7E6FC05A80FC803F0D2
:10094000CFFF9CE77C000020E001002010B500F004
:1009500011F8074801F081FD08B100BFFEE7044827
:100960000068406940F0020001490968486110BD13
:10097000C406002000B58BB000200A9006900790B6
:1009800001200890002001900290039004900590AF
:100990000120099001A9044801F028F908B100BF1D
:1009A000FEE70BB000BD0000C406002010B50448EF
:1009B0000068401C02490860024801F067FA10BD57
:1009C00080000020C40600202DE9F84381460E4631
:1009D00015461F4600201549C86008468660806895
:1009E00010B90846056005E010488068042801D168
:1009F0000E48456008200D4908610020087508462A
:100A0000D0F81080002405E0395D08481830015501
:100A1000601CC4B24445F7D36B46044A18320349FC
:100A2000484601F037F8BDE8F88300001C49002073
:100A300010B52DED0E8B7748007A01287ED17648CF
:100A40000078012830D17548007801282CD17448ED
:100A50000078012857D173480078012853D16D4898
:100A6000B0F90A0010F5C87F05DC01206E49087056
:100A700000206E4908706748B0F90A00B0F5C87FD9
:100A800005DB012069490870002067490870674844
:100A90000078012801D100F0DFF8634800780128D0
:100AA00031D104F07FFE2EE05B480078A0B95B48AE
:100AB0000078012810D15B480078012823D15B48D9
:100AC0000078012801D100F0C7F8574800780128C4
:100AD00019D104F067FE16E04F480078012812D1C2
:100AE0004E48007878B94E48007801280BD14F481D
:100AF0000078012801D100F0AFF84B4800780128B8
:100B000001D104F04FFE44480078B8B9434800785A
:100B1000A0B943480078012829D14248007801282B
:100B200025D13C48B0F90A0010F5C87F05DC01204A
:100B30003D49087000203D49087000E017E0354845
:100B4000B0F90A00B0F5C87F05DB0120374908700D
:100B500000203549087035480078012801D100F09F
:100B60007BF831480078012801D104F01BFE2948A8
:100B7000007A032832D12E480068FFF7C9FC41EC07
:100B8000190B2C480068FFF7C3FC41EC1B0B2149F3
:100B9000B1F90600FFF7BCFC41EC1E0B9FED260BE4
:100BA00053EC102BFFF7D3FB41EC1D0B9FED240BF7
:100BB00053EC102BFFF73DFC41EC1C0B53EC1B2BB3
:100BC000FFF7C5FB41EC1A0B53EC192BFFF7BFFBEA
:100BD00041EC180BFFF7BAFC1B4908601B48B0F941
:100BE000900100EE100AB8EEC00AF0EE400A164876
:100BF00090ED000AB8EEC00A154804F08BFC1448CA
:100C000090ED110ABDEEC00A124880ED000ABDEC5D
:100C10000E8B10BDA4020020D1010020D2010020C3
:100C20000D0000200C00002010000020110000200A
:100C3000BC000020C0000020000000000000F03FC9
:100C40000000000000A08440A8000020CC49002043
:100C5000685B0020CC00002000207B4908707B48A6
:100C600000697B4909687B4A1268114488425BDA53
:100C700000207949086079480068401C774908607D
:100C800077480068774908607748B0F990010028F4
:100C900002DD01207549086074480068C8B96B48D6
:100CA00001696B48006800F5FA50814208DD6C4824
:100CB000006840426E49086000206E4908701AE0E2
:100CC0006748006840426A49086001206949087025
:100CD00011E0002067490870614890ED000AB8EE05
:100CE000C00A6548D0ED000A20EE200ABDEEC00A19
:100CF0005F4880ED000A5948006840F6B8318842E4
:100D000011DD00205B490870554890ED000AB8EEEF
:100D1000C00A5948D0ED000A20EE200ABDEEC00AF4
:100D2000534880ED000A88E048480169534800684C
:100D3000484A1268801A814269DD49480068404289
:100D40004849086000204449086044480068401C45
:100D5000424908604448B0F99001002802DA0120B5
:100D6000424908604148006810BB3848016943485F
:100D70000068A0F5FA50814212DA00203D4908705F
:100D8000374890ED000AB8EEC00A3B48D0ED000AA3
:100D900020EE200ABDEEC00A354880ED000A1BE0B7
:100DA0002F4800683249086001203249087013E07A
:100DB0000020304908702A480068404200EE100ABE
:100DC000B8EEC00A2C48D0ED000A20EE200ABDEE95
:100DD000C00A274880ED000A2048006840F6B83174
:100DE00088422ADD0020234908701D4800684042DF
:100DF00000EE100AB8EEC00A1F48D0ED000A20EE3F
:100E0000200ABDEEC00A1A4880ED000A15E012481B
:100E10000068401C1049086008460068B0F5FA6F89
:100E200006DD0020134908700E480068104908606C
:100E300000200E490860094908600B48B0F990018C
:100E40000F4908607047000098010020C40300208B
:100E500040010020440100209401002040000020B7
:100E600048000020AC000020CC49002038000020C1
:100E7000A8000020910100208C0100203C010020EE
:100E80003C0000208EB000BF4FF0FF3205A91A4889
:100E9000006808F015F90446012C29D140F201112F
:100EA0000598884208D1142209A96846FFF72BFA51
:100EB00005A80FC800F022F840F295110598884265
:100EC00008D1142209A96846FFF71DFA05A80FC822
:100ED00000F022F840F265110598884208D11422EA
:100EE00009A96846FFF70FFA05A80FC800F03CF8FB
:100EF00005F0A6FFC8E70000E40100200FB40020C1
:100F000004E007A9095C034A1154401C0828F8DBD7
:100F100004B07047700300200FB410B540F2951173
:100F20000298884202D010BC5DF814FB002004E057
:100F300009A9095C094A1154401C0828F8DB084932
:100F4000A1F1080000F084FD06484068401C0549F6
:100F500048600020087200BFE5E700007803002029
:100F6000CC5E0020F45E00200FB410B540F2651195
:100F70000298884202D010BC5DF814FB002004E007
:100F800009A9095C094A1154401C0828F8DB0849E2
:100F9000A1F1080000F05CFD06484068401C0549CE
:100FA00048600020087200BFE5E7000080030020D1
:100FB000D85E0020005F002010B5024801F098FACA
:100FC00010BD00001C0A002010B5024801F090FA84
:100FD00010BD0000FC08002010B5024801F088FA9E
:100FE00010BD00005C09002010B5024801F080FA35
:100FF00010BD00007C0A002010B5024801F078FA0C
:1010000010BD0000BC09002010B5024801F070FAC4
:1010100010BD0000DC0A00200146087810381823B3
:10102000B0FBF3F20848805CC865032A05D908685C
:101030006FF30900001D886503E008686FF309007D
:101040008865886D70470000709800080146002090
:101050008A6A8B69CBB932B1012A0DD0022A03D03A
:10106000032A10D10EE000BFCB6A03F08073B3F106
:10107000807F00D1012007E0CB6AB3F1C07F00D1AF
:10108000012001E000E000BF34E08B69B3F5005FB0
:101090001AD132B1012A07D0022A03D0032A11D172
:1010A0000AE000BF01200EE0CB6A03F08073B3F1C9
:1010B000807F00D1012006E0CB6AB3F1C07F00D170
:1010C000012000E000BF15E032B1012A05D0022A5C
:1010D00004D0032A0CD103E000BF00BF012008E0C8
:1010E000CB6A03F08073B3F1807F00D1012000E070
:1010F00000BF00BF704730B50468246824F4802422
:1011000005682C60046863608468402C04D104681E
:10111000A2600468E16003E00468A1600468E26022
:1011200030BD000000B970470178427841EA0221E1
:10113000C1F30A01614A11804178C910827841EAFD
:101140004211C1F30A015D4A518081788911C27848
:1011500041EA8201027941EA8221C1F30A01574A38
:10116000918001794910427941EAC211C1F30A0123
:10117000524AD18041790911890811724179C1F32C
:10118000011151728179C27941EA022109B24B4AB7
:101190009181017A427A41EA02210AB24749CA8121
:1011A000817AC27A41EA02210AB244490A82027B68
:1011B0008A74427BCA74817BC27B41EA02213F4A26
:1011C0009182017C427C41EA0221C1F30A013B4A3F
:1011D00051811146C98A491CD18211460988A1F55D
:1011E000806109B2118011464988A1F5806109B278
:1011F000518011468988A1F5806109B2918011461C
:10120000C988A1F5806109B2D18011464989A1F54B
:10121000806109B251811146B1F90010142907DC2F
:101220001146B1F9001011F1140F01DB00211180FA
:101230002249B1F90210142908DC2049B1F9021041
:1012400011F1140F02DB00211C4A51801B49B1F936
:101250000410142908DC1949B1F9041011F1140F14
:1012600002DB0021154A91801449B1F906101429B6
:1012700008DC1249B1F9061011F1140F02DB00214C
:101280000E4AD1800D49B1F90A10142908DC0B4926
:10129000B1F90A1011F1140F02DB0021074A518144
:1012A0000649B1F90010064A12681144044A116057
:1012B0000121044A117000BF35E70000A40200209C
:1012C000880100207001002010B5002004E00A49C8
:1012D000095C0A4A1154401C1228F8DB00F010F88F
:1012E000012006F00AFB00F027F8012006F005FBBC
:1012F00000F014F810BD0000B4480020375800205A
:1013000010B5044B40F2351200210348FFF75CFB97
:1013100010BD000037580020C406002010B5044B53
:1013200040F2331200210348FFF74EFB10BD0000CE
:1013300047580020C406002010B5044B4FF49A72A1
:1013400000210348FFF740FB10BD00003F5800207C
:10135000C406002038B504462068006800F010007C
:1013600010282CD12068C06800F0100038B300BFEE
:10137000002000902068006800902068406800907D
:1013800000BF00BF606B0068006820F00100616B67
:1013900009680860606B00684068042803D1084849
:1013A000C169084888471620616B09684860606B0E
:1013B0000068006840F00100616B0968086038BD92
:1013C000A4020020B448002000BF62480068401C0E
:1013D0006049086060480078012843D15F48007880
:1013E00001283FD15E480078012804D104F012FFA3
:1013F00000205B4908705B4800695B4909685B4AEB
:1014000012681144884208DB564800695849096847
:10141000564A1268891A884211DD56480078012818
:1014200004D15549087000205249087001205349E1
:1014300008705349087000205249087018E00020D5
:101440004F49087001204F4908704C480078012826
:1014500004D14949087000204849087001204549D5
:10146000087005E0012047490870002044490870D1
:101470004448007801280AD136480068642190FB6E
:10148000F1F201FB120010B901203B4908703C4801
:10149000007801280AD12F4800680A2190FBF1F258
:1014A00001FB120010B9012033490870364800785A
:1014B00001280ED13548B0F90A0035490860FFF718
:1014C00003FF34480068401C3249086000202E4960
:1014D000087031480078012804D100202E49087096
:1014E00002F020FF2D480078012809D102F02EFFDC
:1014F0002B480068401C2A490860002027490870D2
:1015000028480078012809D127480068401C26494E
:10151000086002F033FF0020224908702348007859
:10152000012804D102F0DAFE002020490870124898
:101530000078012809D103F045FF1D480068401CD0
:101540001B49086000200C490870012006F0D5F9FD
:101550003BE70000DC0100200C0000200D00002013
:1015600078010020C4030020400100204401002035
:101570003C0100207C010020760100207D0100203C
:101580007B0100207A01002070010020A4020020CD
:10159000D40100208001002073010020720100208E
:1015A000A8010020740100208401002075010020A2
:1015B000AC0100207047704710B52DED068B044636
:1015C0002046FEF7B6FF41EC1A0B53EC1A2B9FEDA9
:1015D0000A0B51EC100BFEF72CFF41EC190B9FEDA1
:1015E000080B53EC102BFEF7B2FE41EC180BFEF784
:1015F000CCFFBDEC068B10BD000000000000F03FEA
:101600000000000000408F400FB410B540F20621EA
:101610000298884202D010BC5DF814FB0298A0F238
:10162000052402A8407F9DF8241040EA012004EB25
:10163000C4014A4A22F8210002A8C17F807F41EA02
:10164000002000B204EBC40102EB8101488004EBEE
:10165000C400114601EB8000B0F9020000EE100A50
:10166000B8EEC00A04EBC40001EB800080ED010A73
:101670009DF829109DF8280041EA002000B204EBF3
:10168000C40102EB810108819DF82A0004EBC4012A
:1016900002EB8101887204EBC400114631F820008E
:1016A00004EBC40102EB8101B1F91210401A10F5EC
:1016B000E15F0BDA04EBC400114601EB80004069E6
:1016C000401C04EBC40102EB8101486104EBC4003F
:1016D000224901EB8000B0F9120004EBC4011F4A5B
:1016E00032F82110401A10F5E15F0BDA04EBC40068
:1016F000114601EB80004069401E04EBC40102EB7F
:101700008101486104EBC400144931F8200004EB66
:10171000C401124A02EB810149694FF4005202FBF5
:10172000010000EE100AB8EEC00A04EBC4000B4939
:1017300001EB800080ED060A04EBC40031F82000C4
:1017400000B204EBC401054A02EB8101488204495E
:10175000A1F1080000F07CF900BF5CE73C490020E3
:10176000F05E00200FB410B540F2052102988842C7
:1017700002D010BC5DF814FB0298A0F2052402A868
:10178000407F9DF8241040EA012004EBC4014A4A3E
:1017900022F8210002A8C17F807F41EA002000B228
:1017A00004EBC40102EB8101488004EBC400114644
:1017B00001EB8000B0F9020000EE100AB8EEC00A9A
:1017C00004EBC40001EB800080ED010A9DF82910B4
:1017D0009DF8280041EA002000B204EBC40102EBAE
:1017E000810108819DF82A0004EBC40102EB81010C
:1017F000887204EBC400114631F8200004EBC401E8
:1018000002EB8101B1F91210401A2C4988420BDA1F
:1018100004EBC400114601EB80004069401C04EB5E
:10182000C40102EB8101486104EBC400224901EBD1
:101830008000B0F9120004EBC4011F4A32F82110F5
:10184000401A1E4988420BDA04EBC400114601EB32
:1018500080004069401E04EBC40102EB8101486135
:1018600004EBC400144931F8200004EBC401124A0F
:1018700002EB810149694FF4005202FB010000EEC6
:10188000100AB8EEC00A04EBC4000B4901EB80005B
:1018900080ED060A04EBC40031F8200000B204EB2E
:1018A000C401054A02EB810148820549A1F1080003
:1018B00000F0CEF800BF5CE73C4900209CE6FFFF4B
:1018C000E45E002030B5034613B94FF6FF7030BD1B
:1018D00009E013F8014B82EA0400C0B2054D35F867
:1018E000100080EA2222081EA1F10101F1D1104668
:1018F000EDE700009299000870B52DED088B0446C5
:101900000D462868406A00B22080B4F90000B4F99E
:101910000810401A10F5616F02DAE068401CE060C0
:10192000B4F90800B4F90010401A10F5616F02DA3A
:10193000E068401EE060B4F90010E06801EB0030A0
:101940002061208820813948D0ED820A384890ED06
:10195000000AB8EEC00A30EEC00ABDEEC00A354833
:1019600080ED000A61682069401A334908603148F7
:101970000068F0B12D49B1F99001FEF7C9FD41ECC5
:10198000190B2D480068FEF7C3FD41EC1B0B9FEDC2
:101990002B0B53EC102BFEF7DAFC41EC1A0B53EC3B
:1019A000192BFEF746FD41EC180BFEF71AFE2549F0
:1019B00008601E48D0ED820A1D4890ED000AB8EE7E
:1019C000C00A30EEC00A10EE101A0846FEF7F6FD07
:1019D00041EC190B1549B1F99001FEF799FD41EC65
:1019E0001B0B9FED160B53EC102BFEF722FD41EC69
:1019F0001A0B53EC192BFEF71CFD41EC180BFEF7EC
:101A0000F0FD1149086020696060084890ED820A85
:101A1000BDEEC00A064880ED000A0448B0F9900106
:101A20000A490860BDEC088B70BD0000CC4900205D
:101A30001401002018010020100100200000000007
:101A40000000F03F28010020240100202001002098
:101A500070B504460D4607F0CDFC2060D4E90012B5
:101A6000881AFFF7A9FD28602068606070BD00003B
:101A700070B504460D46064801F056FD0646281B83
:101A8000401CB6FBF0F100FB1160204480B270BD39
:101A9000EC060020F0B504460D461E4694F8207072
:101AA00020688368A86800B900E000BF012F01D05A
:101AB000022F7CD103F0806030B903F0006018B9C8
:101AC00003F08050002873D0C3F30161022905D9C7
:101AD000606A40F4000060620120F0BD012088408F
:101AE0003060A86860B9B5F800C0E86840EA4C5CAE
:101AF000206800F5C07000EB0110C0F800C00FE0D6
:101B0000D5E901C040EACC00D5F80CC040EA0C0091
:101B1000D4F800C00CF5C07C0CEB011CCCF8000024
:101B2000D5F810C0206800F5C07000EB0110C0F8B7
:101B300004C0287D01280ED1206800F5C07000EB9C
:101B40000110406840F4807C206800F5C07000EB14
:101B50000110C0F804C0D079000692F806C040EA2F
:101B60000C4092F805C040EA0C2C10794CEA000CAD
:101B7000206800F5C07000EB0110C0F80CC0D078F0
:101B8000000692F802C040EA0C4092F801C040EA18
:101B90000C2092F800C040EA0C00D4F800C00CF50C
:101BA000C07C0CEB011CCCF80800206801E016E0BA
:101BB0000FE000F5C07000EB0110006840F0010C70
:101BC000206800F5C07000EB0110C0F800C00020D4
:101BD00083E7606A40F40010606201207DE7606A7C
:101BE00040F480206062012077E70000F0B50446F1
:101BF0000A46216894F82050012D01D0022D7ED193
:101C0000424901F50071086840F001000860086869
:101C100020F47C5008600868566A40EA0620086094
:101C2000107D00F01F06012000FA06F3C8699843F2
:101C3000C861A1F50071D069C8B9D1F80C02984308
:101C4000C1F80C02908880B2968940EA064601F5F8
:101C50001070576940F83760108880B2168940EAE2
:101C6000064601F51070576900EBC7004660D06961
:101C7000012819D1D1F80C021843C1F80C02908840
:101C800080B2168840EA064601F51070576940F8A0
:101C90003760908980B2168940EA064601F51070D7
:101CA000576900EBC7004660906928B9D1F8040273
:101CB0009843C1F8040204E0D1F804021843C1F8C3
:101CC0000402106928B9D1F814029843C1F814022B
:101CD00004E0D1F814021843C1F81402106A012874
:101CE00004D1D1F81C021843C1F81C02D1F800023B
:101CF00020F00100C1F800020020F0BDFFE7606A9B
:101D000040F4802060620120F7E70000006400409A
:101D1000704770B5044694F82050012D01D0022D73
:101D20007DD151B92068C06800F0030080B9606AB5
:101D300040F400106062012070BD2068006900F06E
:101D4000030028B9606A40F4001060620120F3E7E4
:101D5000206800F5D87000EB0110006800F0040066
:101D60009060906840B9206800F5D87000EB0110D1
:101D70000068400D106007E0206800F5D87000EBA7
:101D800001100068C0085060206800F5D87000EBB2
:101D90000110006800F00200D060206800F5D870E3
:101DA00000EB0110406800F00F001061206800F5A2
:101DB000D87000EB0110406800F47F40000A906189
:101DC000206800F5D87000EB01104068000C5061ED
:101DD000206800F5D87000EB01108068187020684A
:101DE00000F5D87000EB0110806800F47F40000A15
:101DF0005870206800F5D87000EB0110806800F47E
:101E00007F00000C9870206800F5D87000EB01107E
:101E10008068000ED870206800F5D87000E02FE0D0
:101E200000EB0110C0681871206800F5D87000EB55
:101E30000110C06800F47F40000A5871206800F566
:101E4000D87000EB0110C06800F47F00000C98719E
:101E5000206800F5D87000EB0110C068000ED87142
:101E600031B92068C06840F020002668F06005E0C5
:101E70002068006940F020002668306100205BE7A0
:101E8000606A40F480206062012055E72DE9F05F30
:101E900004460025206846692068D0F80490206830
:101EA00087682068D0F80CA02068D0F810B02068AF
:101EB000D0F8188006F00100002855D007F0010086
:101EC000C0B101202168886007F0020018B12046E7
:101ED00000F0F3FA0EE007F0040010B145F40065DD
:101EE00008E007F0080010B145F4805502E02046F4
:101EF00000F0E2FA07F48070C8B14FF480702168F6
:101F0000886007F4007018B1204600F0D8FA0EE09F
:101F100007F4806010B145F4005508E007F4006054
:101F200010B145F4804502E0204600F0C7FA07F4FE
:101F30008030C8B14FF480302168886007F40030E9
:101F400018B1204600F0BDFA0EE007F4802010B171
:101F500045F4004508E007F4002010B145F4803551
:101F600002E0204600F0ACFA06F0080038B10AF0B2
:101F7000100020B145F4007510202168C86006F0FB
:101F8000040040B10AF0080028B108202168C860A8
:101F9000204600F00FFA06F0020038B12068C06851
:101FA00000F0030010B1204600F006FA06F04000F1
:101FB00038B10BF0100020B145F480651020216885
:101FC000086106F0200040B10BF0080028B108209D
:101FD00021680861204600F03DFA06F0100038B193
:101FE0002068006900F0030010B1204600F033FAC9
:101FF00006F4003040B109F0100028B1102021682B
:102000004860204600F028FA06F4803040B109F01C
:10201000080028B1082021684860204600F052FAE4
:1020200006F4004088B309F0040078B306F4807029
:1020300020B108F0010008B145F0010506F4007078
:1020400020B108F0020008B145F0020506F48060F6
:1020500020B108F0040008B145F0040506F4006062
:10206000A0B108F0700088B108F07000402817D0C7
:1020700006DC10280BD020280CD0302819D10CE019
:10208000502810D0602814D110E01DE019E045F070
:1020900008050FE045F010050CE045F0200509E0CB
:1020A00045F0400506E045F0800503E045F4807505
:1020B00000E000BF00BF2068806920F07000216848
:1020C00088610420216848602DB1606A28436062FD
:1020D0002046FFF71DFEBDE8F09F70B504460CB921
:1020E000012070BD94F8200010B9204600F0B0F82F
:1020F0002068006820F002002168086000F034FDCC
:1021000005460DE000F030FD401B0A2808D9606A42
:1021100040F400306062052084F820000120E0E7F0
:102120002068406800F002000028EBD120680068B9
:1021300040F001002168086000F016FD05460DE042
:1021400000F012FD401B0A2808D9606A40F40030F4
:102150006062052084F820000120C2E72068406802
:1021600000F001000028EBD0207E012806D1206875
:10217000006840F080002168086005E02068006881
:1021800020F0800021680860607E012806D1206868
:10219000006840F040002168086005E020680068A1
:1021A00020F0400021680860A07E012806D1206848
:1021B000006840F020002168086005E020680068A1
:1021C00020F0200021680860E07E012806D1206808
:1021D000006820F010002168086005E020680068B1
:1021E00040F0100021680860207F012806D1206897
:1021F000006840F008002168086005E02068006879
:1022000020F0080021680860607F012806D120685E
:10221000006840F004002168086005E0206800685C
:1022200020F0040021680860D4E902010843216914
:102230000843616908436168491E08432168C86111
:1022400000206062012084F82000002049E700009F
:1022500010B586B00446142101A8FEF76DF84F4969
:102260002068884241D14E480068401C4C490860B3
:102270000846006801280FD100BF0020009049489F
:10228000006840F00070474908600846006800F0A8
:102290000070009000BF00BF00BF002000904148C8
:1022A0001038006840F008003E49103908600846C0
:1022B000006800F00800009000BF00BF03200190FC
:1022C0000220029000200390032004900920059032
:1022D00001A9354800F032FB00220621142000F04D
:1022E000EDFC142000F0DAFC55E03049206888420B
:1022F00051D100BF002000902A48006840F0806063
:10230000284908600846006800F08060009000BF1F
:1023100000BF23480068401C214908600846006847
:1023200001280FD100BF002000901E48006840F037
:1023300000701C4908600846006800F000700090BA
:1023400000BF00BF00BF0020009016481038006892
:1023500040F002001349103908600846006800F098
:102360000200009000BF00BF4FF4405001900220D7
:10237000029000200390032004900920059001A9F9
:102380000B4800F0DBFA00220621402000F096FC0A
:10239000402000F083FC06B010BD00000064004047
:1023A0000C02002040380240000C0240006800404F
:1023B00000040240704700001CB504461E488442D9
:1023C00012D11E48006878B11D4BA3F11C020021F8
:1023D0001948FFF79EFC002301AA19491C39174828
:1023E000006806F0F1FD00BF019838B14FF0805051
:1023F00014490860BFF34F8FBFF36F8F12488442B8
:102400000ED1124BA3F11C020021FFF782FC002326
:102410006A460E491C390E48006806F0D5FD00BF1B
:10242000009838B14FF0805006490860BFF34F8FD5
:10243000BFF36F8F1CBD00009C060020E001002050
:10244000580B002004ED00E0C40600207C0B0020A7
:10245000E401002070477047704770B5044694F857
:102460002000012822D1022084F820002068006882
:1024700020F001002168086000F076FB05460DE0C1
:1024800000F072FB401B0A2808D9606A40F4003053
:102490006062052084F82000012070BD206840683B
:1024A00000F001000028EBD16062F6E7606A40F4BA
:1024B000002060620120F0E7704770477047704766
:1024C000704770477047014691F83500022803D0E5
:1024D0008020486501207047052081F83500086894
:1024E000006820F001000A6810600020F3E7000097
:1024F000F8B50446002000908C4800684FF416514F
:10250000B0FBF1F7A56D2E6894F85C1008208840A8
:10251000304098B12068006800F0040070B1206875
:10252000006820F004002168086094F85C1008201E
:102530008840A860606D40F00100606594F85C1010
:1025400001208840304068B12068406900F0800078
:1025500040B194F85C1001208840A860606D40F0A4
:102560000200606594F85C1004208840304068B137
:102570002068006800F0020040B194F85C1004206C
:102580008840A860606D40F00400606594F85C10BD
:1025900010208840304078B32068006800F00800C0
:1025A00050B394F85C1010208840A8602068006840
:1025B00000F4802080B12068006800F4002028B971
:1025C000206CC8B12046216C884715E0A06C98B1FA
:1025D0002046A16C88470FE02068006800F48070F6
:1025E00028B92068006820F0080021680860206C85
:1025F00010B12046216C884794F85C102020884058
:102600003040002865D02068006800F010000028E5
:102610005FD094F85C1020208840A86094F83500C2
:10262000052828D12068006820F01600216808607D
:102630002068406920F0800021684861206C08B95A
:10264000A06C28B12068006820F0080021680860AC
:1026500094F85C103F208840A86000BF002084F8F8
:10266000340000BF012084F83500206D10B12046F1
:10267000216D8847F8BD2068006800F4802080B193
:102680002068006800F4002028B9606C10B1204672
:10269000616C88471DE0E06BD8B12046E16B88474C
:1026A00017E02068006800F4807068B9206800684E
:1026B00020F010002168086000BF002084F834007A
:1026C00000BF012084F83500E06B10B12046E16BBB
:1026D0008847606D38B3606D00F00100F0B10520EF
:1026E00084F835002068006820F001002168086047
:1026F00000BF0098401C0090B84200D905E0206857
:10270000006800F001000028F3D100BF00BF0020E6
:1027100084F8340000BF012084F83500E06C10B16B
:102720002046E16C884700BFA4E70000400200207B
:102730002DE9F0410446002500F016FA074614B9C9
:102740000120BDE8F081606A00B100BF00BF002039
:1027500084F8340000BF022084F835002068006847
:1027600020F00100216808600AE000F0FDF9C01BBC
:10277000052805D920206065032084F83500E0E7AE
:102780002068006800F001000028EED1206805688C
:1027900021480540D4E901010843E1680843216963
:1027A000084361690843A1690843E1690843216A54
:1027B00008430543606A042803D1D4E90B010843A8
:1027C0000543206805602068456925F00705606AB3
:1027D0000543606A04280DD1A06A0543E06A48B148
:1027E0002046FEF733FC28B140206065012084F8C4
:1027F0003500A6E7206845612046FEF70DFC064639
:1028000094F85C103F208840B06000206065012093
:1028100084F83500002094E73F8010F02DE9F04166
:1028200004460D4616461F464FF0000800BF94F8B8
:102830003400012802D10220BDE8F081012084F893
:10284000340000BF94F83500012811D1022084F82B
:102850003500002060653B46324629462046FEF79B
:102860004AFC2068006840F001002168086006E02A
:1028700000BF002084F8340000BF4FF0020840463B
:10288000DAE72DE9F04704460D4616461F464FF09D
:102890000008D4F8589000BF94F83400012802D101
:1028A0000220BDE8F087012084F8340000BF94F8CE
:1028B0003500012825D1022084F83500002060650C
:1028C0003B46324629462046FEF715FC94F85C103C
:1028D0003F208840C9F808002068006840F01600D2
:1028E00021680860206C28B12068006840F008006A
:1028F000216808602068006840F0010021680860D5
:1029000006E000BF002084F8340000BF4FF002084A
:102910004046C6E770B5044600F026F9064625464F
:10292000681C10B104480078054400BF00F01CF991
:10293000801BA842FAD370BD3C020020F8B50246C5
:102940000B460025002400200021E6E0012606FABF
:1029500001F51E6806EA0504AC4273D15E68012EDB
:1029600008D05E68022E05D05E68112E02D05E6827
:10297000122E13D190684F000326BE40B0434F0083
:10298000DE68BE4030439060506801268E40B04300
:102990001E79C6F300168E4030435060D0684F0059
:1029A0000326BE40B0434F009E68BE403043D06017
:1029B0005E68022E02D05E68122E13D1CF0802F19B
:1029C000200656F827004E07F70E0F26BE40B043EC
:1029D0004F07FF0E1E69BE403043CF0802F12006AC
:1029E00046F8270010684F000326BE40B0431E790A
:1029F00006F003064F00BE40304310605E6806F0EC
:102A00008056B6F1805FA8D100BF00260096454EE3
:102A1000366846F48046434F3E603E46366806F4CC
:102A20008046009600BF00BF3F4E8F0856F8270033
:102A30008E07370F0F26BE40B0433C4EB24202D144
:102A400000262EE068E03A4EB24201D1012628E08D
:102A5000384EB24201D1022623E0374EB24201D1B4
:102A600003261EE0354EB24201D1042619E0344E51
:102A7000B24201D1052614E0324EB24201D10626FF
:102A80000FE0314EB24201D107260AE02F4EB2428A
:102A900001D1082605E02E4EB24201D1092600E000
:102AA0000A268F073F0FBE4030431F4E8F0846F85F
:102AB0002700284E3068A0435E6806F48036B6F5DD
:102AC000803F00D12043234E3060361D3068A04344
:102AD0005E6806F40036B6F5003F00D120431D4E77
:102AE000361D3060361D3068A0435E6806F48016DF
:102AF000B6F5801F00D12043164E08363060361DD3
:102B00003068A0435E6806F40016B6F5001F00D1D9
:102B10002043104E0C363060491C1029FFF416AFCC
:102B2000F8BD00004438024008380140000002406F
:102B30000004024000080240000C02400010024065
:102B40000014024000180240001C02400020024015
:102B500000240240003C0140024613690B400BB1C7
:102B6000012000E000207047014800687047000025
:102B700034020020034800680349097808440149E9
:102B800008607047340200203C02002010B50D4858
:102B9000006840F400700B4908600846006840F483
:102BA000806008600846006840F480700860032078
:102BB00000F0C2F8002000F007F800F04BF8002009
:102BC00010BD0000003C024070B588B004460025EE
:102BD000002600222146362000F070F8362000F052
:102BE0005DF800BF002001901648006840F010001A
:102BF000144908600846006800F01000019000BF0A
:102C000000BF02A903A800F06DF900F093F9450098
:102C10000D48B5FBF0F0461E0C480D49086040F227
:102C2000E7310B48C160466000210161816000F01E
:102C300017FD20B9064800F06FFD08B070BD0120F7
:102C4000FBE700004038024040420F000010004007
:102C5000840B002008B500BF002000900E480068DB
:102C600040F480400C4908600846006800F4804049
:102C7000009000BF00BF00BF00200090081F006848
:102C800040F08050091F08600846006800F080503E
:102C9000009000BF00BF08BD44380240014608460E
:102CA000002809DB00F01F0301229A4043099B0022
:102CB00003F1E023C3F8002100BF70472DE9F05F66
:102CC00080460D461646002704F08CF90746394623
:102CD0002A46334601F00700C0F1070ABAF1040F93
:102CE00002D94FF0040A01E0C0F1070AD14600F111
:102CF000040ABAF1070F02D24FF0000A01E0A0F176
:102D0000030AD4464FF0010A0AFA09FAAAF1010AA5
:102D10000AEA020A0AFA0CFA4FF0010B0BFA0CFB52
:102D2000ABF1010B0BEA030B4AEA0B0421464046C8
:102D300004F060F9BDE8F09F00BF00F00702064B09
:102D400019684FF6FF031940044B0B4343EA022175
:102D5000014B196000BF70470CED00E00000FA0560
:102D600070B504460D460CB9012070BD5848006886
:102D700000F00F00A84209D255490D7008460068BE
:102D800000F00F00A84201D00120EEE7207800F00B
:102D9000020002281DD1207800F00400042805D18B
:102DA0004C48006840F4E0504A490860207800F040
:102DB0000800082805D14748006840F460404549AC
:102DC00008604448006820F0F000A16808434149C9
:102DD0000860207800F00100A8B36068012807D1DE
:102DE0003C4808380068C0F34040B8B90120BCE74F
:102DF0006068022802D06068032807D13548083887
:102E00000068C0F3406048B90120AEE73148083897
:102E10000068C0F3400008B90120A6E72D4800680B
:102E200020F00300616808432A490860FFF79CFE10
:102E3000064609E0FFF798FE801B41F28831884280
:102E400002D9032091E707E02248006800F00C0057
:102E50006168B0EB810FEDD11D48006800F00F00F4
:102E6000A84209D91A490D700846006800F00F0001
:102E7000A84201D0012078E7207800F0040004285F
:102E800007D11448006820F4E050E1680843114974
:102E90000860207800F00800082808D10D48006874
:102EA00020F46040216940EAC1000A49086000F04E
:102EB00061F808490968C1F30311074A515CC84029
:102EC0000649086006480068FFF77EFE00204CE7D0
:102ED000003C024008380240789800084002002078
:102EE000380200200F2202600D4A126802F003022D
:102EF00042600B4A126802F0F0028260084A1268CF
:102F000002F4E052C260064A126802F46042D2083B
:102F10000261044A126802F00F020A607047000062
:102F200008380240003C0240014800687047000039
:102F30004002002000B5FFF7F7FF04490968C1F31C
:102F40008221034A515CC84000BD0000083802409D
:102F50008898000800B5FFF7E7FF04490968C1F346
:102F60004231034A515CC84000BD000008380240AD
:102F7000889800082DE9F047002400250026A14686
:102F80002548006800F00C0020B1042805D008286E
:102F90003AD105E0DFF8849039E0DFF8849036E03C
:102FA0001D48001F006800F03F041B48001F006818
:102FB00000F4800078B11A481749091F0968C1F365
:102FC0008811A0FB01700146224600233846FDF718
:102FD00069F905460EE011480F49091F0968C1F358
:102FE0008811A0FB01700146224600233846FDF7F8
:102FF00059F905460848001F0068C0F30140401C0D
:103000004600B5FBF6F902E0DFF8109000BF00BF04
:103010004846BDE8F0870000083802400024F4006C
:10302000001BB700F8B504460CB90120F8BD2078A4
:1030300000F00100002874D0F948006800F00C008E
:1030400004280DD0F648006800F00C00082813D1C1
:10305000F348001F006800F48000B0F5800F0BD12A
:10306000EF4808380068C0F34040002859D0606835
:10307000002856D10120D9E700BF6068B0F5803F35
:1030800008D1E7480838006840F48030E44908393E
:1030900008601EE06068B0F5A02F0DD1E048083848
:1030A000006840F48020DE4908390860084600685E
:1030B00040F4803008600CE0D9480838006820F4FB
:1030C0008030D749083908600846006820F480201D
:1030D000086000BF606890B1FFF746FD054606E056
:1030E000FFF742FD401B642801D903209EE7CC482E
:1030F00008380068C0F340400028F1D011E0FFF725
:1031000033FD054606E0FFF72FFD401B642801D97B
:1031100003208BE7C24808380068C0F3404000280D
:10312000F1D1207800F0020002285FD1BC4800688D
:1031300000F00C0058B1BA48006800F00C000828F4
:103140001CD1B748001F006800F48000B0B9B44833
:1031500008380068C0F3400020B1E068012801D0C1
:10316000012063E7AE480838006820F0F8002169C4
:1031700040EAC100AA490839086037E0E06800B3B6
:103180000120A8490860FFF7EFFC054606E0FFF7BD
:10319000EBFC401B022801D9032047E7A048083870
:1031A0000068C0F340000028F1D09D48083800684E
:1031B00020F0F800216940EAC10099490839086007
:1031C00014E0002097490860FFF7CEFC054606E0B2
:1031D000FFF7CAFC401B022801D9032026E79048CC
:1031E00008380068C0F340000028F1D1207800F0D2
:1031F000080008282CD16069A8B101208A4908601C
:10320000FFF7B2FC054606E0FFF7AEFC401B0228C4
:1032100001D903200AE782486C300068C0F34000FF
:103220000028F1D014E000207F490860FFF79CFCE3
:10323000054606E0FFF798FC401B022801D9032051
:10324000F4E677486C300068C0F340000028F1D104
:10325000207800F00400042870D10027704838302E
:10326000006800F0805090B900BF002000906C48CA
:103270003830006840F080506949383108600846AD
:10328000006800F08050009000BF00BF0127674831
:10329000006800F48070B0B96448006840F4807041
:1032A00062490860FFF760FC054606E0FFF75CFC3A
:1032B000401B022801D90320B8E65C48006800F4EE
:1032C00080700028F2D000BFA068012808D15448BF
:1032D0006830006840F001005149683108601DE025
:1032E000A06805280DD14E486830006840F0040001
:1032F0004B49683108600846006840F001000860EA
:103300000CE047486830006820F00100444968310B
:1033100008600846006820F00400086000BFA0684C
:10332000A8B1FFF721FC054609E0FFF71DFC401B93
:1033300041F28831884202D9032077E626E03848F6
:1033400068300068C0F340000028EED013E0FFF7BB
:103350000BFC054608E0FFF707FC401B41F28831F3
:10336000884201D9032061E62D4868300068C0F327
:1033700040000028EFD1012F07D1294838300068DC
:1033800020F0805026493831086000BFA06900282D
:1033900045D02348006800F00C0008285DD0A069E3
:1033A000022845D100201F490866FFF7DDFB0546CE
:1033B00006E0FFF7D9FB401B022801D9032035E6C0
:1033C000174808380068C0F340600028F1D1D4E9FC
:1033D00007010843616A40EA81110122A06AC2EB39
:1033E000500041EA00412C20005D41EA00600C4998
:1033F000091F086001200B490866FFF7B5FB054669
:1034000006E0FFF7B1FB401B022801D903200DE6BF
:10341000034808380068C0F340600028F1D03FE05E
:103420000838024000004742800E474200700040CA
:1034300000201C490866FFF797FB054606E0FFF7EA
:1034400093FB401B022801D90320EFE516480068D2
:10345000C0F340600028F2D122E0A069012800D129
:10346000E4E51148001D066806F48001E069814228
:1034700014D106F03F01206A81420FD147F6C07097
:103480003040616A884209D106F44031A06A814225
:1034900004D106F07061E06A814201D00120C5E5E7
:1034A0000020C3E500004742003802402DE9F0410A
:1034B00004460E46002700BF2079012802D10220D1
:1034C000BDE8F0810120207100BF6079012822D180
:1034D00002206071FFF748FB05460EE0FFF744FB52
:1034E000401B022809D9012060710220A06000BFA2
:1034F0000020207100BF0120E2E72068406800F052
:1035000001000028EAD020688068E060E068306050
:103510000120607102E00420A060012700BF0020AC
:10352000207100BF3846CBE710B5044604F10C010A
:103530002046FFF7BBFF08B9E06810BD0020FCE79C
:1035400010B504460CB9012010BD607920B90020E7
:103550002071204600F00EF802206071206800689B
:1035600040F0040021680860012060710020A06024
:1035700000BFE9E708B50A4A016891420FD100BFD0
:10358000002100910749096841F04001054A116096
:103590001146096801F04001009100BF00BF08BD5D
:1035A00000080650343802407047704730B5024674
:1035B0000B4600BF92F83C00012801D1022030BD2B
:1035C000012082F83C0000BF022082F83D00106814
:1035D00044681068816824F0700418680443106817
:1035E0004460184D1068A8421BD01068B0F1804F9D
:1035F00017D0154D1068A84213D0144D1068A8427A
:103600000FD0134D1068A8420BD0124D1068A8427D
:1036100007D0114D1068A84203D0104D1068A84281
:1036200005D121F0800158680143106881600120B4
:1036300082F83D0000BF002082F83C0000BF00BFC0
:10364000BDE7000000000140000400400008004009
:10365000000C004000040140004001400018004000
:1036600010B504460CB9012010BD94F83D0028B9EE
:10367000002084F83C00204600F00CF8022084F87A
:103680003D00211D206802F09DFF012084F83D00CF
:103690000020E9E738B504461C492068884218D163
:1036A00000BF002000901A48006840F0020018494E
:1036B00008600846006800F00200009000BF00BFEC
:1036C000002207211D20FFF7F9FA1D20FFF7E6FA77
:1036D0001BE010492068884217D100BF00200090ED
:1036E0000B48006840F0200009490860084600685F
:1036F00000F02000009000BF00BF0022062137200C
:10370000FFF7DCFA3720FFF7C9FA38BD00040040A4
:10371000403802400014004001460868C06840F08C
:1037200001000B68D8600868806800F00702062A6C
:1037300005D00868006840F001000B6818600020A0
:1037400070472DE9F04104460D4600BF94F83C0057
:10375000012802D10220BDE8F081012084F83C005C
:1037600000BF022084F83D002068866826F07706B6
:1037700026F47F46206886602868502833D00CDC09
:10378000202850D004DC00284BD0102851D149E02B
:10379000302849D040284CD139E060282DD07028FD
:1037A00007D0B0F5805F03D0B0F5005F41D10DE0E8
:1037B00040E0D5E902136A68206802F080FF2068C3
:1037C000866846F077062068866033E0D5E9021304
:1037D0006A68206802F073FF2068806840F48040C7
:1037E0002168886026E0EA686968206802F07BFF4B
:1037F0005021206802F06EFF1CE0EA6869682068CA
:1038000002F084FF6021206802F064FF12E0EA68A1
:103810006968206802F067FF4021206802F05AFFC3
:1038200008E000BF00BF00BF2968206802F052FF17
:1038300000E000BF00BF012084F83D0000BF002071
:1038400084F83C0000BF00BF85E72DE9F041044645
:103850000D4614B90120BDE8F08194F83D0028B967
:10386000002084F83C00204600F046F8022084F84E
:103870003D002068806844F2070188432168886021
:10388000211D206802F09EFE2068D0F80880206884
:1038900086692068076A286840EA080840F2033011
:1038A0008643A969A86840EA0120064340F60C4017
:1038B00086434FF2F0008643E969E86840EA012058
:1038C000064328690001296A40EA0130064327F0CF
:1038D000220727F088076969686840EA01100743F2
:1038E0002068C0F80880206886612068076201208F
:1038F00084F83D000020AEE710B586B004461421E0
:1039000001A8FCF719FD1A49206888422ED100BF92
:10391000002000901748006840F008001549086032
:103920000846006800F00800009000BF00BF00BF1C
:10393000002000900F481038006840F001000D4949
:10394000103908600846006800F00100009000BFD0
:1039500000BF03200190022002900120039002206A
:103960000490059001A90448FEF7E8FF06B010BDD9
:10397000000C0040403802400000024030B50446D0
:103980000D4615B1042D0CD105E00122002120685F
:1039900002F084FE10E001220421206802F07EFE85
:1039A0000AE001220021206802F078FE01220421B1
:1039B000206802F073FE00BF00BF2068006840F07E
:1039C000010021680860002030BD704710B5044632
:1039D00020680069C0F34000D8B12068C068C0F317
:1039E0004000B0B16FF0020021680861012020772B
:1039F0002068806900F0030018B12046FFF7E5FF5A
:103A000005E0204600F0ADF8204600F0ABF80020BD
:103A1000207720680069C0F38000D8B12068C068B2
:103A2000C0F38000B0B16FF004002168086102208B
:103A300020772068806900F4407018B12046FFF7B5
:103A4000C4FF05E0204600F08CF8204600F08AF81C
:103A50000020207720680069C0F3C000D8B120683A
:103A6000C068C0F3C000B0B16FF008002168086101
:103A7000042020772068C06900F0030018B12046B8
:103A8000FFF7A3FF05E0204600F06BF8204600F0AA
:103A900069F80020207720680069C0F30010D8B1D1
:103AA0002068C068C0F30010B0B16FF0100021684A
:103AB0000861082020772068C06900F4407018B1C0
:103AC0002046FFF782FF05E0204600F04AF8204636
:103AD00000F048F8002020772068006900F001001D
:103AE00058B12068C06800F0010030B16FF00100EB
:103AF00021680861204600F037F820680069C0F3AB
:103B0000C01058B12068C068C0F3C01030B16FF069
:103B10008000216808612046FFF746FD20680069A3
:103B2000C0F3801058B12068C068C0F3801030B175
:103B30006FF0400021680861204600F021F82068FD
:103B40000069C0F3401058B12068C068C0F340104D
:103B500030B16FF02000216808612046FFF725FD95
:103B600010BD70477047000010B504460349206837
:103B7000884201D1FEF7FEFF10BD0000001000409A
:103B8000704770472DE9F0470446206805682068B3
:103B9000C668206847694FF00008C14605F00F0865
:103BA000B8F1000F0AD105F0200038B106F020006E
:103BB00020B1204602F060FEBDE8F087B8F1000FAA
:103BC00072D007F0010018B906F4907000286BD08D
:103BD00005F0010030B106F4807018B1E06B40F0E0
:103BE0000100E06305F0040030B107F0010018B1F6
:103BF000E06B40F00200E06305F0020030B107F036
:103C0000010018B1E06B40F00400E06305F008002B
:103C100048B106F0200010B907F0010018B1E06BC0
:103C200040F00800E063E06B70B305F0200028B1BD
:103C300006F0200010B1204602F01EFE2068406908
:103C4000C0F38019E06B00F0080010B9B9F1000F63
:103C500023D0204602F0E6FD2068406900F04000D5
:103C6000402816D12068406920F040002168486152
:103C7000606B50B11748616B0865606BFEF723FC01
:103C800010B1606B016D88470CE02046FFF779FFAB
:103C900008E02046FFF775FF04E02046FFF771FFBC
:103CA0000020E06388E7FFE705F0800030B106F010
:103CB000800018B1204603F027F87DE705F04000AA
:103CC00030B106F0400018B1204602F0BBFD73E7AA
:103CD00000BF71E77D67000810B504460CB90120EC
:103CE00010BDA06900B100E000BF94F8390028B908
:103CF000002084F83800204600F028F8242084F8BA
:103D000039002068C06820F400502168C86020464F
:103D100002F006FE2068006920F4904021680861E6
:103D20002068406920F02A00216848612068C06846
:103D300040F400502168C8600020E063202084F82F
:103D4000390084F83A000020CAE7000010B586B0B8
:103D50000446142101A8FCF7EFFAFD4920688842C7
:103D600059D100BF00200090FA48006840F0804020
:103D7000F84908600846006800F08040009000BFE5
:103D800000BF00BF00200090F2481038006840F0EB
:103D90001000F049103908600846006800F0100073
:103DA000009000BF00BF4FF4C0700190022002904D
:103DB00001200390032004900820059001A9E64803
:103DC000FEF7BCFDE548E64908604FF0206048601A
:103DD0000021E3488160C1604FF4806101610021EE
:103DE000416181614FF48071C161002101624162D2
:103DF000FEF79EFC08B1FDF7DEFB00BFD84860630C
:103E0000846300BF002207215220FEF757FF522093
:103E1000FEF744FF9AE1D3492068884259D100BF98
:103E200000200090CB48006840F00040C94908607D
:103E30000846006800F00040009000BF00BF00BFCF
:103E400000200090C3481038006840F01000C149BD
:103E5000103908600846006800F01000009000BFAC
:103E600000BF032001900220029001200390032054
:103E700004900820059001A9B748FEF75FFDB748F8
:103E80004830B9490860000548600021B6488160A3
:103E9000C1604FF4806101610021416181614FF493
:103EA0008071C1610902016200214162FEF740FC9C
:103EB00008B1FDF780FB00BFAB486063846300BFBF
:103EC000002207215320FEF7F9FE5320FEF7E6FEFD
:103ED0003CE1A649206888425BD100BF00200090E9
:103EE0009C48001D006840F010009A49091D0860B8
:103EF0000846006800F01000009000BF00BF00BF3F
:103F00000020009093481038006840F0020091496A
:103F1000103908600846006800F00200009000BFF9
:103F200000BFC020019002200290002003900320D7
:103F300004900720059001A98D48FEF7FFFC8D48ED
:103F40008D4908604FF00060486000218A48816018
:103F5000C1604FF4806101610021416181614FF4D2
:103F60008071C1614902016200214162FEF7E0FBFC
:103F700008B1FDF720FB00BF7F486063846300BF8A
:103F8000002207212520FEF799FE2520FEF786FE58
:103F9000DCE07A49206888425BD100BF00200090B5
:103FA0006C48006840F480206A4908600846006850
:103FB00000F48020009000BF00BF00BF00200090F0
:103FC00064481038006840F0080062491039086001
:103FD0000846006800F00800009000BF00BF4FF4E2
:103FE0004070019002200290002003900320049072
:103FF0000720059001A96248FEF7A0FC5748303819
:10400000604908604FF00060486000215D488160B1
:10401000C1604FF4806101610021416181614FF411
:104020008071C1610902016200214162FEF780FBDB
:1040300008B1FDF7C0FA00BF52486063846300BF57
:10404000002207212720FEF739FE2720FEF726FE53
:104050007CE04D492068884278D100BF0020009064
:104060003C48001D006840F020003A49091D0860E6
:104070000846006800F02000009000BF00BF00BFAD
:104080000020009033481038006840F004003149A7
:10409000103908600846006800F00400009000BF76
:1040A00000BFC02001900220029000200390032056
:1040B00004900820059001A93448FEF73FFC2D48E4
:1040C0001838334908608005486000213048816015
:1040D000C1604FF480610161002141618161C16172
:1040E0004FF44031016200214162FEF721FB08B12B
:1040F000FDF761FA00BF26486063846300BF1D4876
:104100006030244908604FF0206048604021214819
:1041100081600021C1604FF4806101610021416133
:104120008161C16101624162FEF702FB08B1FDF7E6
:1041300042FA00BF17482063846300BF00220621B3
:104140004720FEF7BBFD4720FEF7A8FD06B010BDD7
:1041500000780040403802400010024058600240A1
:10416000FC080020007C00405C0900200010014099
:104170000004024040640240BC09002000480040A6
:10418000000C02401C0A00200014014000080240FC
:104190007C0A0020DC0A002070470000F7B50446C6
:1041A000154694F8390020283DD1019800B10DB989
:1041B0000120FEBD00BF94F83800012801D1022083
:1041C000F7E7012084F8380000BF01982062A58439
:1041D000E5840020E063212084F839001348216B36
:1041E000C8631348216B08641248216BC86400201F
:1041F000216B086501AE23681A1D31682B46206BC0
:10420000FEF73FFB6FF040002168086000BF002010
:1042100084F8380000BF2068406940F080002168C1
:1042200048610020C5E70220C3E70000E1670008FD
:1042300017680008916700087047704700BFFEE7E5
:1042400080ED000AC0ED010A80ED021ADFED225A6E
:10425000C0ED035ADFED205AC0ED045AD0ED035AE9
:1042600090ED046A75EEC65AC0ED055AC0ED061A07
:1042700080ED072AC0ED082ADFED175AC0ED095A74
:10428000DFED155AC0ED0A5ADFED135AC0ED0B5A97
:1042900080ED0C3ADFED105AC0ED0D5AC0ED0F3A2B
:1042A00080ED104ADFED0C5AC0ED115ADFED0A5ACD
:1042B000C0ED125AC0ED134A80ED145AD0ED055AE4
:1042C000C0ED155AD0ED155AC0ED165ADFED025A61
:1042D000C0ED0E5A704700000000000010B500202D
:1042E00004E00D49095C0D4A1154401C1228F8DB0A
:1042F0000A4B4FF4A17200210948FCF765FB01202D
:1043000003F0FBFA054B083340F243120021044846
:10431000FCF75AFB10BD0000A94C00204F580020AC
:10432000C406002010B506480078064908700B4600
:1043300040F2371200210448FCF746FB10BD000094
:104340002A0300204F580020C406002010B500208A
:1043500004E00749095C074A1154401C0728F8DBB0
:10436000044B4FF49B7200210348FCF72DFB10BD5A
:104370002C0300204F580020C406002010B5002058
:1043800004E01949095C194A1154401C1B28F8DB48
:10439000164B4FF49C7200211548FCF715FB0120C9
:1043A00003F0ABFA114B083340F2391200211048E8
:1043B000FCF70AFB012003F0A0FA0C4B10334FF47A
:1043C000A07200210A48FCF7FFFA012003F095FAD9
:1043D000064B183340F2411200210548FCF7F4FA6D
:1043E000012003F08AFA10BD8D4C00204F580020A8
:1043F000C406002038B504462068006800F01000AC
:10440000102830D12068C06800F0100058B300BFF9
:1044100000200090206800680090206840680090AC
:1044200000BF00BF606B0068006820F00100616B96
:1044300009680860606B006840680B49088009885B
:1044400040F28512511A88B200F010F840F285103F
:10445000616B09684860606B0068006840F00100AB
:10446000616B0968086038BD5203002070B50546CD
:104470000024ECE1FE48005DA52879D1FC49601DCF
:10448000095CFB4AA01D105C41EA002040F20222B8
:10449000811A90426DD017DC40F20112A0EB0201AC
:1044A000904267D006DC062879D2DFE800F0782257
:1044B0003B4E6682012973D0032972D0042971D042
:1044C000B1F5807F6BD1DBE005296CD008DC0129D8
:1044D0006AD0022969D0032968D00429F2D135E1D4
:1044E00006297CD007297BD008297AD0FF29E9D179
:1044F00098E1DF490819142102F054FD80B1DC492C
:10450000E01D0144DB480A6802604A6842600A898B
:104510000281897A817214340120D649C87200E080
:10452000641C92E1D24908190A2102F03BFD50B106
:10453000CF49E01D0144D048097801700A340120B8
:10454000CD49487000E0641C7FE1C9490819292160
:1045500002F028FD78B1C64AE01D11182022C74894
:10456000FBF7D1FE29340120C44981F8200003E083
:104570006CE19BE038E0641C67E1BD4908190C213F
:1045800002F010FD98B1BA49E01D0844BC49028808
:104590000A80807888700C340120C87008E052E1ED
:1045A00035E047E059E0E6E096E0A9E0BBE0641CB6
:1045B0004BE1AF490819142102F0F4FC90B1AC4969
:1045C000E01D0844AF4902680A6042684A600289F7
:1045D0000A81807A887214340120C87203E0E2E014
:1045E000F6E008E1641C30E1A14908190D2102F050
:1045F000D9FC50B19E49E01D0144A34809680160FF
:104600000D340120A049087100E0641C1DE19849A7
:1046100008190D2102F0C6FC50B19549E01D014476
:104620009A48096801600D3401209849087100E03A
:10463000641C0AE18E4908190B2102F0B3FC50B149
:104640008B49E01D01449248098801800B34012008
:104650008F49887000E0641CF7E0854908190A2139
:1046600002F0A0FC50B18249E01D0144894809785C
:1046700001700A3401208749487000E0641CE4E0BE
:104680007B490819242102F08DFC68B1784AE01DAD
:1046900011181B228048FBF736FE243401207E4986
:1046A000C8767E49087000E0641CCEE070490819A5
:1046B000192102F077FC68B16D4AE01D1118102233
:1046C0007748FBF720FE19340120754908747549B5
:1046D000087000E0641CB8E065490819192102F06F
:1046E00061FC58B1624AE01D111810226E48FBF7B8
:1046F0000AFE193401206C49087400E0641CA4E02F
:104700005B4908190A2102F04DFC50B15849E01DDF
:1047100001446648097801700A34012063494870F1
:1047200000E0641C91E0524908190A2102F03AFCA9
:1047300050B14F49E01D01445D48097801700A34C9
:1047400001205B49887000E0641C7EE0484908193C
:104750000A2102F027FC60B14549E01D014455489B
:10476000097801700A340120524948705249087092
:1047700000E0641C69E03E490819102102F012FCB7
:1047800078B13B49E01D08444C4902680A608288C0
:104790008A808079887110340120C8714849087076
:1047A00000E0641C51E0324908190F2102F0FAFBC5
:1047B00060B12F49E01D014442480A6802608988BF
:1047C00081800F3401203F49887100E0641C3CE087
:1047D000274908190D2102F0E5FB50B12449E01DDD
:1047E00001443948096801600D34012036490871D7
:1047F00000E0641C29E01E490819152102F0D2FBD3
:1048000070B11B49E01D014430480A6802604A68E3
:10481000426089688160153401202C49087300E0EA
:10482000641C12E012490819232102F0BBFB40B1BD
:104830000F4AE01D11181A222548FBF764FD2334A6
:1048400000E0641C01E0641C00BF00E0641CAC429A
:10485000FFF610AE01201F4948711031A1F1080088
:10486000FDF7F6F81B488069401C1A49886133E05F
:10487000B1510020544C002010030020604C002057
:1048800012030020814C0020160300201B0300208F
:1048900020030020230300208D4C00207401002001
:1048A000A94C002075010020BA4C002025030020EF
:1048B000270300202A030020730100202C0300207E
:1048C00072010020340300203B030020CB4C002069
:1048D00036530020244C00200020087570BD0000D5
:1048E0000FB440F203220099914201D004B0704706
:1048F0000099A1F201209DF81D109DF81C2041EAAD
:10490000022100EB4012454B23F822109DF81F2096
:104910009DF81E1042EA012109B200EB401203EBA0
:10492000820291809DF821209DF8201042EA012109
:1049300000EE101AB8EEC00AF1EE040A20EE200ACA
:10494000DFED370A80EE201ABDEEC10A10EE101A14
:1049500009B200EB401203EB8202D18000EB401160
:104960001A4632F8211000EB401203EB8202528803
:10497000891AB1F5805F0FDD00EB40111A4602EB9A
:104980008101B1F87810491E09B200EB401203EB27
:104990008202A2F878101DE000EB40111F4A32F8A5
:1049A000211000EB40121D4B03EB82025288891A42
:1049B00011F5805F0EDA00EB40111A4602EB81011F
:1049C000B1F87810491C09B200EB401203EB8202E7
:1049D000A2F8781000EB4011104A32F8212000EBC9
:1049E00040110E4B03EB8101B1F9781002EB41311C
:1049F00000EE101AB8EEC00A00EB40111A4602EBA6
:104A0000810181ED1F0A00EB401132F8211000EB0B
:104A1000401203EB8202518000BF67E7CC490020BF
:104A2000000080460FB40099B1F5017F01D004B0B9
:104A300070470099A1F201209DF81D109DF81C20DF
:104A400041EA022100EB4012404B23F822109DF86E
:104A50001F209DF81E1042EA012109B200EB40120E
:104A600003EB820291809DF821209DF8201042EAFC
:104A7000012109B200EB401203EB8202D1809DF8C4
:104A8000221000EB401203EB8202117200EB401186
:104A90001A4632F8211000EB401203EB82025288D2
:104AA000891AB1F5805F0FDD00EB40111A4602EB69
:104AB0008101B1F87810491E09B200EB401203EBF6
:104AC0008202A2F878101DE000EB40111F4A32F874
:104AD000211000EB40121D4B03EB82025288891A11
:104AE00011F5805F0EDA00EB40111A4602EB8101EE
:104AF000B1F87810491C09B200EB401203EB8202B6
:104B0000A2F8781000EB4011104A32F8212000EB97
:104B100040110E4B03EB8101B1F9781002EB4131EA
:104B200000EE101AB8EEC00A00EB40111A4602EB74
:104B3000810181ED1F0A00EB401132F8211000EBDA
:104B4000401203EB8202518000BF70E7CC49002085
:104B50000FB40099B1F5007F03D90099B1F5017F39
:104B600001D904B070470099A1F201209DF81D10F1
:104B70009DF81C2041EA022100EB4012114B23F862
:104B800022109DF81F209DF81E1042EA012109B253
:104B900000EB401203EB820291809DF821209DF8EA
:104BA000201042EA012109B200EB401203EB82021D
:104BB000D1809DF8221000EB401203EB82021172AB
:104BC00000BFCEE7CC4900202DE9FC4107460C464A
:104BD00015461E46380A8DF80000F8B28DF801001F
:104BE000200A8DF80200E0B28DF80300280A8DF843
:104BF0000400E8B28DF80500300A8DF80600F0B226
:104C00008DF807006B464FF4007200210248FBF755
:104C1000DBFEBDE8FC8100009C06002010B50E48BC
:104C20000E4908600720486000210C488160C1607F
:104C30004FF400310161C900416100210176012179
:104C400041768176C176002101774177FDF745FAFB
:104C500008B1FCF7B0FC10BD006400409C060020C9
:104C600010B50E480E4908600720486000210C4826
:104C70008160C1604FF400310161C90041610021D0
:104C80000176012141768176C17600210177417755
:104C9000FDF723FA08B1FCF78EFC10BD0068004058
:104CA000C406002008B500BF002000902648006818
:104CB00040F48000244908600846006800F4800041
:104CC000009000BF00BF00BF0020009008460068B1
:104CD00040F4001008600846006800F400100090DE
:104CE00000BF00BF002211460C20FDF7E7FF0C209B
:104CF000FDF7D4FF002211460E20FDF7DFFF0E2046
:104D0000FDF7CCFF002211461120FDF7D7FF11203F
:104D1000FDF7C4FF002211463920FDF7CFFF3920EF
:104D2000FDF7BCFF002211463A20FDF7C7FF3A20ED
:104D3000FDF7B4FF002211464520FDF7BFFF4520D7
:104D4000FDF7ACFF08BD00003038024000B5A3B04D
:104D500000222421202004F0BBF82349086000220F
:104D60002421202004F0B4F8204908601C222049A6
:104D70001CA8FBF7C8FA00211CA802F0CFFD1D49B2
:104D800008601C221A491C3115A8FBF7BCFA002147
:104D900015A802F0C3FD184908601C2214493831D7
:104DA0000EA8FBF7B0FA00210EA802F0B7FD1349D8
:104DB00008601C220E49543107A8FBF7A4FA002111
:104DC00007A802F0ABFD0E4908601C2208497031AB
:104DD0006846FBF798FA0021684602F09FFD0949F2
:104DE000086023B000BD0000E0010020E4010020C5
:104DF000AC970008F0010020F4010020F801002029
:104E0000FC0100200002002000B587B0142102A898
:104E1000FBF792FA00BF002001903248006840F092
:104E20008000304908600846006800F0800001906A
:104E300000BF00BF00BF002001900846006840F09E
:104E4000010008600846006800F00100019000BF02
:104E500000BF00BF002001900846006840F010002D
:104E600008600846006800F01000019000BF00BF15
:104E700000BF002001900846006840F00200086072
:104E80000846006800F00200019000BF00BF00BFAC
:104E9000002001900846006840F0080008600846BD
:104EA000006800F00800019000BF00BF00BF0020B4
:104EB00001900846006840F0040008600846006859
:104EC00000F00400019000BF00BF4FF4407002905A
:104ED000002003900120049002A90348FDF72EFD55
:104EE00007B000BD303802400000024010B5054850
:104EF000054908600846FEF723FB08B1FCF75BFB99
:104F000010BD000000080650EC06002000B587B078
:104F100000200390049005900690019002901448A0
:104F200014490860532048600021124881603121F3
:104F3000C1600021016180218161FEF791FB08B110
:104F4000FCF739FB4FF48050039003A90948FEF7A2
:104F5000F8FB08B1FCF72FFB00200190029001A99B
:104F60000448FEF723FB08B1FCF725FB07B000BDA2
:104F700000040040FC06002000B58BB0242102A8EC
:104F8000FBF7DAF9002000900190184818490860F2
:104F90000020486000211648816040F69F71C16082
:104FA0000021016181610320029000200390012013
:104FB00004900020059006900790012008900020A2
:104FC00009900A9002A90A48FEF73FFC08B1FCF7D5
:104FD000F2FA00200090019069460548FEF7E6FAD3
:104FE00008B1FCF7E8FA0BB000BD0000000C00406F
:104FF0003C0700201CB50020009001900E480F498E
:1050000008605320486000210C48816040F2E7317D
:10501000C16080218161FEF723FB08B1FCF7CBFA68
:1050200000200090019069460448FEF7BFFA08B1DD
:10503000FCF7C1FA1CBD0000001400407C070020F2
:1050400010B50B480B4908604FF4E130486000216F
:1050500008488160C16001610C21416100218161CA
:10506000C161FEF739FE08B1FCF7A5FA10BD0000DA
:1050700000780040BC07002010B50B480B490860C1
:105080004FF4E1304860002108488160C16001614F
:105090000C21416100218161C161FEF71DFE08B153
:1050A000FCF789FA10BD0000007C0040FC070020DE
:1050B00010B50A480A4908600A48486000210848B3
:1050C0008160C16001610C21416100218161C16188
:1050D000FEF702FE08B1FCF76EFA10BD00100140A9
:1050E0003C080020A086010010B50B480B49086061
:1050F0004FF4E1304860002108488160C1600161DF
:105100000C21416100218161C161FEF7E5FD08B11B
:10511000FCF751FA10BD0000004800407C08002058
:1051200010B50B480B4908604FF4E130486000218E
:1051300008488160C16001610C21416100218161E9
:10514000C161FEF7C9FD08B1FCF735FA10BD0000DA
:1051500000140140BC08002000BFFEE770470000BB
:1051600010B50024AA222146641C89484254FF221B
:105170002146641C4254F1222146641C42542222DE
:105180002146641C425400208249087082480188EC
:10519000804802780078401C7E4B18707F4840F8A9
:1051A00022101421184602780078401C18707B48A1
:1051B00040F822107848406800EE100ABDEEC00AA0
:1051C00010EE100A19460A780978491C19707349BB
:1051D00041F8220070480189184602780078401C86
:1051E00018706E4840F822100022184601780078A6
:1051F000401C1870694840F821206948B0F99211A4
:10520000184602780078401C1870644840F8221054
:105210006348B0F99011184602780078401C187065
:105220005E4840F822100020194608705D48008B47
:1052300001B2184602780078401C18705A4820F8CD
:1052400012105A48008802B2184601780078401CB3
:105250001870554820F811205548008802B21846A9
:1052600001780078401C18704F4820F81120002069
:10527000194608702FE049484649097810F821205E
:105280002046611CCCB242490A544448414909783D
:1052900000EB810042782046611CCCB23C490A54A4
:1052A0003E483C49097800EB810082782046611C29
:1052B000CCB237490A5439483649097800EB8100A5
:1052C000C2782046611CCCB231490A54314800787A
:1052D000401C304908702F4800780728CBDB00209D
:1052E0002C49087019E030482A49097810F8112033
:1052F0002046611CCCB226490A542B48254909781E
:1053000000EB410042782046611CCCB220490A548F
:1053100020480078401C1F4908701E480078032868
:10532000E1DB0020234908702349087023490870F5
:1053300013E0174821490978405C1E490978084460
:105340001C4908701C480078097808441A490870FC
:105350001A480078401C194908700D48C078001D93
:10536000164909788842E4DC124802782046611C1C
:10537000CCB207490A54104802782046611CCCB2CE
:1053800003490A5422460E48FEF708FF10BD0000EC
:10539000CA480020D5020020A94C0020FC4800206B
:1053A000CC490020A4030020D6020020A800002041
:1053B000CC000020CC020020CD020020D40200202E
:1053C000BC08002010B52048007801281CD11F48D7
:1053D00000691F4909681F4A1268891A884204DD5A
:1053E00001201D4908700020C871184801691B4838
:1053F0000068184A12681044814209DA00201649F0
:1054000008700120C87103E0002013490870C871BA
:10541000002011494870887011480078012802D195
:10542000C870087103E000200B49C87008710020A3
:105430000949487188710B464FF4A272002109484E
:10544000FBF7C2FA10BD00007B010020C40300205E
:105450003C010020440100204F5800204001002062
:105460007A010020C40600200020B5EEC00AF1EE4B
:1054700010FA02DDB0EE401A01E0B1EE401AB4EECF
:10548000E01AF1EE10FA00D80120704780ED000A12
:10549000C0ED010A80ED021A9FED1D4A80ED034A1E
:1054A0009FED1B4A80ED044A90ED034AD0ED044A7B
:1054B00034EE644A80ED054AC0ED061A9FED144AA9
:1054C00080ED094A9FED124A80ED0A4A9FED104A8D
:1054D00080ED0B4A9FED0E4A80ED0D4A80ED0F2ABC
:1054E000C0ED102A9FED0A4A80ED114A80ED123A74
:1054F000C0ED133A90ED054A80ED144A90ED144A40
:1055000080ED154A9FED024A80ED0E4A704700007B
:105510000000000070B52DED028B0446B0EE408A0D
:10552000F0EE608A84ED038AC4ED048A38EE680ADE
:1055300084ED050A94ED000AD4ED050A20EE200A58
:1055400084ED090A94ED050AD4ED140A30EE600AE0
:1055500084ED0B0A94ED050AD4ED140A30EE600ACE
:10556000D4ED020A20EE200A84ED0D0A94ED061A0D
:10557000F0EE410A94ED051AB0EE410AFFF774FF10
:10558000054643480560012D4ED194ED0A0AD4ED3D
:105590000F0AB4EEE00AF1EE10FA0FDD94ED050A01
:1055A000B5EEC00AF1EE10FA29D894ED0A0AD4ED4E
:1055B000050A30EE200A84ED0A0A20E094ED0A0A7A
:1055C000D4ED100AB4EEE00AF1EE10FA0FD294ED29
:1055D000050AB5EEC00AF1EE10FA10DB94ED0A0AE6
:1055E000D4ED050A30EE200A84ED0A0A07E094EDB6
:1055F0000A0AD4ED050A30EE200A84ED0A0A94ED79
:10560000010AD4ED0A0A20EE200A84ED170A94ED6F
:10561000090AD4ED170A30EE200AD4ED0D0A30EE57
:10562000200A84ED110A07E094ED090AD4ED0D0A71
:1056300030EE200A84ED110A94ED110AD4ED120A1D
:10564000B4EEE00AF1EE10FA04DD94ED120A84EDF6
:10565000110A0CE094ED110AD4ED130AB4EEE00A3D
:10566000F1EE10FA03D294ED130A84ED110A94EDD1
:10567000140A84ED150A94ED050A84ED140A94EDDC
:105680000D0A84ED0E0A94ED110ABDEC028B70BD7B
:105690006C03002038480089962802DA0120374937
:1056A000087036480078012806D133480089B428AC
:1056B00002DD00203149087030480078012805D10A
:1056C000B7EE000A2E4880ED000A04E09FED2D0A97
:1056D0002B4880ED000A2C480068B0F5FA6F42DADA
:1056E0002A48007828B90020244908700120274959
:1056F00008702148008900EE100AB8EE400A2448DC
:10570000D0ED000AB4EEE00AF1EE10FA02D2012068
:105710001A49087019480078012810D116480089E4
:1057200000EE100AB8EE400A1A48D0ED000AB4EEB6
:10573000E00AF1EE10FA02DD0020104908700F486F
:105740000078012805D19FED140A0D4880ED000A6C
:1057500004E09FED120A0A4880ED000A4FF4C87079
:105760000F49088006E00020084908704FF42F70A8
:105770000B49088070470000A94C0020360000202B
:105780008C010020CDCCAC3FBC01002037000020B4
:10579000C4010020C80100203333933F6666E63F12
:1057A0003400002010B564210020FCF761F9FE49A7
:1057B0000860FE48B0F99001002803DDFB48B0F90D
:1057C000900103E0F948B0F990014042B0F5FA6F5A
:1057D00004DDF5488088401CF3498880FFF75AFFB4
:1057E000F3480078012849D1F2480078012845D1D2
:1057F000F1480078F0B9ED48D0ED820AEF48006832
:10580000EF49084400EE100AB8EEC00AF4EEC00AF0
:10581000F1EE10FA0ED2EB4890ED000ADFEDEA0A45
:1058200020EE200ABDEEC00AE84880ED000A002004
:10583000DD498880E648007800281ED1DB48D0ED9D
:10584000820AE4480068DE49401A00EE100AB8EE09
:10585000C00AF4EEC00AF1EE10FA0EDDD94890ED60
:10586000000ADFEDDD0A20EE200ABDEEC00AD748AF
:1058700080ED000A0020CC4988806BE2CC4800789B
:1058800070BBCC48007801282AD1D148007870B983
:10589000CC4890ED000ADFEDD00A20EE200ABDEEE4
:1058A000C00ACA4880ED000A0020BF498880CB4862
:1058B0000069CB490968CB4A126811448842DCDA96
:1058C000C04890ED000ADFEDC00A20EE200ABDEED0
:1058D000C00ABE4880ED000A0020B349888039E242
:1058E000B348007801283ED1B2480078D0BBB24816
:1058F0000078F0B9AD48D0ED820AB0480068B049F0
:10590000084400EE100AB8EEC00AF4EEC00AF1EE48
:1059100010FA0ED2AB4890ED000ADFEDAB0A20EE94
:10592000200ABDEEC00AA94880ED000A00209E4969
:105930008880AA480069AC490968AA4A1268891A8D
:1059400088429ADD9F4890ED000ADFEDA30A20EE21
:10595000200ABDEEC00A9D4880ED000A0020924951
:105960008880F7E1FFE792480078002885D19148C8
:1059700000780028B3D19948016999480068994A8C
:1059800012681044814255DA0020984908709849FD
:1059900008709849086098480068401C964908605B
:1059A0004FF47A60954908608048B0F9900100286A
:1059B00002DD01209249086091480068A8B9874833
:1059C00001698748006800F5FA60814206DD8D486C
:1059D0007E49086000208C49087015E08B487B499F
:1059E00008600120884908700EE000208649087090
:1059F000744890ED000ADFED740A20EE200ABDEE37
:105A0000C00A724880ED000A7B48006840F6B83151
:105A10008842A6DD00207C4908706A4890ED000AA3
:105A2000DFED690A20EE200ABDEEC00A674880ED6E
:105A3000000A8FE1694800696B490968694A126880
:105A4000891A88425EDD71486C4908600020674908
:105A50000870674908706749086067480068401C1B
:105A6000654908605148B0F99001002802DA012028
:105A70006349086062480068F8B9584801695A48A3
:105A80000068A0F5FA6081420FDA00205E490870D4
:105A90004C4890ED000ADFED5E0A20EE200ABDEED4
:105AA000C00A4A4880ED000A16E04FF47A60474980
:105AB00008600120544908700EE000205249087027
:105AC000404890ED000ADFED440A20EE200ABDEECA
:105AD000C00A3E4880ED000A4748006840F6B831E9
